:020000040800F2
:100000000050002099290008852600088B2600084A
:1000100091260008972600089D2600080000000091
:10002000000000000000000000000000A3260008FF
:10003000AF26000800000000BB260008C726000805
:10004000E1290008E1290008E1290008E129000868
:10005000E1290008E1290008E1290008E129000858
:10006000E1290008E1290008E1290008E129000848
:10007000E1290008E1290008E1290008E129000838
:10008000E1290008E1290008E1290008E129000828
:10009000D5260008E9260008E1290008E129000822
:1000A000E1290008E1290008E1290008E129000808
:1000B000FD260008E1290008E1290008E1290008DF
:1000C000E1290008E1290008E1290008E1290008E8
:1000D000E1290008E1290008E1290008E1290008D8
:1000E000E1290008E1290008E129000800000000DA
:1000F0000000000000000000000000000000000000
:0C01000000000000000000005FF808F1A3
:10010C000348044B834202D0034B03B1184770479A
:10011C005008002050080020000000000548064947
:10012C000B1AD90F01EBA301491002D0034B03B1F9
:10013C0018477047500800205008002000000000AD
:10014C0010B5064C237843B9FFF7DAFF044B13B113
:10015C000448AFF300800123237010BD5008002029
:10016C00000000002062000808B5044B1BB10449D4
:10017C000448AFF30080BDE80840CFE70000000062
:10018C00540800202062000880F0004002E000BF0C
:10019C0081F0004142001FBF5FEA410392EA030F66
:1001AC007FEA226C7FEA236C6AD04FEA1262D2EBB0
:1001BC001363C1BFD218414048404140B8BF5B42B5
:1001CC00192B88BF704710F0004F40F4000020F04E
:1001DC007F4018BF404211F0004F41F4000121F064
:1001EC007F4118BF494292EA030F3FD0A2F10102AE
:1001FC0041FA03FC10EB0C00C3F1200301FA03F1EC
:10020C0000F0004302D5494260EB4000B0F5000F0E
:10021C0013D3B0F1807F06D340084FEA310102F1CD
:10022C000102FE2A51D2B1F1004F40EBC25008BF7F
:10023C0020F0010040EA03007047490040EB000049
:10024C00013A28BFB0F5000FEDD2B0FA80FCACF14A
:10025C00080CB2EB0C0200FA0CF0AABF00EBC25077
:10026C0052421843BCBFD0401843704792F0000F65
:10027C0081F4000106BF80F400000132013BB5E7B8
:10028C004FEA41037FEA226C18BF7FEA236C21D02E
:10029C0092EA030F04D092F0000F08BF0846704793
:1002AC0090EA010F1CBF0020704712F07F4F04D161
:1002BC00400028BF40F00040704712F100723CBF74
:1002CC0000F50000704700F0004343F0FE4040F49E
:1002DC00000070477FEA226216BF08467FEA23635C
:1002EC000146420206BF5FEA412390EA010F40F447
:1002FC00800070474FF0000304E000BF10F0004393
:10030C0048BF40425FEA000C08BF704743F0964379
:10031C0001464FF000001CE050EA010208BF704794
:10032C004FF000030AE000BF50EA010208BF70471B
:10033C0011F0004302D5404261EB41015FEA010C30
:10034C0002BF84460146002043F0B64308BFA3F128
:10035C008053A3F50003BCFA8CF2083AA3EBC2530A
:10036C0010DB01FA02FC634400FA02FCC2F1200229
:10037C00BCF1004F20FA02F243EB020008BF20F060
:10038C000100704702F1200201FA02FCC2F12002C6
:10039C0050EA4C0021FA02F243EB020008BF20EABB
:1003AC00DC7070474FF0FF0C1CEAD0521EBF1CEAE9
:1003BC00D15392EA0C0F93EA0C0F6FD01A4480EAD7
:1003CC00010C400218BF5FEA41211ED04FF00063C0
:1003DC0043EA501043EA5111A0FB01310CF00040EC
:1003EC00B1F5000F3EBF490041EAD3715B0040EA12
:1003FC00010062F17F02FD2A1DD8B3F1004F40EBE2
:10040C00C25008BF20F00100704790F0000F0CF0B4
:10041C00004C08BF49024CEA502040EA51207F3A78
:10042C00C2BFD2F1FF0340EAC250704740F4000053
:10043C004FF00003013A5DDC12F1190FDCBF00F044
:10044C0000407047C2F10002410021FA02F1C2F1F2
:10045C00200200FA02FC5FEA310040F1000053EA8E
:10046C004C0308BF20EADC70704792F0000F00F0DC
:10047C00004C02BF400010F4000F013AF9D040EAE2
:10048C000C0093F0000F01F0004C02BF490011F476
:10049C00000F013BF9D041EA0C018FE70CEAD15374
:1004AC0092EA0C0F18BF93EA0C0F0AD030F0004CF4
:1004BC0018BF31F0004CD8D180EA010000F00040A8
:1004CC00704790F0000F17BF90F0004F084691F066
:1004DC00000F91F0004F14D092EA0C0F01D14202A0
:1004EC000FD193EA0C0F03D14B0218BF084608D169
:1004FC0080EA010000F0004040F0FE4040F40000B3
:10050C00704740F0FE4040F4400070474FF0FF0C45
:10051C001CEAD0521EBF1CEAD15392EA0C0F93EA8C
:10052C000C0F69D0A2EB030280EA010C49024FEADE
:10053C00402037D04FF0805343EA111143EA101397
:10054C000CF000408B4238BF5B0042F17D024FF44F
:10055C00000C8B4224BF5B1A40EA0C00B3EB510F2A
:10056C0024BFA3EB510340EA5C00B3EB910F24BF13
:10057C00A3EB910340EA9C00B3EBD10F24BFA3EB98
:10058C00D10340EADC001B0118BF5FEA1C1CE0D160
:10059C00FD2A3FF650AF8B4240EBC25008BF20F013
:1005AC00010070470CF0004C4CEA50207F32C2BF67
:1005BC00D2F1FF0340EAC250704740F400004FF004
:1005CC000003013A37E792F0000F00F0004C02BF35
:1005DC00400010F4000F013AF9D040EA0C0093F0FF
:1005EC00000F01F0004C02BF490011F4000F013B59
:1005FC00F9D041EA0C0195E70CEAD15392EA0C0FC1
:10060C0008D142027FF47DAF93EA0C0F7FF470AFF8
:10061C00084676E793EA0C0F04D14B023FF44CAF3B
:10062C0008466EE730F0004C18BF31F0004CCAD1D0
:10063C0030F000427FF45CAF31F000437FF43CAF0C
:10064C005FE700BF03685A004CBF43F0004323F040
:10065C0000431844704700BF2DE9F84339B34F1ECF
:10066C00044615463E464FF0000808EB060101EB28
:10067C00D171491004EBC1094846FFF7E3FF03466B
:10068C00C80008308F4220440BD0AB420BD8FFF788
:10069C00D9FF0138A84201F10108E6D34846BDE86C
:1006AC00F883AB42FAD9884501D04E1EDDE74FF0F6
:1006BC0000094846BDE8F883012807D0022807D076
:1006CC00044B00280CBF18460020704702487047A6
:1006DC0002487047B50D0008B90D0008BD0D0008A3
:1006EC0030B5244B044683B08D1E3BB3284601A97C
:1006FC00AFF30080E8B101992A46FFF7ADFF014640
:10070C00B8B1FFF79FFF4B68A064012B2ED0002BD4
:10071C0027DB081DFFF796FF0023C4E913030368CA
:10072C00002B12DBFFF78EFF03460020236103B082
:10073C0030BD00230920236103B030BD0E4B0F499F
:10074C001846C91AC9100191D6E7C3F30360FFF725
:10075C00B3FF0028034614BF00200920236103B017
:10076C0030BD0123081DC4E91303D8E7002305207D
:10077C002361DCE700000000EC6200081C64000848
:10078C00036810B5DA07044606D49B0700F148004D
:10079C0009D500F05DFC2368590709D51A070ED559
:1007AC00DB0613D510BD00F04BFC23685907F5D4BC
:1007BC0004F1D00000F054FC23681A07F0D404F5BF
:1007CC00A87000F055FC2368DB06EBD404F5E87048
:1007DC00BDE8104000F090BC09207047034600684B
:1007EC0000B11844704700BF704700BF70B5044695
:1007FC000E462046316CFFF773FF054698B9D6F8C4
:10080C0040C03246214601202369C4F814C09847E1
:10081C000828EED0072806D12846316CFFF7E4FFF4
:10082C00301D00F001FC00F09BFE00BF2DE9F047ED
:10083C004FF0000AADF5727D0DF10C0E01F1040CB8
:10084C00C768D0F8188006461446BCE80F00AEE81E
:10085C000F00BCE80F00AEE80F00BCE80F00AEE8DC
:10086C000F009CE80F0002AD8EE80F00C5F800A049
:10087C0021E02B6C4FF4F072294673617AA800F0DA
:10088C00BDFE3146504633697AAA9847889C824609
:10089C006C643346324649460120CDE90058B847CE
:1008AC000446F0B94FF4F07228467AA900F0A6FE7F
:1008BC00BAF1080F1BD13046296CFFF711FF04F178
:1008CC0009095FFA89FA04460028D2D0A96B33468D
:1008DC00696432460120CDE900584AF01001B8474E
:1008EC0000B1092420460DF5727DBDE8F087BAF100
:1008FC00070FF6D12046296CFFF776FF03A800F00E
:10090C0093FB00BF406C7047F0B54FF0FF37CB6BDB
:10091C00F9B00B6401AC01F1040C0E460546BCE8C1
:10092C000F000FC4BCE80F000FC4BCE80F000FC4CD
:10093C009CE80F0084E80F00009706E06A46294601
:10094C002B6998470828044608D128461099FFF7C8
:10095C00C7FE0028F2D0092079B0F0BD6846FFF739
:10096C000FFF062CF7D131462846FFF73FFF00BF9B
:10097C0010B414468461DC6BC16000221C641946FF
:10098C0010BC53E770B54369C6680B64AEB90A4630
:10099C00036904460D46014602209847072805D0F6
:1009AC0008280FD129462046FFF720FF3046296C36
:1009BC00FFF71AFF281D00F037FB0122FFF736FF67
:1009CC0000F0CEFD00F0CCFDC2682AB1D1F83CC0DD
:1009DC000022C1F840C029E796E700BF704700BF6E
:1009EC00836801460BB1012018477047012912D0CA
:1009FC0009D873B90F2A0CD800EB8200426818464C
:100A0C00009B1A6070470339012994BF0120022012
:100A1C007047022070470846704700BF002300B59E
:100A2C0085B00A4603A900911946FFF7DFFF03982A
:100A3C0005B05DF804FB00BF012912D009D873B9C9
:100A4C000F2A0CD8009900EB8202096818465160F5
:100A5C0070470339012994BF0120022070470220FE
:100A6C0070470846704700BF002310B584B003AC34
:100A7C00039200940A461946FFF7DEFF04B010BD3E
:100A8C0070B54FF0FF36D36BADF50E7D13640DF1E1
:100A9C005C0E02F1040C05460C46BCE80F00AEE8F7
:100AAC000F00BCE80F00AEE80F00BCE80F00AEE88A
:100ABC000F009CE80F008EE80F00169612E00C2138
:100ACC0016A86A46FFF7D0FF214616A8A84778B9A2
:100ADC0069460820049B16AA98470528064608D0A4
:100AEC00092805D068462699FFF7FAFD0028E6D0BC
:100AFC00092616A8FFF744FE30460DF50E7D70BD95
:100B0C002DE9F04F1E46CC6C89B054F8043B0D46D1
:100B1C00174600F003080694002E79D002228DF8B7
:100B2C001C201A0C8DF81D201B04D2B2059304EB6B
:100B3C0082042B6DB8F1020F08BFAC6B13F00103EC
:100B4C000CD0384605A900F071FB18B9082009B083
:100B5C00BDE8F08F092009B0BDE8F08FD4F800A0F3
:100B6C00BAF1000FEDD0019300F008030293022EAE
:100B7C004AD0B4F800A0B4F802900434AA6C0F2147
:100B8C00384629F0010B9344FFF748FF834539D8C9
:100B9C002AF001025A44824294BF002001204FEAFD
:100BAC00490303F002030AF0010A43EA0A03012B8A
:100BBC0049D0022B32D0002BCCD1B8F1000F02D08F
:100BCC00002840F0CE800434D4F800A0BAF1000F15
:100BDC00CDD1384605A900F029FB0028BAD1019BDC
:100BEC00002BB3D00F213846FFF718FF0E21024619
:100BFC003846FFF739FF38460F216A4AFFF734FFB2
:100C0C000720A8E70020CAE7D4F804900834B5E719
:100C1C001B0205930323ADF81C308AE7236823F0ED
:100C2C00004BB8F1000F45D128B1029A002A5CD0D4
:100C3C00BBF1000F74D0002B00DA04340BF1010B64
:100C4C0004EB8B04C0E7B8F1000F19D1B0B16368A5
:100C5C002268991C4FEAD2723FF47CAF05F158011F
:100C6C000133049100F09180201DFFF7B7FD04AB18
:100C7C0001462846AFF3008000285CD10834A3E776
:100C8C000D213846D5F82090FFF7C8FE8145F5D1E7
:100C9C00AB6A9C42F2D12046FFF7D4FC0F210246EE
:100CAC003846FFF7E1FE38462A460021FFF7DCFE06
:100CBC00072050E70D213846D5F82090FFF7AEFEFF
:100CCC00814501D02368B6E7AB6A9C42FAD1042374
:100CDC000022C5E90B23E318C5F828B06B63236821
:100CEC00002B5ADB01230193A8E705F15803CDF83B
:100CFC000C809146B04604F1040A1E460EE05046A4
:100D0C000496FFF76BFD0022014604AB284609F15F
:100D1C0001090AF1040AAFF30080E8B9D945EED114
:100D2C000D213846FFF77AFE0346049A0620C5E9E2
:100D3C0009242B620FE781460D213846FFF76EFE22
:100D4C00B9F1020F286225D12B46049A43F82C2FB7
:100D5C006B620620AC62FEE646462368DDF80C802A
:100D6C0069E72046FFF76EFC02460434AC63284664
:100D7C001446AFF3008000283FF4ECAE3846224610
:100D8C000F21FFF771FE0720E5E60D213846FFF72E
:100D9C0045FE2862049B6B62DBE70BF1010004EB60
:100DAC00800079E7000000000023A9E60123A7E6F4
:100DBC000223A5E62DE9F043064615461C46C3B0B2
:100DCC00042900F2B880DFE801F09C56B62D030030
:100DDC00002C40F0B080102A00F2AD800368D806D9
:100DEC0000F1F18020AF384600F090F9012438462C
:100DFC000023B16B04FA03F22A4203F1010305D07C
:100E0C000A4652F804CB1146C0F800C0042B00F17E
:100E1C000400EFD13846B16300F06EF9002043B006
:100E2C00BDE8F083032C40F0868094B204EB1243AF
:100E3C00102B4FEA12457ED803681F0700F1CB80B8
:100E4C0020AF384600F036F9B26B07EBC50154B150
:100E5C000B4601EBC401D01AE4001D5843F8045BA7
:100E6C008B42FAD122443846B26300F001F90020DB
:100E7C0043B0BDE8F083012C4FEA124895B256D02E
:100E8C00052C58D108EB0509B9F1200F53D8B8F14E
:100E9C000F0F73D9A946002D40F08480B36B65B356
:100EAC0020AF4FF0000907EBC807043F03EBC50563
:100EBC0053F8041BAB4247F8041FF9D1B9F1000FEA
:100ECC000FD06F464146102938BF102107EBC101E6
:100EDC00843903EBC90553F8040BAB4241F8040FFA
:100EEC00F9D1012C7FD0B8F10F0FB56342D9B9F10C
:100EFC00000F02D0684600F0B3F8002043B0BDE804
:100F0C00F083C4B923460124826B371DA8B204FABE
:100F1C0003F101421CBF52F8041B47F823100133A4
:100F2C00102BF4D115F40050E7D1B26304E008EBB8
:100F3C000503102B03D9022043B0BDE8F083B8F1B0
:100F4C000F0FF8D83368DA0706D5304623F00303C1
:100F5C0040F8483B00F078F820AF384600F074F8C1
:100F6C00B36B002D9DD11D4604353846B56300F09A
:100F7C0067F8C2E720A800F06BF8B8E7B9F1100FDA
:100F8C003FD9A9F110093368D90708D5304623F0A9
:100F9C00010343F0020340F8483B00F05DF8B9F15F
:100FAC00000F31D033685A071FD4B8F10F0F24D972
:100FBC006F46C8F11005384600F056F8002DB36B9B
:100FCC0080DD20AF6FE723F01003336006F5E87087
:100FDC0000F09CF806E723F00803036000F5A87006
:100FEC0000F068F82CE720AFBEE7304623F004038E
:100FFC0040F8D03B00F038F8D7E720A800F02CF8E8
:10100C00D6E74FF00009BEE7B8F10F0F3FF646AF39
:10101C0020AF384600F020F8B36B002D7FF441AFC1
:10102C00384600F015F868E700F1340191E8380013
:10103C009C46A6464CF8045D90E8FF0FE54600BDC3
:10104C0090EC210B704700BF80EC210B704700BF68
:10105C0090EC200B704700BF80EC200B704700BF5A
:10106C00D0EC200B704700BFC0EC200B704700BFCA
:10107C00F0EC0201F0EC0211F0EC0221F0EC023188
:10108C00F0EC0241F0EC0251F0EC0261F0EC027178
:10109C00F0EC0281F0EC0291F0EC02A1F0EC02B168
:1010AC00F0EC02C1F0EC02D1F0EC02E1F0EC02F158
:1010BC00704700BFE0EC0201E0EC0211E0EC022111
:1010CC00E0EC0231E0EC0241E0EC0251E0EC0261B8
:1010DC00E0EC0271E0EC0281E0EC0291E0EC02A1A8
:1010EC00E0EC02B1E0EC02C1E0EC02D1E0EC02E198
:1010FC00E0EC02F1704700BFB0FC0181B0FC019143
:10110C00B0FC01A1B0FC01B1704700BFA0FC018193
:10111C00A0FC0191A0FC01A1A0FC01B1704700BF93
:10112C00EC4600B52DE900502DE9FF1F4FF00003F0
:10113C002DE90C0001A9FFF7E7FBDDF840E012B048
:10114C00704700BFEC4600B52DE900502DE9FF1F9C
:10115C004FF000032DE90C0001A9FFF713FCDDF89B
:10116C0040E012B0704700BFEC4600B52DE90050CE
:10117C002DE9FF1F4FF000032DE90C0001A9FFF72B
:10118C0023FCDDF840E012B0704700BFEC4600B520
:10119C002DE900502DE9FF1F4FF000032DE90C0045
:1011AC0001ABFFF7E5FBDDF840E012B0704700BF84
:1011BC00EC4600B52DE900502DE9FF1F4FF0000360
:1011CC002DE90C0001AAFFF75BFCDDF840E012B042
:1011DC00704700BF027A03467AB9427AA2B14FF047
:1011EC00030C4168013A427208680A1D5A600202F7
:1011FC0083F808C0000E1A6070470068013A1A7232
:10120C0002021A60000E7047B0207047002300B530
:10121C0085B003A900910C221946FFF7E7FB039850
:10122C0005B05DF804FB00BFF0E700BF2DE9F0430B
:10123C004FF0000805460E4685B03046FFF7CAFF52
:10124C00B028044600F0BA80070620D500F0F00361
:10125C00802B4DD0902B36D0A02B60D0B02B73D0E0
:10126C00C02B00F08A8000F0F803D02B0BD100F0DB
:10127C000702013205230121284642F40022FFF720
:10128C0099FD0028D9D0092005B0BDE8F083830072
:10129C00DBB21F1D00230DF10C0919460D22284647
:1012AC00CDF80090FFF7A2FB039B60064CBFDF1B41
:1012BC00FF1800230D2228461946CDF800900397FD
:1012CC00FFF7BAFBB9E700F00D030D2BDBD00023C1
:1012DC0003AF194600F00F0200972846FFF786FB74
:1012EC0000230D22284619460097FFF7A5FBA4E71B
:1012FC003046FFF76FFF24022043B0F5004FC2D0F9
:10130C000023040119462846A2B2FFF753FD00281A
:10131C00B9D114F4004F18BF4FF001088DE7C34347
:10132C004FF47F6203F007031A410023010702F414
:10133C007F6248BF42F4804228461946FFF73AFDC7
:10134C0000283FF47AAF9EE7B1283CD0B22800F0D9
:10135C00B080B3284AD000F0FC03B42B93D0012307
:10136C0000F007021A442846194642F40022FFF7FF
:10137C0021FD00283FF461AF85E7C6284FD0C72870
:10138C0061D000F0F803C02B70D0C8287CD0C928DD
:10139C007FF479AF3046FFF71DFF0523024601218C
:1013AC002846140302F00F0204F470240A4422436A
:1013BC00FFF700FD00283FF440AF64E7B8F1000FE1
:1013CC001CD0002060E73046FFF704FF02460028DF
:1013DC003FF459AF10F0F0037FF455AF194628468F
:1013EC00FFF7E8FC00283FF428AF4CE73046FFF746
:1013FC00F1FE0123024619462846D2E703AC4346C8
:10140C000E22414628460094FFF7F0FA43460F227D
:10141C00284641460094FFF70FFB404634E7304620
:10142C00FFF7D8FE02460323140302F00F0204F464
:10143C0070240132284619462243FFF7BBFC0028D2
:10144C003FF4FBAE1FE73046FFF7C4FE0246002810
:10145C003FF419AF10F0F0037FF415AF04212846C8
:10146C00FFF7A8FC00283FF4E8AE0CE7032300F0DC
:10147C000F0201322846194642F42022FFF79AFC4B
:10148C0000283FF4DAAEFEE63046FFF7A3FE024634
:10149C00012102F0F00402F00F0210340A4405237B
:1014AC00284642EA0432FFF785FC00283FF4C5AE1B
:1014BC00E9E600230DF10C090D2219462846CDF85A
:1014CC000090FFF793FA3046FFF784FE02064FF0C8
:1014DC0002040CD5039B00F07F00A040184403903D
:1014EC003046FFF777FE030604F10704F2D4039BA2
:1014FC0000F07F02A24003F501731A44002303920B
:10150C0028460D221946CDF80090FFF795FA94E67F
:10151C000B464FF0030C00B5C26C1846536885B0EF
:10152C000832029201A91A0E1B028DF80CC001930D
:10153C008DF80D20FFF77AFE05B05DF804FB00BFB7
:10154C0008B5FFF771FE806C08BD00BF08B5FFF74A
:10155C006BFEC06CC379023300EB830008BD00BF87
:10156C00062008B500F0B0F9012001F0E2F800BF48
:10157C00002301461A46184600F064BA014B18685D
:10158C00704700BF0000002038B5084B084D5B1BAE
:10159C009C1007D0043B1D44013C55F80439984776
:1015AC00002CF9D1BDE8384004F03ABE286400089C
:1015BC002464000870B50D4E0D4D761BB61006D088
:1015CC00002455F8043B01349847A642F9D1094E42
:1015DC00094D04F01FFE761BB61006D0002455F8FA
:1015EC00043B01349847A642F9D170BD1C64000835
:1015FC001C640008246400081C640008844641EA4A
:10160C00000313F0030349D1403A23D30B68036062
:10161C004B6843608B688360CB68C3600B69036164
:10162C004B6943618B698361CB69C3610B6A03624C
:10163C004B6A43628B6A8362CB6AC3620B6B036334
:10164C004B6B43638B6B8363CB6BC3634030403119
:10165C00403ADBD230320BD30B6803604B684360EB
:10166C008B688360CB68C36010301031103AF3D2B2
:10167C000C3205D351F8043B40F8043B043AF9D240
:10168C00043208D0D2071CBF11F8013B00F8013B13
:10169C0001D30B8803806046704700BF082A13D320
:1016AC008B07B1D010F00303AED0C3F10403D21AF0
:1016BC00DB071CBF11F8013B00F8013BA4D331F848
:1016CC00023B20F8023B9FE7043AD9D3013A11F8C8
:1016DC00013B00F8013BF9D20B7803704B78437057
:1016EC008B78837060467047830730B548D0541EA2
:1016FC00002A3FD00346CAB201E0013C3AD303F8BA
:10170C00012B9D07F9D1032C2DD9CDB245EA052526
:10171C000F2C45EA054536D9A4F1100222F00F0C26
:10172C0003F1200EE6444FEA121C03F1100242E9C9
:10173C00045542E9025510327245F8D10CF1010200
:10174C0014F00C0F03EB021204F00F0C13D0ACF1DD
:10175C00040323F003030433134442F8045B934261
:10176C00FBD10CF003042CB1CAB21C4403F8012BBE
:10177C009C42FBD130BD64461346002CF4D1F9E7F2
:10178C0003461446BFE71A46A446E0E738B5D0F83E
:10179C00DC420CB1002038BD8021054600F084F9F4
:1017AC000246C5F8DC0230B1031F7C3243F8044F0B
:1017BC009342FBD1EEE74FF0FF3038BD1F29F8B54F
:1017CC00054609D8D0F8DC620C4617464EB156F8DF
:1017DC00240046F82470F8BD16234FF0FF302B6020
:1017EC00F8BD802100F060F90646C5F8DC0240B176
:1017FC000021031F00F17C0543F8041F9D42FBD11F
:10180C00E5E74FF0FF30F8BD1F2938B5054621D864
:10181C00D0F8DC220C466AB152F8213053B1012BBE
:10182C0016D0591C10D00025204642F82450984759
:10183C00284638BD284600F003F9224601462846C2
:10184C00BDE8384000F0E8B8162301202B6038BD05
:10185C00002038BD16234FF0FF302B6038BD00BF81
:10186C001F292DD8D0F8DC2238B50C46054682B19C
:10187C0052F8243002EB84024BB1591C1BD0012BC3
:10188C0017D00025204615609847284638BD012002
:10189C0038BD802100F008F90246C5F8DC0260B1C1
:1018AC000020131F02F17C0143F8040F9942FBD175
:1018BC00DEE7032038BD022038BD4FF0FF3038BDC5
:1018CC004FF0FF30704700BF38B5154B1F281D680F
:1018DC0020D8D5F8DC22044662B152F820304BB146
:1018EC00012B15D0591C0FD0002542F820509847D9
:1018FC00284638BD284600F0A3F822460146284663
:10190C00BDE8384000F088B8162301202B6038BDA4
:10191C00002038BD16234FF0FF302B6038BD00BFC0
:10192C0000000020134B1F2870B51E6809D80D4607
:10193C00D6F8DC12044649B151F8240041F8245081
:10194C0070BD16234FF0FF30336070BD80213046E0
:10195C0000F0AAF80146C6F8DC0240B10022031FD1
:10196C0000F17C0C43F8042F6345FBD1E4E74FF006
:10197C00FF3070BD0000002038B50C4B1D68D5F849
:10198C00DC420CB1002038BD8021284600F08CF8D8
:10199C00C5F8DC0238B1031F00F17C0243F8044F98
:1019AC009342FBD1EEE74FF0FF3038BD0000002032
:1019BC0038B5184B1F281D6829D8D5F8DC220446E9
:1019CC0082B152F8243002EB84024BB1591C1CD06A
:1019DC00012B18D00025204615609847284638BDA5
:1019EC00012038BD8021284600F05EF80246C5F87B
:1019FC00DC0260B10020131F02F17C0143F8040FDC
:101A0C008B42FBD1DDE7032038BD022038BD4FF0FF
:101A1C00FF3038BD0000002070B50026074D04468D
:101A2C00084611462E6000F074FE431C00D070BDB9
:101A3C002B68002BFBD0236070BD00BFA0080020DA
:101A4C0000F060BE70B5174C2568D5F84841DCB184
:101A5C0065681F2D23DC80B14FF0010C04EB850E63
:101A6C00CEF88820D4F888610CFA05F216430228C7
:101A7C00C4F88861CEF808310BD06B1C023563605A
:101A8C00002044F8251070BD05F5A674C5F8484132
:101A9C00DEE7D4F88C311343C4F88C31EDE74FF00A
:101AAC00FF3070BD386200082DE9F04F01F10B05D5
:101ABC00162D064683B025D8102900F2B88000F008
:101ACC0099FA102518224FF0020CB74F3A4453687C
:101ADC00A2F108018B4200F0B7805A68D96822F055
:101AEC0003021A449C683046E1608C60516803F133
:101AFC00080441F00101516000F07EFA204603B069
:101B0C00BDE8F08F35F0070500F19180A94200F295
:101B1C008E8000F06FFAB5F5FC7FC0F090816B0AF7
:101B2C0000F08C80042B00F26681AB0903F1390CB8
:101B3C0003F138044FEACC009B4F38444368083813
:101B4C00984206D10CE0002980F22B81DB68984288
:101B5C0006D05A6822F00302511B0F29F3DDA4466C
:101B6C003C69DFF848E274457AD0626822F00302DF
:101B7C00531B0F2B00F37281002BC7E904EE80F28C
:101B8C006381B2F5007F80F015810121D3085209E1
:101B9C000B4491407A6857F833000A4307EBC301B2
:101BAC000839A060E1607A6047F83340C4600121D5
:101BBC004FEAAC039940914259D8114206D12CF00E
:101BCC00030C490011420CF1040CFAD007EBCC09C0
:101BDC0048466446D0F80C80404508D118E1002BEB
:101BEC0080F21D81D8F80C80404500F01181D8F8A6
:101BFC00042022F00302531B0F2BF0DD08EB050130
:101C0C0045F00105C8F804503046D8E90264F46088
:101C1C00A66043F00104C7E904114C60C1E902EE6F
:101C2C0048F8023000F0E8F908F1080402E00C234F
:101C3C0000243360204603B0BDE8F08F4FF40070F1
:101C4C004FF0400C3F2477E7D3689A4208BF0CF161
:101C5C00020C7FF442AF3C69DFF850E1744584D14B
:101C6C0001217A684FEAAC0399409142A5D9BC682E
:101C7C00636823F00308454503D8A8EB05030F2B35
:101C8C007FDCDFF82C91D7F80824D9F8003001322A
:101C9C002B4404EB080A00F02B8103F580530F331F
:101CAC0023F47F6B2BF00F0B5946304600F0A6F94E
:101CBC00411C024600F0EB80824500F2E680D9F828
:101CCC00041059440B46C9F8041000F04681D7F8AB
:101CDC00081401311BBFA2EB0A0A5344C7F80824AD
:101CEC00C9F8043012F0070300F00C81C3F10801AD
:101CFC000A44C3F5805193440831A1EB0B01C1F3A5
:101D0C000B0A514630460192009300F077F9421CC1
:101D1C00DDE9003200F04781831A03EB0A0BD9F896
:101D2C0004004BF001030AEB0001BC42BA60C9F895
:101D3C000410536000F01D81B8F10F0F40F21B81AD
:101D4C004FF0050C6368A8F10C0020F0070003F0BD
:101D5C000103034363600F2804EB0003C3E901CCC8
:101D6C0000F2288114465368D9F82C208A42D9F8FD
:101D7C00302038BFC9F82C108A4238BFC9F830104F
:101D8C0087E0621943F0010345F0010565603046B8
:101D9C00BA600834536000F02FF9204603B0BDE858
:101DAC00F08FD9681A449DE63004002038040020D6
:101DBC006C080020B2F5206F4FEA52235FD3142B2E
:101DCC0000F2B28003F15C01C9005B3378187958DA
:101DDC000838884200F08F804B6823F0030393424D
:101DEC0002D989688842F7D1C8687A68C4E90210B8
:101DFC008460CC60DBE6142B59D9542B00F29C8008
:101E0C002B0B03F16F0C03F16E044FEACC0093E63D
:101E1C000134A30700F108007FF4DCAE53E0444624
:101E2C0042445368D8F80C1043F00103536054F843
:101E3C00083F3046D9608B6000F0DEF8FAE64FEAD6
:101E4C00D50C05F1080240E622445368304643F0B5
:101E5C000103536000F0D0F80834EBE6611945F04B
:101E6C000105656043F00105C7E904113046C1E97D
:101E7C0002EE4D60A35000F0BFF80834DAE6930987
:101E8C0003F13901C9003833A0E7BC425FD0BC680C
:101E9C00636823F0030B5D45ABEB050302D80F2BF6
:101EAC003FF76FAF304600F0A7F80024C2E603F10D
:101EBC005C0C03F15B044FEACC003DE659F80839A1
:101ECC004B4540F095801CF0030F0CF1FF3CF5D115
:101EDC007B6823EA01037B60490099423FF6C7AE59
:101EEC0011B9C4E6490004341942FBD0A4466DE68E
:101EFC0003F1100BD8E601229B109A407B681A4321
:101F0C007A6073E702EB0B014942C1F30B0A5146AD
:101F1C0030460193009200F071F8431CDDE9002378
:101F2C007FF4FAAE9A46FAE6542B27D8130B03F13A
:101F3C006F01C9006E3349E7B3F5AA7F27D8EB0BC5
:101F4C0003F1780C03F177044FEACC00F4E5D9F8EF
:101F5C0004305B44C9F80430B9E6CAF30B0000281E
:101F6C007FF4B5AEBC6808EB0B0343F00103636070
:101F7C00FAE61446F8E60123536093E7B3F5AA7F1B
:101F8C0022D8D30B03F17801C90077331EE740F256
:101F9C005452934222D8AB0C03F17D0C03F17C0418
:101FAC004FEACC00C8E5083B9B444FF0000AABEB72
:101FBC00020BB4E604F10801304600F081F8BC686D
:101FCC00D9F804106368CFE640F254518B420BD819
:101FDC00930C03F17D01C9007C33F7E64FF47E705E
:101FEC004FF07F0C7E24A7E54FF47E717E23EDE647
:101FFC007B6871E7704700BF704700BF002238B59F
:10200C00064D044608462A6000F09EFB431C00D097
:10201C0038BD2B68002BFBD0236038BDA0080020F6
:10202C00F8B50C46234F0646FFF7E4FFBB685D6826
:10203C00C4F57E6325F003050F332B4423F47F6333
:10204C0023F00F03A3F58054B4F5805F07DB002168
:10205C003046FFF7D3FFBB682B44984204D0304680
:10206C00FFF7CAFF0020F8BD30466142FFF7C6FFFC
:10207C0001300DD0104ABB682D1B45F001055D6089
:10208C00136830461B1B1360FFF7B6FF0120F8BD29
:10209C0000213046FFF7B2FFBA68831A0F2BDEDD42
:1020AC0043F001035360054B03491B68C01A0860D9
:1020BC00D5E700BF3004002070080020380800204D
:1020CC0000295ED0F8B50C460646FFF793FF54F88E
:1020DC00042C784FA4F1080522F001016818D7F8F8
:1020EC0008C04368844523F0030300F08780D207BF
:1020FC00436034D454F8082C07F10804AD1A114489
:10210C00AA68A24268D000EB030CDCF804E0D5F816
:10211C000CC01EF0010FC2F80CC0CCF8082000F067
:10212C00918041F001036B600160B1F5007F31D209
:10213C004A09CB08012191407A6801331143796037
:10214C0007EBC30257F83310083AC5E9021247F8F7
:10215C003350CD603046BDE8F840FFF74DBFC21894
:10216C005268D2070ED4194407F108048368A342BD
:10217C0070D0C268DA60936041F001036B60695003
:10218C00D3E7704741F00103B1F5007F44F8043CFC
:10219C000160CDD3B1F5206F4FEA512347D28B09A3
:1021AC0003F1390003F13802C300F818FB58083862
:1021BC00984258D05A6822F003028A4202D99B688E
:1021CC009842F7D1D868C5E9023085603046DD60A9
:1021DC00BDE8F840FFF710BFC2185268D20763D4AD
:1021EC000B44D0E90212CA60916043F001026A60AC
:1021FC003046EB50BDE8F840FFF7FEBE0B44D1076C
:10220C0007D454F8082CAD1A1344D5E90212CA604D
:10221C00916043F001026A60274ABD6012689A42DD
:10222C0098D8264B30461968FFF7FAFE92E7142B24
:10223C000AD9542B1FD80B0B03F16F0003F16E025C
:10224C00C300B2E7194491E703F15C0003F15B02B0
:10225C00C300AAE741F00103C7E90455C5E90244EC
:10226C006B60695076E70121921001FA02F27968ED
:10227C000A437A60A7E7B3F5AA7F06D8CB0B03F124
:10228C00780003F17702C3008FE740F25452934277
:10229C0006D88B0C03F17D0003F17C02C30084E7AC
:1022AC004FF47E737E2280E741F001036B60016086
:1022BC0050E700BF300400203C0800206C080020D0
:1022CC0080B500AF174B184A1A60164B0F225A6094
:1022DC00144B00229A60134B0022DA60114B4FF41E
:1022EC0060221A610F4B4FF4E0025A610D4B002231
:1022FC001A760C4B01225A760A4B00229A76094B1D
:10230C000022DA76074B00221A77064B00225A7706
:10231C00044800F0C3FB0346002B01D000F074F915
:10232C0000BF80BDA40800200064004080B588B0C8
:10233C0000AF786007F1100300221A605A609A60AF
:10234C00DA607B681B68244A934241D1234BDB69DA
:10235C00224A43F00073D361204BDB6903F0007316
:10236C00FB60FB681D4B9B691C4A43F004039361A3
:10237C001A4B9B6903F00403BB60BB684FF400630A
:10238C003B6100237B610023BB6107F110031946FD
:10239C00134801F0ADFA4FF480533B6102237B618B
:1023AC000323FB6107F1100319460D4801F0A0FA55
:1023BC0000220021142001F064FA142001F07DFAAF
:1023CC0000220021152001F05CFA152001F075FAAD
:1023DC0000BF2037BD4680BD0064004000100240A5
:1023EC000008014080B588B000AF07F1100300224F
:1023FC001A605A609A60DA601E4B9B691D4A43F062
:10240C00200393611B4B9B6903F02003FB60FB686B
:10241C00184B9B69174A43F004039361154B9B6956
:10242C0003F00403BB60BB68124B9B69114A43F079
:10243C00080393610F4B9B6903F008037B607B6877
:10244C0000224FF480710C4801F0D6FB4FF48073DE
:10245C003B6101237B610023BB610223FB6107F11C
:10246C0010031946044801F043FA00BF2037BD465B
:10247C0080BD00BF00100240000C014080B500AFD1
:10248C00124B134A1A60114B124A5A600F4B00221E
:10249C009A600E4B0022DA600C4B4FF480421A61AA
:1024AC000A4B00225A61094B00229A61074B002209
:1024BC00DA61064B00221A62044801F0CFFB034696
:1024CC00002B01D000F0A0F800BF80BDCC0800208C
:1024DC0000540040A086010080B588B000AF786041
:1024EC0007F1100300221A605A609A60DA607B6868
:1024FC001B68154A934223D1144B9B69134A43F032
:10250C0008039361114B9B6903F00803FB60FB68A4
:10251C00C0233B6112237B610323FB6107F1100392
:10252C0019460B4801F0E4F9084BDB69074A43F400
:10253C000013D361054BDB6903F40013BB60BB686C
:10254C0000BF2037BD4680BD005400400010024043
:10255C00000C014080B500AF00F03EFA00F00FF81F
:10256C00FFF740FFFFF78AFFFFF7AAFE00F098F98C
:10257C0000F026F903F016FE03F022FEFCE780B50E
:10258C0090B000AF07F11803282200211846FFF77E
:10259C00ABF83B1D00221A605A609A60DA601A612F
:1025AC000123BB614FF48033FB6100233B620123A9
:1025BC00BB6202237B634FF48033BB634FF4E013A5
:1025CC00FB6307F11803184602F07CFB0346002B53
:1025DC0001D000F019F80F237B600223BB600023AD
:1025EC00FB604FF480633B6100237B613B1D022148
:1025FC00184602F0E9FD0346002B01D000F004F868
:10260C0000BF4037BD4680BD80B400AF72B600BF7E
:10261C00FEE7000080B485B000AF154B9B69144AEF
:10262C0043F001039361124B9B6903F00103BB6000
:10263C00BB680F4BDB690E4A43F08053D3610C4BE4
:10264C00DB6903F080537B607B680A4B5B68FB6043
:10265C00FB6823F0E063FB60FB6843F00073FB60F6
:10266C00044AFB68536000BF1437BD4680BC7047FA
:10267C00001002400000014080B400AFFEE780B4BF
:10268C0000AFFEE780B400AFFEE780B400AFFEE71A
:10269C0080B400AFFEE780B400AF00BFBD4680BC85
:1026AC00704780B400AF00BFBD4680BC704780B49B
:1026BC0000AF00BFBD4680BC704780B500AF00F0D6
:1026CC00D1F900BF80BD000080B500AF024800F01A
:1026DC00DDFD00BF80BD00BFA408002080B500AFA9
:1026EC00024800F0D3FD00BF80BD00BFA40800204D
:1026FC0080B500AF024802F044FF00BF80BD00BFB0
:10270C002409002080B400AF01231846BD4680BCCC
:10271C00704780B582B000AF78603960FEF72EFF4D
:10272C00034616221A604FF0FF3318460837BD4691
:10273C0080BD80B582B000AF78604FF0FF31786813
:10274C00FFF7E7FFFEE7000080B586B000AF7860CA
:10275C00144A154BD31A7B617B693B61134B1B6885
:10276C00002B02D1114B124A1A60104B1A687B686D
:10277C0013443A699A4207D2FEF700FF03460C2233
:10278C001A604FF0FF3309E0084B1B68FB60074BE6
:10279C001A687B681344054A1360FB68184618379F
:1027AC00BD4680BD00500020000400002009002020
:1027BC00100A002080B400AF00BFBD4680BC70473B
:1027CC0080B586B000AF07F1080300221A605A608A
:1027DC009A60DA603B4600221A605A601D4B4FF03B
:1027EC0080421A601B4B47225A601A4B00229A6097
:1027FC00184B40F2E732DA60164B00221A61154B87
:10280C0000229A61134802F06DFE0346002B01D0A2
:10281C00FFF7FAFE4FF48053BB6007F1080319462B
:10282C000C4802F0B6FF0346002B01D0FFF7ECFE7C
:10283C0000233B6000237B603B461946054803F0B0
:10284C008BF90346002B01D0FFF7DEFE00BF1837D3
:10285C00BD4680BD2409002080B584B000AF7860EF
:10286C007B681B68B3F1804F13D10C4BDB690B4AAF
:10287C0043F00103D361094BDB6903F00103FB60F7
:10288C00FB68002200211C2000F0FBFF1C2001F043
:10289C0014F800BF1037BD4680BD00BF00100240C9
:1028AC0080B500AF114B124A1A60104B4FF4E13255
:1028BC005A600E4B00229A600C4B0022DA600B4BD4
:1028CC0000221A61094B0C225A61084B00229A61B2
:1028DC00064B0022DA61054803F0AEF90346002BE3
:1028EC0001D0FFF791FE00BF80BD00BF6C09002036
:1028FC000038014080B588B000AF786007F1100354
:10290C0000221A605A609A60DA607B681B681C4A65
:10291C00934231D11B4B9B691A4A43F48043936118
:10292C00184B9B6903F48043FB60FB68154B9B6958
:10293C00144A43F004039361124B9B6903F00403A4
:10294C00BB60BB684FF400733B6102237B610323C4
:10295C00FB6107F1100319460B4800F0C9FF4FF457
:10296C0080633B6100237B610023BB6107F1100393
:10297C001946054800F0BCFF00BF2037BD4680BD9E
:10298C00003801400010024000080140FFF712FF20
:10299C000B480C490C4A002302E0D458C4500433B1
:1029AC00C4188C42F9D3094A094C002301E0136086
:1029BC000432A242FBD3FEF7FDFDFFF7CBFD7047BF
:1029CC000000002050080020286400085008002057
:1029DC00100A0020FEE7000080B500AF084B1B6812
:1029EC00074A43F010031360032000F03FFF0F2051
:1029FC0000F008F8FFF70EFE0023184680BD00BF5C
:102A0C000020024080B582B000AF7860124B1A688B
:102A1C00124B1B7819464FF47A73B3FBF1F3B2FBEC
:102A2C00F3F3184600F057FF0346002B01D00123A7
:102A3C000EE07B680F2B0AD8002279684FF0FF302C
:102A4C0000F01FFF064A7B681360002300E001239F
:102A5C0018460837BD4680BD4008002048080020B5
:102A6C004408002080B400AF054B1B781A46054B78
:102A7C001B681344034A136000BFBD4680BC7047FB
:102A8C0048080020B409002080B400AF024B1B683A
:102A9C001846BD4680BC7047B409002080B584B090
:102AAC0000AF78607B68002B01D10123EDE07B68DF
:102ABC0093F82030DBB2002B02D17868FFF736FC9C
:102ACC007B681B681A687B681B6842F001021A60FD
:102ADC00FFF7DAFFF86012E0FFF7D6FF0246FB685B
:102AEC00D31A0A2B0BD97B685B6A43F400327B68E0
:102AFC005A627B68052283F820200123C5E07B689D
:102B0C001B685B6803F00103002BE5D07B681B6836
:102B1C001A687B681B6822F002021A60FFF7B4FF88
:102B2C00F86012E0FFF7B0FF0246FB68D31A0A2BDD
:102B3C000BD97B685B6A43F400327B685A627B6812
:102B4C00052283F8202001239FE07B681B685B68CB
:102B5C0003F00203002BE5D17B681B7E012B08D10F
:102B6C007B681B681A687B681B6842F080021A60DD
:102B7C0007E07B681B681A687B681B6822F0800280
:102B8C001A607B685B7E012B08D17B681B681A6816
:102B9C007B681B6842F040021A6007E07B681B6888
:102BAC001A687B681B6822F040021A607B689B7E67
:102BBC00012B08D17B681B681A687B681B6842F084
:102BCC0020021A6007E07B681B681A687B681B6828
:102BDC0022F020021A607B68DB7E012B08D17B6817
:102BEC001B681A687B681B6822F010021A6007E0E9
:102BFC007B681B681A687B681B6842F010021A60BD
:102C0C007B681B7F012B08D17B681B681A687B686B
:102C1C001B6842F008021A6007E07B681B681A68A0
:102C2C007B681B6822F008021A607B685B7F012BB3
:102C3C0008D17B681B681A687B681B6842F0040229
:102C4C001A6007E07B681B681A687B681B6822F0B7
:102C5C0004021A607B689A687B68DB681A437B689D
:102C6C001B691A437B685B6942EA03017B685B68FA
:102C7C005A1E7B681B680A43DA617B6800225A6221
:102C8C007B68012283F82020002318461037BD46AC
:102C9C0080BD80B487B000AF786039607B681B68FA
:102CAC007B617B6893F82030FB74FB7C012B03D099
:102CBC00FB7C022B40F0AA807B69D3F8003243F0F6
:102CCC0001027B69C3F800223B685B6903F01F03B8
:102CDC00012202FA03F3FB607B69D3F81C22FB6828
:102CEC00DB431A407B69C3F81C223B68DB69002B71
:102CFC0023D17B69D3F80C22FB68DB431A407B6938
:102D0C00C3F80C223B68DB6819043B685B689BB218
:102D1C003A68526919437B69483243F832103B6870
:102D2C009B6819043B681B689AB23B685B690A4351
:102D3C0079694833DB000B445A603B68DB69012B33
:102D4C0022D17B69D3F80C22FB681A437B69C3F848
:102D5C000C223B681B6819043B685B689BB23A68A1
:102D6C00526919437B69483243F832103B689B68BF
:102D7C0019043B68DB689AB23B685B690A43796962
:102D8C004833DB000B445A603B689B69002B09D12C
:102D9C007B69D3F80422FB68DB431A407B69C3F8D8
:102DAC00042207E07B69D3F80422FB681A437B6991
:102DBC00C3F804223B681B69002B09D17B69D3F84B
:102DCC001422FB68DB431A407B69C3F8142207E02A
:102DDC007B69D3F81422FB681A437B69C3F814226D
:102DEC003B681B6A012B07D17B69D3F81C22FB685B
:102DFC001A437B69C3F81C227B69D3F8003223F099
:102E0C0001027B69C3F80022002306E07B685B6A41
:102E1C0043F480227B685A62012318461C37BD4656
:102E2C0080BC704780B584B000AF78607B6893F845
:102E3C002030DBB2012B2ED17B68022283F82020BC
:102E4C007B681B681A687B681B6822F001021A6099
:102E5C00FFF71AFEF86012E0FFF716FE0246FB6859
:102E6C00D31A0A2B0BD97B685B6A43F400327B685C
:102E7C005A627B68052283F82020012312E07B68CC
:102E8C001B685B6803F00103002BE5D17B68002213
:102E9C005A62002306E07B685B6A43F400227B687D
:102EAC005A62012318461037BD4680BD80B489B0E4
:102EBC0000AFF860B9607A603B60FB6893F8203033
:102ECC00FB77FB681B689B68BB61FB7F012B03D006
:102EDC00FB7F022B40F0AD80BB6903F08063002BBD
:102EEC000AD1BB6903F00063002B05D1BB6903F069
:102EFC008053002B00F09580BB691B0E03F003037D
:102F0C007B6101227B699A403B681A60BB689B68B5
:102F1C00002B0DD1BB681B685A05BB68DB68F968D0
:102F2C0009681A437B6918331B010B441A600FE0C4
:102F3C00BB685B68DA00BB689B681A43BB68DB68DC
:102F4C00F96809681A437B6918331B010B441A6032
:102F5C00FB681968BB681A697B6918331B010B4441
:102F6C0004331A60BB681B7D012B11D1FB681A68F6
:102F7C007B6918331B01134404331B68FA6811680E
:102F8C0043F480727B6918331B010B4404331A60C1
:102F9C007B6807331B781A067B6806331B781B0487
:102FAC001A437B6805331B781B0213437A6804327F
:102FBC0012781046FA68116843EA00027B691B011B
:102FCC000B4403F5C6731A607B6803331B781A062F
:102FDC007B6802331B781B041A437B6801331B7814
:102FEC001B0213437A6812781046FA68116843EA98
:102FFC0000027B691B010B4403F5C4731A60FB6868
:10300C001A687B6918331B0113441B68FA68116832
:10301C0043F001027B6918331B010B441A60002337
:10302C000EE0FB685B6A43F40012FB685A620123F2
:10303C0006E0FB685B6A43F48022FB685A6201235A
:10304C0018462437BD4680BC704780B487B000AFAB
:10305C00F860B9607A603B60FB6893F82030FB75D0
:10306C00FB7D012B03D0FB7D022B40F00381BB6861
:10307C00002B0ED1FB681B68DB6803F00303002BED
:10308C0016D1FB685B6A43F40012FB685A62012399
:10309C00F7E0FB681B681B6903F00303002B07D1E7
:1030AC00FB685B6A43F40012FB685A620123E8E098
:1030BC00FB681A68BB681B331B0113441B6803F0C5
:1030CC0004027B689A607B689B68002B0CD1FB68C0
:1030DC001A68BB681B331B0113441B685B0DC3F3DD
:1030EC000A027B681A600BE0FB681A68BB681B332A
:1030FC001B0113441B68DB0823F060427B685A6099
:10310C00FB681A68BB681B331B0113441B6803F074
:10311C0002027B68DA60FB681A68BB681B331B0110
:10312C00134404331B6803F00803002B03D07B68A3
:10313C0008221A610BE0FB681A68BB681B331B0181
:10314C00134404331B6803F00F027B681A61FB689D
:10315C001A68BB681B331B01134404331B681B0A1E
:10316C00DAB27B689A61FB681A68BB681B331B0177
:10317C00134404331B681B0C9AB27B685A61FB68BE
:10318C001A68BB681B01134403F5DC731B68DAB2C5
:10319C003B681A70FB681A68BB681B01134403F583
:1031AC00DC731B681A0A3B680133D2B21A70FB68D5
:1031BC001A68BB681B01134403F5DC731B681A0CFB
:1031CC003B680233D2B21A70FB681A68BB681B01E9
:1031DC00134403F5DC731B681A0E3B680333D2B23D
:1031EC001A70FB681A68BB681B01134403F5DE7385
:1031FC001A683B680433D2B21A70FB681A68BB6851
:10320C001B01134403F5DE731B681A0A3B68053374
:10321C00D2B21A70FB681A68BB681B01134403F521
:10322C00DE731B681A0C3B680633D2B21A70FB684B
:10323C001A68BB681B01134403F5DE731B681A0E76
:10324C003B680733D2B21A70BB68002B08D1FB68FD
:10325C001B68DA68FB681B6842F02002DA6007E042
:10326C00FB681B681A69FB681B6842F020021A6134
:10327C00002306E0FB685B6A43F48022FB685A6219
:10328C00012318461C37BD4680BC704780B58AB0F8
:10329C0000AF786000237B627B681B685B693B62D4
:1032AC007B681B685B68FB617B681B689B68BB6108
:1032BC007B681B68DB687B617B681B681B693B61F7
:1032CC007B681B689B69FB603B6A03F00103002B66
:1032DC007CD0BB6903F00103002B23D07B681B68F7
:1032EC0001229A60BB6903F00203002B03D07868BB
:1032FC0000F083F916E0BB6903F00403002B04D043
:10330C007B6A43F400637B620CE0BB6903F0080347
:10331C00002B04D07B6A43F480537B6202E0786814
:10332C0000F086F9BB6903F48073002B24D07B6812
:10333C001B684FF480729A60BB6903F40073002B16
:10334C0003D0786800F062F916E0BB6903F480637F
:10335C00002B04D07B6A43F400537B620CE0BB6906
:10336C0003F40063002B04D07B6A43F480437B623C
:10337C0002E0786800F065F9BB6903F48033002B38
:10338C0024D07B681B684FF480329A60BB6903F4CD
:10339C000033002B03D0786800F041F916E0BB69CC
:1033AC0003F48023002B04D07B6A43F400437B623C
:1033BC000CE0BB6903F40023002B04D07B6A43F4BC
:1033CC0080337B6202E0786800F044F93B6A03F0DA
:1033DC000803002B0CD07B6903F01003002B07D0E3
:1033EC007B6A43F400737B627B681B681022DA6093
:1033FC003B6A03F00403002B0BD07B6903F008033A
:10340C00002B06D07B681B680822DA60786800F015
:10341C002AF93B6A03F00203002B09D07B681B6876
:10342C00DB6803F00303002B02D0786802F046FD42
:10343C003B6A03F04003002B0CD03B6903F01003F4
:10344C00002B07D07B6A43F480637B627B681B682C
:10345C0010221A613B6A03F02003002B0BD03B694E
:10346C0003F00803002B06D07B681B6808221A6146
:10347C00786800F00AF93B6A03F01003002B09D0BE
:10348C007B681B681B6903F00303002B02D0786870
:10349C0000F0F2F83B6A03F40033002B0BD0FB690D
:1034AC0003F01003002B06D07B681B6810225A60B7
:1034BC00786800F0F3F83B6A03F48033002B0BD0F0
:1034CC00FB6903F00803002B06D07B681B680822FD
:1034DC005A60786800F0EBF83B6A03F40043002B69
:1034EC007BD0FB6903F00403002B72D03B6A03F41E
:1034FC008073002B08D0FB6803F00103002B03D072
:10350C007B6A43F001037B623B6A03F40073002B7C
:10351C0008D0FB6803F00203002B03D07B6A43F056
:10352C0002037B623B6A03F48063002B08D0FB68C8
:10353C0003F00403002B03D07B6A43F004037B628B
:10354C003B6A03F40063002B43D0FB6803F0700369
:10355C00002B3ED0FB6803F07003602B2BD0602B4C
:10356C002ED8502B22D0502B2AD8402B19D0402BA0
:10357C0026D8302B10D0302B22D8102B02D0202B59
:10358C0005D01DE07B6A43F008037B6219E07B6A7F
:10359C0043F010037B6214E07B6A43F020037B62F0
:1035AC000FE07B6A43F040037B620AE07B6A43F0E6
:1035BC0080037B6205E07B6A43F480737B6200E0EE
:1035CC0000BF7B681B689A697B681B6822F07002DD
:1035DC009A617B681B6804225A607B6A002B08D0B6
:1035EC007B685A6A7B6A1A437B685A62786800F077
:1035FC0067F800BF2837BD4680BD80B483B000AFEC
:10360C00786000BF0C37BD4680BC704780B483B077
:10361C0000AF786000BF0C37BD4680BC704780B4EB
:10362C0083B000AF786000BF0C37BD4680BC7047DC
:10363C0080B483B000AF786000BF0C37BD4680BC4F
:10364C00704780B483B000AF786000BF0C37BD46C4
:10365C0080BC704780B483B000AF786000BF0C377B
:10366C00BD4680BC704780B483B000AF786000BFAB
:10367C000C37BD4680BC704780B483B000AF786017
:10368C0000BF0C37BD4680BC704780B483B000AF20
:10369C00786000BF0C37BD4680BC704780B483B0E7
:1036AC0000AF786000BF0C37BD4680BC704780B45B
:1036BC0083B000AF786000BF0C37BD4680BC70474C
:1036CC0080B483B000AF786000BF0C37BD4680BCBF
:1036DC007047000080B485B000AF78607B6803F061
:1036EC000703FB600C4BDB68BB60BA684FF6FF034B
:1036FC001340BB60FB681A02BB68134343F0BF6303
:10370C0043F40033BB60044ABB68D36000BF14377A
:10371C00BD4680BC704700BF00ED00E080B400AF38
:10372C00044BDB681B0A03F007031846BD4680BC3C
:10373C00704700BF00ED00E080B483B000AF0346DB
:10374C00FB7197F90730002B0BDBFB7903F01F02A1
:10375C00064997F907305B09012000FA02F241F89B
:10376C00232000BF0C37BD4680BC704700E100E051
:10377C0080B483B000AF03463960FB7197F9073012
:10378C00002B0ADB3B68DAB20C4997F907301201BF
:10379C00D2B20B4483F800230AE03B68DAB2084942
:1037AC00FB7903F00F03043B1201D2B20B441A76DF
:1037BC0000BF0C37BD4680BC704700BF00E100E085
:1037CC0000ED00E080B489B000AFF860B9607A60B9
:1037DC00FB6803F00703FB61FB69C3F10703042BD0
:1037EC0028BF0423BB61FB690433062B02D9FB6998
:1037FC00033B00E000237B614FF0FF32BB6902FA10
:10380C0003F3DA43BB681A407B699A404FF0FF31EF
:10381C007B6901FA03F3D9437B680B4013431846C9
:10382C002437BD4680BC704780B582B000AF78604D
:10383C007B68013BB3F1807F01D301230FE00A4A7F
:10384C007B68013B53600F214FF0FF30FFF790FF77
:10385C00054B00229A60044B07221A60002318467D
:10386C000837BD4680BD00BF10E000E080B582B0D7
:10387C0000AF78607868FFF72DFF00BF0837BD46B2
:10388C0080BD80B586B000AF0346B9607A60FB732B
:10389C0000237B61FFF742FF78617A68B968786929
:1038AC00FFF790FF024697F90F3011461846FFF7C5
:1038BC005FFF00BF1837BD4680BD80B582B000AF3A
:1038CC000346FB7197F907301846FFF735FF00BF29
:1038DC000837BD4680BD80B582B000AF786078688F
:1038EC00FFF7A2FF034618460837BD4680BD00000F
:1038FC0080B48BB000AF7860396000237B6200230A
:10390C003B6269E101227B6A02FA03F3FB613B68CB
:10391C001B68FA691340BB61BA69FB699A4240F0B3
:10392C0058813B685B689A4A93425ED0984A9342AE
:10393C0075D8984A934258D0964A93426FD8964A73
:10394C00934252D0944A934269D8944A93424CD0B1
:10395C00924A934263D8924A934246D0904A9342F9
:10396C005DD8122B2AD8122B59D801A252F823F069
:10397C00F7390008D1390008E3390008253A000866
:10398C002B3A00082B3A00082B3A00082B3A000877
:10399C002B3A00082B3A00082B3A00082B3A000867
:1039AC002B3A00082B3A00082B3A00082B3A000857
:1039BC002B3A0008D9390008ED390008794A9342AE
:1039CC0013D02CE03B68DB683B6229E03B68DB688A
:1039DC0004333B6224E03B68DB6808333B621FE046
:1039EC003B68DB680C333B621AE03B689B68002B3E
:1039FC0002D104233B6213E03B689B68012B05D189
:103A0C0008233B627B68FA691A6109E008233B6270
:103A1C007B68FA695A6103E000233B6200E000BF57
:103A2C00BB69FF2B01D87B6801E07B6804337B61A9
:103A3C00BB69FF2B02D87B6A9B0002E07B6A083BC8
:103A4C009B003B617B691A680F213B6901FA03F308
:103A5C00DB431A40396A3B6901FA03F31A437B6969
:103A6C001A603B685B6803F08053002B00F0B18058
:103A7C004D4B9B694C4A43F0010393614A4B9B6944
:103A8C0003F00103BB60BB68484A7B6A9B080233A6
:103A9C0052F82330FB607B6A03F003039B000F2278
:103AAC0002FA03F3DB43FA681340FB607B68404A7D
:103ABC00934213D07B683F4A93420DD07B683E4AB9
:103ACC00934207D07B683D4A934201D1032306E021
:103ADC00042304E0022302E0012300E000237A6ABD
:103AEC0002F0030292009340FA681343FB602F49E3
:103AFC007B6A9B080233FA6841F823203B685B68B9
:103B0C0003F48013002B06D02D4B9A682C49BB690B
:103B1C0013438B6006E02A4B9A68BB69DB43284948
:103B2C0013408B603B685B6803F40013002B06D0DA
:103B3C00234BDA682249BB691343CB6006E0204B68
:103B4C00DA68BB69DB431E491340CB603B685B689A
:103B5C0003F40033002B06D0194B5A681849BB6983
:103B6C0013434B6006E0164B5A68BB69DB431449A0
:103B7C0013404B603B685B6803F48033002B21D00F
:103B8C000F4B1A680E49BB6913430B6021E000BF51
:103B9C000000321000003110000022100000211033
:103BAC000000121000001110001002400000014033
:103BBC0000080140000C01400010014000140140BD
:103BCC00000401400B4B1A68BB69DB4309491340E5
:103BDC000B607B6A01337B623B681A687B6A22FA52
:103BEC0003F3002B7FF48EAE00BF00BF2C37BD4615
:103BFC0080BC70470004014080B483B000AF786093
:103C0C000B467B8013467B707B78002B03D07A8825
:103C1C007B681A6103E07B881A047B681A6100BF19
:103C2C000C37BD4680BC704780B485B000AF78605F
:103C3C000B467B807B68DB68FB607A88FB681340F3
:103C4C001A04FB68D9437B880B401A437B681A61C2
:103C5C0000BF1437BD4680BC7047000080B584B0EF
:103C6C0000AF78607B68002B01D101232BE17B68CE
:103C7C0093F83D30DBB2002B06D17B68002283F831
:103C8C003C207868FEF728FC7B68242283F83D20D2
:103C9C007B681B681A687B681B6822F001021A603B
:103CAC007B681B681A687B681B6842F400421A60C8
:103CBC007B681B681A687B681B6822F400421A60D8
:103CCC0001F0CAFBF8607B685B68814A934207D8B5
:103CDC00FB68804A934294BF01230023DBB206E0C9
:103CEC00FB687D4A934294BF01230023DBB2002B77
:103CFC0001D00123E7E0FB68784AA2FB03239B0C6D
:103D0C00BB607B681B685B6823F03F017B681B68AA
:103D1C00BA680A435A607B681B681B6A23F03F0130
:103D2C007B685B686A4A934202D8BB68013309E03E
:103D3C00BB684FF4967202FB03F3694AA2FB0323A0
:103D4C009B0901337A6812680B4313627B681B680A
:103D5C00DB6923F44F4222F0FF027B685B685C490D
:103D6C008B4219D8FB68591E7B685B685B00B1FB02
:103D7C00F3F3591C40F6FC730B40002B0AD0FB6884
:103D8C00591E7B685B685B00B1FBF3F30133C3F333
:103D9C000B0351E004234FE07B689B68002B11D18F
:103DAC00FB68581E7B6859680B465B000B44B0FBE4
:103DBC00F3F30133C3F30B03002B0CBF01230023DC
:103DCC00DBB212E0FB68581E7B6859680B469B00FF
:103DDC000B4499000B44B0FBF3F30133C3F30B0317
:103DEC00002B0CBF01230023DBB2002B01D00123DD
:103DFC0022E07B689B68002B0ED1FB68581E7B6809
:103E0C0059680B465B000B44B0FBF3F30133C3F36F
:103E1C000B0343F400430FE0FB68581E7B685968A2
:103E2C000B469B000B4499000B44B0FBF3F301339E
:103E3C00C3F30B0343F44043796809681343CB6124
:103E4C007B681B681B6823F0C0017B68DA697B68A0
:103E5C001B6A1A437B681B680A431A607B681B68E1
:103E6C009B6823F4034323F0FF037A6811697A6893
:103E7C00D26811437A6812680B4393607B681B68A5
:103E8C00DB6823F0FF017B685A697B689B691A43E6
:103E9C007B681B680A43DA607B681B681A687B685E
:103EAC001B6842F001021A607B6800221A647B686E
:103EBC00202283F83D207B6800221A637B68002255
:103ECC0083F83E20002318461037BD4680BD00BF46
:103EDC00A08601007F841E00FF083D0083DE1B438B
:103EEC00D34D621080B588B002AFF8607A601A4684
:103EFC000B467B8113463B81FEF7C6FD7861FB6860
:103F0C0093F83D30DBB2202B40F0E0807B690093CE
:103F1C00192301227049F86800F09EFC0346002B1F
:103F2C0001D00223D3E0FB6893F83C30012B01D184
:103F3C000223CCE0FB68012283F83C20FB681B6861
:103F4C001B6803F00103012B07D0FB681B681A6880
:103F5C00FB681B6842F001021A60FB681B681A6858
:103F6C00FB681B6822F400621A60FB68212283F84C
:103F7C003D20FB68102283F83E20FB6800221A6467
:103F8C00FB687A685A62FB683A895A85FB685B8DD4
:103F9C009AB2FB681A85FB68504ADA6279897B69A8
:103FAC003A6AF86800F008FB0346002B01D00123A5
:103FBC008DE000233B61FB681B685B693B61FB6820
:103FCC001B689B693B613B6966E07A69396AF868F2
:103FDC0000F05CFD0346002B0DD0FB681B6C042B22
:103FEC0007D1FB681B681A68FB681B6842F40072F7
:103FFC001A6001236BE0FB685B6A1A78FB681B682C
:10400C001A61FB685B6A5A1CFB685A62FB685B8D21
:10401C009BB2013B9AB2FB685A85FB681B8D013B36
:10402C009AB2FB681A85FB681B685B6903F0040392
:10403C00042B1BD1FB681B8D002B17D0FB685B6A14
:10404C001A78FB681B681A61FB685B6A5A1CFB6870
:10405C005A62FB685B8D9BB2013B9AB2FB685A8536
:10406C00FB681B8D013B9AB2FB681A857A69396A29
:10407C00F86800F053FD0346002B0DD0FB681B6C59
:10408C00042B07D1FB681B681A68FB681B6842F499
:10409C0000721A6001231AE0FB681B8D002B94D16F
:1040AC00FB681B681A68FB681B6842F400721A6094
:1040BC00FB68202283F83D20FB68002283F83E2019
:1040CC00FB68002283F83C20002300E00223184602
:1040DC001837BD4680BD00BF020010000000FFFF76
:1040EC0080B58CB002AFF8607A601A460B467B81C3
:1040FC0013463B8100233B62FEF7C6FC7862FB68EB
:10410C0093F83D30DBB2202B40F04B827B6A00935E
:10411C00192301227F49F86800F09EFB0346002B0F
:10412C0001D002233EE2FB6893F83C30012B01D115
:10413C00022337E2FB68012283F83C20FB681B68F2
:10414C001B6803F00103012B07D0FB681B681A687E
:10415C00FB681B6842F001021A60FB681B681A6856
:10416C00FB681B6822F400621A60FB68222283F849
:10417C003D20FB68102283F83E20FB6800221A6465
:10418C00FB687A685A62FB683A895A85FB685B8DD2
:10419C009AB2FB681A85FB685F4ADA6279897B6A96
:1041AC003A6BF86800F08AFA0346002B01D0012321
:1041BC00F8E1FB681B8D002B13D10023FB61FB681E
:1041CC001B685B69FB61FB681B689B69FB61FB6996
:1041DC00FB681B681A68FB681B6842F400721A6063
:1041EC00CCE1FB681B8D012B1ED1FB681B681A6888
:1041FC00FB681B6822F480621A6072B600BF002351
:10420C00BB61FB681B685B69BB61FB681B689B69D6
:10421C00BB61BB69FB681B681A68FB681B6842F4CE
:10422C0000721A6062B635E0FB681B8D022B1ED142
:10423C00FB681B681A68FB681B6842F400621A6012
:10424C0072B600BF00237B61FB681B685B697B61F6
:10425C00FB681B689B697B617B69FB681B681A6840
:10426C00FB681B6822F480621A6062B612E0FB687D
:10427C001B681A68FB681B6842F480621A60002392
:10428C003B61FB681B685B693B61FB681B689B6956
:10429C003B613B6972E1FB681B8D032B00F21F81B4
:1042AC00FB681B8D012B23D17A6A396BF86800F0FF
:1042BC007DFC0346002B01D0012373E1FB681B68D6
:1042CC001A69FB685B6AD2B21A70FB685B6A5A1C8B
:1042DC00FB685A62FB681B8D013B9AB2FB681A851E
:1042EC00FB685B8D9BB2013B9AB2FB685A8545E13A
:1042FC00FB681B8D022B52D17B6A00933B6B002217
:10430C000649F86800F0A8FA0346002B08D00123F0
:10431C0048E100BF020010000000FFFF0400010094
:10432C0072B600BFFB681B681A68FB681B6842F416
:10433C0000721A60FB681B681A69FB685B6AD2B270
:10434C001A70FB685B6A5A1CFB685A62FB681B8D0F
:10435C00013B9AB2FB681A85FB685B8D9BB2013BF3
:10436C009AB2FB685A8562B600BFFB681B681A6973
:10437C00FB685B6AD2B21A70FB685B6A5A1CFB68FA
:10438C005A62FB681B8D013B9AB2FB681A85FB686D
:10439C005B8D9BB2013B9AB2FB685A85EEE07B6A5F
:1043AC0000933B6B00228149F86800F055FA0346F4
:1043BC00002B01D00123F5E0FB681B681A68FB6831
:1043CC001B6822F480621A6072B600BFFB681B681F
:1043DC001A69FB685B6AD2B21A70FB685B6A5A1C7A
:1043EC00FB685A62FB681B8D013B9AB2FB681A850D
:1043FC00FB685B8D9BB2013B9AB2FB685A856C4B98
:10440C001B68DB086B4AA2FB03231A0A13469B00AA
:10441C001344DA00D31A3B623B6A013B3B623B6AB2
:10442C00002B18D1FB6800221A63FB68202283F84A
:10443C003D20FB68002283F83E20FB681B6C43F098
:10444C002002FB681A6462B600BFFB68002283F886
:10445C003C200123A6E0FB681B685B6903F00403A6
:10446C00042BD9D1FB681B681A68FB681B6842F4E3
:10447C0000721A60FB681B681A69FB685B6AD2B22F
:10448C001A70FB685B6A5A1CFB685A62FB681B8DCE
:10449C00013B9AB2FB681A85FB685B8D9BB2013BB2
:1044AC009AB2FB685A8562B600BFFB681B681A6932
:1044BC00FB685B6AD2B21A70FB685B6A5A1CFB68B9
:1044CC005A62FB681B8D013B9AB2FB681A85FB682C
:1044DC005B8D9BB2013B9AB2FB685A854EE07A6ABF
:1044EC00396BF86800F062FB0346002B01D0012306
:1044FC0058E0FB681B681A69FB685B6AD2B21A70D9
:10450C00FB685B6A5A1CFB685A62FB681B8D013B9B
:10451C009AB2FB681A85FB685B8D9BB2013B9AB221
:10452C00FB685A85FB681B685B6903F00403042B6A
:10453C0024D1FB681B8D032B07D1FB681B681A6801
:10454C00FB681B6822F480621A60FB681B681A699E
:10455C00FB685B6AD2B21A70FB685B6A5A1CFB6818
:10456C005A62FB681B8D013B9AB2FB681A85FB688B
:10457C005B8D9BB2013B9AB2FB685A85FB681B8D25
:10458C00002B7FF488AEFB68202283F83D20FB686B
:10459C00002283F83E20FB68002283F83C20002395
:1045AC0000E0022318462837BD4680BD04000100F8
:1045BC004008002089B5F81480B588B002AFF860C7
:1045CC007A603B600B467B81FB68DB6A7B617B69B5
:1045DC00082B06D07B69012B03D07B6913F5803F38
:1045EC0008D1FB681B681A68FB681B6842F4807270
:1045FC001A600BE0FB681B6B122B07D1FB681B6866
:10460C001A68FB681B6842F480721A603B6800935E
:10461C007B6800224FF00111F86800F01DF9034689
:10462C00002B0DD0FB681B681B6803F48073B3F57B
:10463C00807F03D1FB684FF400721A64032335E0CA
:10464C00FB681B69B3F5804F08D17B89DBB21A4636
:10465C00FB681B6802F0FE021A611BE07B89DB1110
:10466C00DBB203F00603DBB263F00F03DAB2FB68D4
:10467C001B681A613B687A680E49F86800F066F9A5
:10468C000346002B01D0012310E07B89DAB2FB68D2
:10469C001B681A613B687A680749F86800F056F99C
:1046AC000346002B01D0012300E0002318461837E5
:1046BC00BD4680BD080001000200010080B588B035
:1046CC0002AFF8607A603B600B467B81FB68DB6A6B
:1046DC007B61FB681B681A68FB681B6842F480628C
:1046EC001A607B69082B06D07B69012B03D07B6990
:1046FC0013F5803F08D1FB681B681A68FB681B68C0
:10470C0042F480721A600BE0FB681B6B112B07D113
:10471C00FB681B681A68FB681B6842F480721A609D
:10472C003B6800937B6800224FF00111F86800F0A1
:10473C0093F80346002B0DD0FB681B681B6803F431
:10474C008073B3F5807F03D1FB684FF400721A6459
:10475C00032379E0FB681B69B3F5804F08D17B8993
:10476C00DBB243F00103DAB2FB681B681A615FE04D
:10477C007B89DB11DBB203F00603DBB263F00F03C2
:10478C00DAB2FB681B681A613B687A683049F868D2
:10479C0000F0DCF80346002B01D0012354E07B89A8
:1047AC00DAB2FB681B681A613B687A682949F868B9
:1047BC0000F0CCF80346002B01D0012344E0002389
:1047CC003B61FB681B685B693B61FB681B689B6911
:1047DC003B613B69FB681B681A68FB681B6842F409
:1047EC0080721A603B6800937B6800224FF00111C5
:1047FC00F86800F031F80346002B0DD0FB681B68FD
:10480C001B6803F48073B3F5807F03D1FB684FF40E
:10481C0000721A64032317E07B89DB11DBB203F00F
:10482C000603DBB263F00E03DAB2FB681B681A6195
:10483C003B687A680749F86800F088F80346002B53
:10484C0001D0012300E0002318461837BD4680BD77
:10485C00080001000200010080B584B000AFF860D0
:10486C00B9603B601346FB7148E03B68B3F1FF3F16
:10487C0044D0FEF709F90246BB69D31A3A689A424A
:10488C0002D33B68002B39D1BB681B0CDBB2012B6C
:10489C000DD1FB681B685B69DA43BB6813409BB2A4
:1048AC00002B0CBF01230023DBB21A460CE0FB6883
:1048BC001B689B69DA43BB6813409BB2002B0CBF8F
:1048CC0001230023DBB21A46FB799A4216D1FB680E
:1048DC0000221A63FB68202283F83D20FB6800222B
:1048EC0083F83E20FB681B6C43F02002FB681A64C3
:1048FC00FB68002283F83C20012323E0BB681B0CDF
:10490C00DBB2012B0DD1FB681B685B69DA43BB681A
:10491C0013409BB2002B0CBF01230023DBB21A46C1
:10492C000CE0FB681B689B69DA43BB6813409BB2C5
:10493C00002B0CBF01230023DBB21A46FB799A42F1
:10494C0093D0002318461037BD4680BD80B584B087
:10495C0000AFF860B9607A603B6071E0FB681B687F
:10496C005B6903F48063B3F5806F23D1FB681B682C
:10497C001A68FB681B6842F400721A60FB681B68BB
:10498C006FF480625A61FB6800221A63FB68202274
:10499C0083F83D20FB68002283F83E20FB681B6CEB
:1049AC0043F00402FB681A64FB68002283F83C2085
:1049BC00012367E07B68B3F1FF3F41D0FEF764F859
:1049CC0002463B68D31A7A689A4202D37B68002B62
:1049DC0036D1BB681B0CDBB2012B0CD1FB681B68FE
:1049EC005B69DA43BB6813409BB2002B14BF0123F5
:1049FC000023DBB20BE0FB681B689B69DA43BB68E6
:104A0C0013409BB2002B14BF01230023DBB2002BFD
:104A1C0016D0FB6800221A63FB68202283F83D2025
:104A2C00FB68002283F83E20FB681B6C43F02002DD
:104A3C00FB681A64FB68002283F83C20012321E008
:104A4C00BB681B0CDBB2012B0CD1FB681B685B69D0
:104A5C00DA43BB6813409BB2002B14BF0123002325
:104A6C00DBB20BE0FB681B689B69DA43BB68134045
:104A7C009BB2002B14BF01230023DBB2002B7FF46D
:104A8C006DAF002318461037BD4680BD80B584B08D
:104A9C0000AFF860B9607A6034E0F86800F0E3F8D1
:104AAC000346002B01D0012334E0BB68B3F1FF3F78
:104ABC0028D0FDF7E9FF02467B68D31ABA689A4200
:104ACC0002D3BB68002B1DD1FB681B685B6903F02C
:104ADC008003802B16D0FB6800221A63FB6820220F
:104AEC0083F83D20FB68002283F83E20FB681B6C9A
:104AFC0043F02002FB681A64FB68002283F83C2018
:104B0C00012307E0FB681B685B6903F08003802BC3
:104B1C00C3D1002318461037BD4680BD80B584B084
:104B2C0000AFF860B9607A6034E0F86800F09BF888
:104B3C000346002B01D0012334E0BB68B3F1FF3FE7
:104B4C0028D0FDF7A1FF02467B68D31ABA689A42B7
:104B5C0002D3BB68002B1DD1FB681B685B6903F09B
:104B6C000403042B16D0FB6800221A63FB68202276
:104B7C0083F83D20FB68002283F83E20FB681B6C09
:104B8C0043F02002FB681A64FB68002283F83C2087
:104B9C00012307E0FB681B685B6903F00403042B2B
:104BAC00C3D1002318461037BD4680BD80B584B0F4
:104BBC0000AFF860B9607A6049E0FB681B685B691C
:104BCC0003F01003102B19D1FB681B686FF0100257
:104BDC005A61FB6800221A63FB68202283F83D208F
:104BEC00FB68002283F83E20FB681A6CFB681A6491
:104BFC00FB68002283F83C20012330E0FDF744FFE2
:104C0C0002467B68D31ABA689A4202D3BB68002B5F
:104C1C001DD1FB681B685B6903F04003402B16D069
:104C2C00FB6800221A63FB68202283F83D20FB6896
:104C3C00002283F83E20FB681B6C43F02002FB68CB
:104C4C001A64FB68002283F83C20012307E0FB6810
:104C5C001B685B6903F04003402BAED10023184660
:104C6C001037BD4680BD80B483B000AF78607B68E0
:104C7C001B685B6903F48063B3F5806F1BD17B68A1
:104C8C001B686FF480625A617B6800221A637B6830
:104C9C00202283F83D207B68002283F83E207B682D
:104CAC001B6C43F004027B681A647B68002283F857
:104CBC003C20012300E0002318460C37BD4680BC85
:104CCC007047000080B586B000AF78607B68002B21
:104CDC0001D1012372E27B681B6803F00103002BF6
:104CEC0000F08780924B5B6803F00C03042B0CD014
:104CFC008F4B5B6803F00C03082B12D18C4B5B6859
:104D0C0003F48033B3F5803F0BD1894B1B6803F45C
:104D1C000033002B6CD07B685B68002B68D10123BF
:104D2C004CE27B685B68B3F5803F06D1804B1B6817
:104D3C007F4A43F4803313602EE07B685B68002B62
:104D4C000CD17B4B1B687A4A23F480331360784B6D
:104D5C001B68774A23F4802313601DE07B685B6833
:104D6C00B3F5A02F0CD1724B1B68714A43F480230E
:104D7C0013606F4B1B686E4A43F4803313600BE077
:104D8C006B4B1B686A4A23F480331360684B1B68B7
:104D9C00674A23F4802313607B685B68002B13D075
:104DAC00FDF772FE386108E0FDF76EFE02463B69C6
:104DBC00D31A642B01D9032300E25D4B1B6803F467
:104DCC000033002BF0D014E0FDF75EFE386108E0F4
:104DDC00FDF75AFE02463B69D31A642B01D9032313
:104DEC00ECE1534B1B6803F40033002BF0D100E0D3
:104DFC0000BF7B681B6803F00203002B63D04C4B95
:104E0C005B6803F00C03002B0BD0494B5B6803F081
:104E1C000C03082B1CD1464B5B6803F48033002B2E
:104E2C0016D1434B1B6803F00203002B05D07B68A3
:104E3C001B69012B01D00123C0E13D4B1B6823F002
:104E4C00F8027B685B69DB00394913430B603AE07D
:104E5C007B681B69002B20D0364B01221A60FDF7B2
:104E6C0013FE386108E0FDF70FFE02463B69D31ACA
:104E7C00022B01D90323A1E12D4B1B6803F0020384
:104E8C00002BF0D02A4B1B6823F0F8027B685B697F
:104E9C00DB00274913430B6015E0264B00221A60F8
:104EAC00FDF7F2FD386108E0FDF7EEFD02463B69C7
:104EBC00D31A022B01D9032380E11D4B1B6803F08D
:104ECC000203002BF0D17B681B6803F00803002B56
:104EDC003AD07B689B69002B19D0174B01221A60C2
:104EEC00FDF7D2FD386108E0FDF7CEFD02463B69C7
:104EFC00D31A022B01D9032360E10D4B5B6A03F03B
:104F0C000203002BF0D0012000F0CEFA1CE00A4B7B
:104F1C0000221A60FDF7B8FD38610FE0FDF7B4FD13
:104F2C0002463B69D31A022B08D9032346E100BF82
:104F3C00001002400000424280044242924B5B6AE5
:104F4C0003F00203002BE9D17B681B6803F0040318
:104F5C00002B00F0A6800023FB758B4BDB6903F064
:104F6C008053002B0DD1884BDB69874A43F080536B
:104F7C00D361854BDB6903F08053BB60BB680123B5
:104F8C00FB75824B1B6803F48073002B18D17F4B8D
:104F9C001B687E4A43F480731360FDF775FD38611E
:104FAC0008E0FDF771FD02463B69D31A642B01D969
:104FBC00032303E1754B1B6803F48073002BF0D0C3
:104FCC007B68DB68012B06D16F4B1B6A6E4A43F082
:104FDC00010313622DE07B68DB68002B0CD16A4B5C
:104FEC001B6A694A23F001031362674B1B6A664A0A
:104FFC0023F0040313621CE07B68DB68052B0CD1E7
:10500C00614B1B6A604A43F0040313625E4B1B6ADC
:10501C005D4A43F0010313620BE05B4B1B6A5A4A77
:10502C0023F001031362584B1B6A574A23F0040305
:10503C0013627B68DB68002B15D0FDF725FD38610A
:10504C000AE0FDF721FD02463B69D31A41F2883292
:10505C00934201D90323B1E04B4B1B6A03F00203CB
:10506C00002BEED014E0FDF70FFD38610AE0FDF7E0
:10507C000BFD02463B69D31A41F28832934201D9A7
:10508C0003239BE0404B1B6A03F00203002BEED181
:10509C00FB7D012B05D13C4BDB693B4A23F0805354
:1050AC00D3617B68DB69002B00F08780364B5B6833
:1050BC0003F00C03082B61D07B68DB69022B46D113
:1050CC00334B00221A60FDF7DFFC386108E0FDF776
:1050DC00DBFC02463B69D31A022B01D903236DE09A
:1050EC00294B1B6803F00073002BF0D17B681B6A03
:1050FC00B3F5803F08D1244B5B6823F400327B6806
:10510C009B68214913434B601F4B5B6823F474125B
:10511C007B68196A7B685B6A0B431B4913434B60C2
:10512C001B4B01221A60FDF7AFFC386108E0FDF75C
:10513C00ABFC02463B69D31A022B01D903233DE099
:10514C00114B1B6803F00073002BF0D035E0104BB3
:10515C0000221A60FDF798FC386108E0FDF794FC1A
:10516C0002463B69D31A022B01D9032326E0064BD6
:10517C001B6803F00073002BF0D11EE07B68DB6929
:10518C00012B07D1012319E00010024000700040F0
:10519C00600042420B4B5B68FB60FB6803F480329F
:1051AC007B681B6A9A4206D1FB6803F470127B6819
:1051BC005B6A9A4201D0012300E00023184618379D
:1051CC00BD4680BD0010024080B584B000AF786051
:1051DC0039607B68002B01D10123D0E06A4B1B683E
:1051EC0003F007033A689A4210D9674B1B6823F007
:1051FC00070265493B6813430B60634B1B6803F064
:10520C0007033A689A4201D00123B8E07B681B6817
:10521C0003F00203002B20D07B681B6803F004030F
:10522C00002B05D0594B5B68584A43F4E06353603C
:10523C007B681B6803F00803002B05D0534B5B689D
:10524C00524A43F460535360504B5B6823F0F002B6
:10525C007B689B684D4913434B607B681B6803F06C
:10526C000103002B40D07B685B68012B07D1474BB7
:10527C001B6803F40033002B15D101237FE07B68FE
:10528C005B68022B07D1414B1B6803F00073002BAA
:10529C0009D1012373E03D4B1B6803F00203002B83
:1052AC0001D101236BE0394B5B6823F003027B686F
:1052BC005B68364913434B60FDF7E6FBF8600AE088
:1052CC00FDF7E2FB0246FB68D31A41F288329342A7
:1052DC0001D9032353E02D4B5B6803F00C027B6870
:1052EC005B689B009A42EBD1274B1B6803F00703CA
:1052FC003A689A4210D2244B1B6823F007022249C9
:10530C003B6813430B60204B1B6803F007033A68A0
:10531C009A4201D0012332E07B681B6803F004033E
:10532C00002B08D0194B5B6823F4E0627B68DB68C8
:10533C00164913434B607B681B6803F00803002B72
:10534C0009D0124B5B6823F460527B681B69DB004D
:10535C000E4913434B6000F021F802460B4B5B687F
:10536C001B0903F00F030A49CB5C22FA03F3094A29
:10537C001360094B1B681846FDF744FB00231846C5
:10538C001037BD4680BD00BF002002400010024017
:10539C003C620008400800204408002080B487B01C
:1053AC0000AF0023FB600023BB6000237B61002364
:1053BC007B6000233B611E4B5B68FB60FB6803F06A
:1053CC000C03042B02D0082B03D027E0194B3B61B4
:1053DC0027E0FB689B0C03F00F03174AD35C7B6040
:1053EC00FB6803F48033002B10D0114B5B685B0C13
:1053FC0003F00103114AD35CBB607B680D4A03FBCD
:10540C0002F2BB68B2FBF3F37B6104E07B680C4AED
:10541C0002FB03F37B617B693B6102E0054B3B6163
:10542C0000BF3B6918461C37BD4680BC704700BFA7
:10543C000010024000127A005462000864620008F6
:10544C0000093D0080B400AF024B1B681846BD46F6
:10545C0080BC70474008002080B500AFFFF7F2FF1A
:10546C000246054B5B681B0A03F007030349CB5C40
:10547C0022FA03F3184680BD001002404C6200086B
:10548C0080B500AFFFF7DEFF0246054B5B68DB0A19
:10549C0003F007030349CB5C22FA03F3184680BDE3
:1054AC00001002404C62000880B485B000AF7860F8
:1054BC000A4B1B680A4AA2FB03235B0A7A6802FBAD
:1054CC0003F3FB6000BFFB685A1EFA60002BF9D196
:1054DC0000BF00BF1437BD4680BC70474008002099
:1054EC00D34D621080B582B000AF78607B68002B22
:1054FC0001D1012341E07B6893F83D30DBB2002BF6
:10550C0006D17B68002283F83C207868FDF7A4F96B
:10551C007B68022283F83D207B681A687B68043321
:10552C001946104600F020FA7B68012283F84620C9
:10553C007B68012283F83E207B68012283F83F20A0
:10554C007B68012283F840207B68012283F841208C
:10555C007B68012283F842207B68012283F8432078
:10556C007B68012283F844207B68012283F8452064
:10557C007B68012283F83D20002318460837BD467E
:10558C0080BD80B582B000AF78607B681B681B69FA
:10559C0003F00203022B22D17B681B68DB6803F04B
:1055AC000203022B1BD17B681B686FF002021A618D
:1055BC007B6801221A777B681B689B6903F00303E5
:1055CC00002B03D0786800F0B4F905E0786800F09F
:1055DC00A7F9786800F0B6F97B6800221A777B6827
:1055EC001B681B6903F00403042B22D17B681B6826
:1055FC00DB6803F00403042B1BD17B681B686FF082
:10560C0004021A617B6802221A777B681B689B690B
:10561C0003F44073002B03D0786800F08AF905E09E
:10562C00786800F07DF9786800F08CF97B680022CE
:10563C001A777B681B681B6903F00803082B22D1BF
:10564C007B681B68DB6803F00803082B1BD17B68A5
:10565C001B686FF008021A617B6804221A777B685A
:10566C001B68DB6903F00303002B03D0786800F0A0
:10567C0060F905E0786800F053F9786800F062F999
:10568C007B6800221A777B681B681B6903F0100388
:10569C00102B22D17B681B68DB6803F01003102BE6
:1056AC001BD17B681B686FF010021A617B680822A3
:1056BC001A777B681B68DB6903F44073002B03D0FB
:1056CC00786800F036F905E0786800F029F9786818
:1056DC0000F038F97B6800221A777B681B681B691D
:1056EC0003F00103012B0ED17B681B68DB6803F010
:1056FC000103012B07D17B681B686FF001021A6153
:10570C00786800F023FD7B681B681B6903F080033D
:10571C00802B0ED17B681B68DB6803F08003802B29
:10572C0007D17B681B686FF080021A61786800F003
:10573C007AFA7B681B681B6903F04003402B0ED17F
:10574C007B681B68DB6803F04003402B07D17B6848
:10575C001B686FF040021A61786800F0FCF87B68F7
:10576C001B681B6903F02003202B0ED17B681B6880
:10577C00DB6803F02003202B07D17B681B686FF0DC
:10578C0020021A61786800F045FA00BF0837BD4660
:10579C0080BD80B584B000AF786039600023FB73A6
:1057AC007B6893F83C30012B01D10223B4E07B6879
:1057BC00012283F83C207B68022283F83D207B6821
:1057CC001B689B68BB60BB6823F07703BB60BB683E
:1057DC0023F47F43BB607B681B68BA689A603B68A4
:1057EC001B68B3F5005F3ED0B3F5005F00F2878015
:1057FC00B3F5805F00F08680B3F5805F7FD8702BA7
:10580C001AD0702B7BD8602B50D0602B77D8502BB4
:10581C003CD0502B73D8402B58D0402B6FD8302B0A
:10582C0064D0302B6BD8202B60D0202B67D8002B6A
:10583C005CD0102B5AD062E07B6818683B68996882
:10584C003B685A683B68DB6800F067F97B681B684B
:10585C009B68BB60BB6843F07703BB607B681B68CD
:10586C00BA689A604FE07B6818683B6899683B6837
:10587C005A683B68DB6800F050F97B681B689A68D3
:10588C007B681B6842F480429A603CE07B68186835
:10589C003B6859683B68DB681A4600F0C7F87B68C0
:1058AC001B685021184600F01EF92CE07B68186824
:1058BC003B6859683B68DB681A4600F0E5F87B6882
:1058CC001B686021184600F00EF91CE07B68186814
:1058DC003B6859683B68DB681A4600F0A7F87B68A0
:1058EC001B684021184600F0FEF80CE07B681A6833
:1058FC003B681B681946104600F0F5F803E00123DD
:10590C00FB7300E000BF7B68012283F83D207B68BD
:10591C00002283F83C20FB7B18461037BD4680BD27
:10592C0080B483B000AF786000BF0C37BD4680BC3C
:10593C00704780B483B000AF786000BF0C37BD46B1
:10594C0080BC704780B483B000AF786000BF0C3768
:10595C00BD4680BC704780B483B000AF786000BF98
:10596C000C37BD4680BC704780B485B000AF786002
:10597C0039607B681B68FB607B68294A93420BD0BB
:10598C007B68B3F1804F07D07B68264A934203D0E3
:10599C007B68254A934208D1FB6823F07003FB60B7
:1059AC003B685B68FA681343FB607B681C4A934254
:1059BC000BD07B68B3F1804F07D07B68194A9342B8
:1059CC0003D07B68184A934208D1FB6823F44073D8
:1059DC00FB603B68DB68FA681343FB60FB6823F0F1
:1059EC0080023B685B691343FB607B68FA681A6052
:1059FC003B689A687B68DA623B681A687B689A62D3
:105A0C007B68074A934203D13B681A697B681A6327
:105A1C007B6801225A6100BF1437BD4680BC7047B9
:105A2C00002C0140000400400008004080B487B006
:105A3C0000AFF860B9607A60FB681B6A7B61FB6839
:105A4C001B6A23F00102FB681A62FB689B693B61CD
:105A5C003B6923F0F0033B617B681B013A691343FC
:105A6C003B617B6923F00A037B617A69BB68134352
:105A7C007B61FB683A699A61FB687A691A6200BFBC
:105A8C001C37BD4680BC704780B487B000AFF8604F
:105A9C00B9607A60FB681B6A7B61FB681B6A23F048
:105AAC001002FB681A62FB689B693B613B6923F43B
:105ABC0070433B617B681B033A6913433B617B6911
:105ACC0023F0A0037B61BB681B017A6913437B61E4
