:020000040800F2
:1000000000500020C5200008BD1F0008C31F0008C5
:10001000C91F0008CF1F0008D51F000800000000FE
:10002000000000000000000000000000DB1F0008CE
:10003000E71F000800000000F31F0008FF1F000872
:100040000D2100080D2100080D2100080D210008D8
:100050000D2100080D2100080D2100080D210008C8
:100060000D2100080D2100080D2100080D210008B8
:100070000D2100080D2100080D2100080D210008A8
:100080000D2100080D2100080D2100080D21000898
:100090000D2100080D2100080D2100080D21000888
:1000A0000D2100080D2100080D2100080D21000878
:1000B0000D2100080D2100080D2100080D21000868
:1000C0000D2100080D2100080D2100080D21000858
:1000D0000D2100080D2100080D2100080D21000848
:1000E0000D2100080D2100080D210008000000006E
:1000F0000000000000000000000000000000000000
:0C01000000000000000000005FF808F1A3
:10010C000348044B834202D0034B03B1184770479A
:10011C004C0800204C08002000000000054806494F
:10012C000B1AD90F01EBA301491002D0034B03B1F9
:10013C00184770474C0800204C08002000000000B5
:10014C0010B5064C237843B9FFF7DAFF044B13B113
:10015C000448AFF300800123237010BD4C0800202D
:10016C0000000000482F000808B5044B1BB10449DF
:10017C000448AFF30080BDE80840CFE70000000062
:10018C0050080020482F000803685A004CBF43F069
:10019C00004323F000431844704700BF2DE9F84397
:1001AC0039B34F1E044615463E464FF0000808EB87
:1001BC00060101EBD171491004EBC1094846FFF768
:1001CC00E3FF0346C80008308F4220440BD0AB42FB
:1001DC000BD8FFF7D9FF0138A84201F10108E6D38B
:1001EC004846BDE8F883AB42FAD9884501D04E1E8B
:1001FC00DDE74FF000094846BDE8F883012807D039
:10020C00022807D0044B00280CBF1846002070476A
:10021C000248704702487047F9080008FD080008BA
:10022C000109000830B5244B044683B08D1E3BB346
:10023C00284601A9AFF30080E8B101992A46FFF7DF
:10024C00ADFF0146B8B1FFF79FFF4B68A064012BCF
:10025C002ED0002B27DB081DFFF796FF0023C4E9E7
:10026C0013030368002B12DBFFF78EFF03460020FD
:10027C00236103B030BD00230920236103B030BDDE
:10028C000E4B0F491846C91AC9100191D6E7C3F392
:10029C000360FFF7B3FF0028034614BF00200920BA
:1002AC00236103B030BD0123081DC4E91303D8E753
:1002BC00002305202361DCE700000000A02F0008CC
:1002CC0068300008036810B5DA07044606D49B07AB
:1002DC0000F1480009D500F05DFC2368590709D5E9
:1002EC001A070ED5DB0613D510BD00F04BFC2368A6
:1002FC005907F5D404F1D00000F054FC23681A0718
:10030C00F0D404F5A87000F055FC2368DB06EBD4A0
:10031C0004F5E870BDE8104000F090BC092070476F
:10032C000346006800B11844704700BF704700BF17
:10033C0070B504460E462046316CFFF773FF054638
:10034C0098B9D6F840C03246214601202369C4F83A
:10035C0014C098470828EED0072806D12846316CDF
:10036C00FFF7E4FF301D00F001FC00F09BFE00BF26
:10037C002DE9F0474FF0000AADF5727D0DF10C0E32
:10038C0001F1040CC768D0F8188006461446BCE886
:10039C000F00AEE80F00BCE80F00AEE80F00BCE8A1
:1003AC000F00AEE80F009CE80F0002AD8EE80F00C6
:1003BC00C5F800A021E02B6C4FF4F0722946736154
:1003CC007AA800F0BDFE3146504633697AAA9847A8
:1003DC00889C82466C643346324649460120CDE9FE
:1003EC000058B8470446F0B94FF4F07228467AA981
:1003FC0000F0A6FEBAF1080F1BD13046296CFFF7AE
:10040C0011FF04F109095FFA89FA04460028D2D0D9
:10041C00A96B3346696432460120CDE900584AF095
:10042C001001B84700B1092420460DF5727DBDE8D6
:10043C00F087BAF1070FF6D12046296CFFF776FF4B
:10044C0003A800F093FB00BF406C7047F0B54FF071
:10045C00FF37CB6BF9B00B6401AC01F1040C0E4609
:10046C000546BCE80F000FC4BCE80F000FC4BCE885
:10047C000F000FC49CE80F0084E80F00009706E003
:10048C006A4629462B6998470828044608D128460D
:10049C001099FFF7C7FE0028F2D0092079B0F0BD03
:1004AC006846FFF70FFF062CF7D131462846FFF7B9
:1004BC003FFF00BF10B414468461DC6BC1600022A6
:1004CC001C64194610BC53E770B54369C6680B64CD
:1004DC00AEB90A46036904460D4601460220984708
:1004EC00072805D008280FD129462046FFF720FF02
:1004FC003046296CFFF71AFF281D00F037FB01224C
:10050C00FFF736FF00F0CEFD00F0CCFDC2682AB13B
:10051C00D1F83CC00022C1F840C029E796E700BFE3
:10052C00704700BF836801460BB101201847704724
:10053C00012912D009D873B90F2A0CD800EB82000C
:10054C0042681846009B1A6070470339012994BF12
:10055C00012002207047022070470846704700BFF8
:10056C00002300B585B00A4603A900911946FFF790
:10057C00DFFF039805B05DF804FB00BF012912D022
:10058C0009D873B90F2A0CD8009900EB82020968BC
:10059C001846516070470339012994BF012002208D
:1005AC007047022070470846704700BF002310B503
:1005BC0084B003AC039200940A461946FFF7DEFFA1
:1005CC0004B010BD70B54FF0FF36D36BADF50E7D9A
:1005DC0013640DF15C0E02F1040C05460C46BCE8EC
:1005EC000F00AEE80F00BCE80F00AEE80F00BCE84F
:1005FC000F00AEE80F009CE80F008EE80F00169677
:10060C0012E00C2116A86A46FFF7D0FF214616A867
:10061C00A84778B969460820049B16AA984705286C
:10062C00064608D0092805D068462699FFF7FAFD3A
:10063C000028E6D0092616A8FFF744FE30460DF533
:10064C000E7D70BD2DE9F04F1E46CC6C89B054F870
:10065C00043B0D46174600F003080694002E79D093
:10066C0002228DF81C201A0C8DF81D201B04D2B20E
:10067C00059304EB82042B6DB8F1020F08BFAC6B31
:10068C0013F001030CD0384605A900F071FB18B922
:10069C00082009B0BDE8F08F092009B0BDE8F08F43
:1006AC00D4F800A0BAF1000FEDD0019300F00803CC
:1006BC000293022E4AD0B4F800A0B4F8029004348D
:1006CC00AA6C0F21384629F0010B9344FFF748FF21
:1006DC00834539D82AF001025A44824294BF002043
:1006EC0001204FEA490303F002030AF0010A43EA2E
:1006FC000A03012B49D0022B32D0002BCCD1B8F1FC
:10070C00000F02D0002840F0CE800434D4F800A0B2
:10071C00BAF1000FCDD1384605A900F029FB00280D
:10072C00BAD1019B002BB3D00F213846FFF718FF2D
:10073C000E2102463846FFF739FF38460F216A4A28
:10074C00FFF734FF0720A8E70020CAE7D4F804908D
:10075C000834B5E71B0205930323ADF81C308AE778
:10076C00236823F0004BB8F1000F45D128B1029A51
:10077C00002A5CD0BBF1000F74D0002B00DA0434DB
:10078C000BF1010B04EB8B04C0E7B8F1000F19D18E
:10079C00B0B163682268991C4FEAD2723FF47CAF07
:1007AC0005F158010133049100F09180201DFFF7F1
:1007BC00B7FD04AB01462846AFF3008000285CD19E
:1007CC000834A3E70D213846D5F82090FFF7C8FE72
:1007DC008145F5D1AB6A9C42F2D12046FFF7D4FC9F
:1007EC000F2102463846FFF7E1FE38462A46002123
:1007FC00FFF7DCFE072050E70D213846D5F8209096
:10080C00FFF7AEFE814501D02368B6E7AB6A9C4288
:10081C00FAD104230022C5E90B23E318C5F828B04C
:10082C006B632368002B5ADB01230193A8E705F1C6
:10083C005803CDF80C809146B04604F1040A1E46CC
:10084C000EE050460496FFF76BFD0022014604AB08
:10085C00284609F101090AF1040AAFF30080E8B94E
:10086C00D945EED10D213846FFF77AFE0346049A9E
:10087C000620C5E909242B620FE781460D21384675
:10088C00FFF76EFEB9F1020F286225D12B46049AB0
:10089C0043F82C2F6B620620AC62FEE646462368BA
:1008AC00DDF80C8069E72046FFF76EFC0246043445
:1008BC00AC6328461446AFF3008000283FF4ECAE3E
:1008CC00384622460F21FFF771FE0720E5E60D2181
:1008DC003846FFF745FE2862049B6B62DBE70BF1A1
:1008EC00010004EB800079E7000000000023A9E67A
:1008FC000123A7E60223A5E62DE9F043064615469B
:10090C001C46C3B0042900F2B880DFE801F09C5605
:10091C00B62D0300002C40F0B080102A00F2AD8000
:10092C000368D80600F1F18020AF384600F090F94A
:10093C00012438460023B16B04FA03F22A4203F176
:10094C00010305D00A4652F804CB1146C0F800C08A
:10095C00042B00F10400EFD13846B16300F06EF9BE
:10096C00002043B0BDE8F083032C40F0868094B2A5
:10097C0004EB1243102B4FEA12457ED803681F0775
:10098C0000F1CB8020AF384600F036F9B26B07EBA4
:10099C00C50154B10B4601EBC401D01AE4001D583B
:1009AC0043F8045B8B42FAD122443846B26300F020
:1009BC0001F9002043B0BDE8F083012C4FEA124846
:1009CC0095B256D0052C58D108EB0509B9F1200F7A
:1009DC0053D8B8F10F0F73D9A946002D40F084807D
:1009EC00B36B65B320AF4FF0000907EBC807043FAA
:1009FC0003EBC50553F8041BAB4247F8041FF9D1B0
:100A0C00B9F1000F0FD06F464146102938BF1021A5
:100A1C0007EBC101843903EBC90553F8040BAB4256
:100A2C0041F8040FF9D1012C7FD0B8F10F0FB56349
:100A3C0042D9B9F1000F02D0684600F0B3F800209B
:100A4C0043B0BDE8F083C4B923460124826B371D43
:100A5C00A8B204FA03F101421CBF52F8041B47F878
:100A6C0023100133102BF4D115F40050E7D1B263ED
:100A7C0004E008EB0503102B03D9022043B0BDE8BA
:100A8C00F083B8F10F0FF8D83368DA0706D5304683
:100A9C0023F0030340F8483B00F078F820AF3846C9
:100AAC0000F074F8B36B002D9DD11D46043538460B
:100ABC00B56300F067F8C2E720A800F06BF8B8E760
:100ACC00B9F1100F3FD9A9F110093368D90708D52E
:100ADC00304623F0010343F0020340F8483B00F09A
:100AEC005DF8B9F1000F31D033685A071FD4B8F153
:100AFC000F0F24D96F46C8F11005384600F056F890
:100B0C00002DB36B80DD20AF6FE723F01003336053
:100B1C0006F5E87000F09CF806E723F00803036084
:100B2C0000F5A87000F068F82CE720AFBEE730465F
:100B3C0023F0040340F8D03B00F038F8D7E720A8A6
:100B4C0000F02CF8D6E74FF00009BEE7B8F10F0F14
:100B5C003FF646AF20AF384600F020F8B36B002DBF
:100B6C007FF441AF384600F015F868E700F1340126
:100B7C0091E838009C46A6464CF8045D90E8FF0FBF
:100B8C00E54600BD90EC210B704700BF80EC210BBB
:100B9C00704700BF90EC200B704700BF80EC200B1F
:100BAC00704700BFD0EC200B704700BFC0EC200B8F
:100BBC00704700BFF0EC0201F0EC0211F0EC0221E6
:100BCC00F0EC0231F0EC0241F0EC0251F0EC02617D
:100BDC00F0EC0271F0EC0281F0EC0291F0EC02A16D
:100BEC00F0EC02B1F0EC02C1F0EC02D1F0EC02E15D
:100BFC00F0EC02F1704700BFE0EC0201E0EC0211F6
:100C0C00E0EC0221E0EC0231E0EC0241E0EC0251BC
:100C1C00E0EC0261E0EC0271E0EC0281E0EC0291AC
:100C2C00E0EC02A1E0EC02B1E0EC02C1E0EC02D19C
:100C3C00E0EC02E1E0EC02F1704700BFB0FC018196
:100C4C00B0FC0191B0FC01A1B0FC01B1704700BF38
:100C5C00A0FC0181A0FC0191A0FC01A1A0FC01B1B0
:100C6C00704700BFEC4600B52DE900502DE9FF1F81
:100C7C004FF000032DE90C0001A9FFF7E7FBDDF8AD
:100C8C0040E012B0704700BFEC4600B52DE90050B3
:100C9C002DE9FF1F4FF000032DE90C0001A9FFF710
:100CAC0013FCDDF840E012B0704700BFEC4600B515
:100CBC002DE900502DE9FF1F4FF000032DE90C002A
:100CCC0001A9FFF723FCDDF840E012B0704700BF2C
:100CDC00EC4600B52DE900502DE9FF1F4FF0000345
:100CEC002DE90C0001ABFFF7E5FBDDF840E012B09D
:100CFC00704700BFEC4600B52DE900502DE9FF1FF1
:100D0C004FF000032DE90C0001AAFFF75BFCDDF8A6
:100D1C0040E012B0704700BF027A03467AB9427ABB
:100D2C00A2B14FF0030C4168013A427208680A1DE7
:100D3C005A60020283F808C0000E1A6070470068FF
:100D4C00013A1A7202021A60000E7047B020704706
:100D5C00002300B585B003A900910C221946FFF7BA
:100D6C00E7FB039805B05DF804FB00BFF0E700BF9C
:100D7C002DE9F0434FF0000805460E4685B030468D
:100D8C00FFF7CAFFB028044600F0BA80070620D54A
:100D9C0000F0F003802B4DD0902B36D0A02B60D0E0
:100DAC00B02B73D0C02B00F08A8000F0F803D02B4E
:100DBC000BD100F00702013205230121284642F431
:100DCC000022FFF799FD0028D9D0092005B0BDE815
:100DDC00F0838300DBB21F1D00230DF10C091946B3
:100DEC000D222846CDF80090FFF7A2FB039B60066E
:100DFC004CBFDF1BFF1800230D2228461946CDF8E7
:100E0C0000900397FFF7BAFBB9E700F00D030D2B29
:100E1C00DBD0002303AF194600F00F0200972846E1
:100E2C00FFF786FB00230D22284619460097FFF793
:100E3C00A5FBA4E73046FFF76FFF24022043B0F573
:100E4C00004FC2D00023040119462846A2B2FFF776
:100E5C0053FD0028B9D114F4004F18BF4FF001080E
:100E6C008DE7C3434FF47F6203F007031A4100235D
:100E7C00010702F47F6248BF42F4804228461946BB
:100E8C00FFF73AFD00283FF47AAF9EE7B1283CD03B
:100E9C00B22800F0B080B3284AD000F0FC03B42B89
:100EAC0093D0012300F007021A442846194642F455
:100EBC000022FFF721FD00283FF461AF85E7C6282B
:100ECC004FD0C72861D000F0F803C02B70D0C828D1
:100EDC007CD0C9287FF479AF3046FFF71DFF05237E
:100EEC00024601212846140302F00F0204F4702478
:100EFC000A442243FFF700FD00283FF440AF64E7AB
:100F0C00B8F1000F1CD0002060E73046FFF704FF5B
:100F1C00024600283FF459AF10F0F0037FF455AFB0
:100F2C0019462846FFF7E8FC00283FF428AF4CE7A9
:100F3C003046FFF7F1FE0123024619462846D2E758
:100F4C0003AC43460E22414628460094FFF7F0FAC4
:100F5C0043460F22284641460094FFF70FFB4046BC
:100F6C0034E73046FFF7D8FE02460323140302F0A1
:100F7C000F0204F470240132284619462243FFF76D
:100F8C00BBFC00283FF4FBAE1FE73046FFF7C4FE66
:100F9C00024600283FF419AF10F0F0037FF415AFB0
:100FAC0004212846FFF7A8FC00283FF4E8AE0CE724
:100FBC00032300F00F0201322846194642F4202286
:100FCC00FFF79AFC00283FF4DAAEFEE63046FFF756
:100FDC00A3FE0246012102F0F00402F00F021034CD
:100FEC000A440523284642EA0432FFF785FC002810
:100FFC003FF4C5AEE9E600230DF10C090D221946AC
:10100C002846CDF80090FFF793FA3046FFF784FEA0
:10101C0002064FF002040CD5039B00F07F00A040A9
:10102C00184403903046FFF777FE030604F10704DB
:10103C00F2D4039B00F07F02A24003F501731A4423
:10104C000023039228460D221946CDF80090FFF795
:10105C0095FA94E60B464FF0030C00B5C26C18469B
:10106C00536885B00832029201A91A0E1B028DF842
:10107C000CC001938DF80D20FFF77AFE05B05DF8DA
:10108C0004FB00BF08B5FFF771FE806C08BD00BF04
:10109C0008B5FFF76BFEC06CC379023300EB83001D
:1010AC0008BD00BF062008B500F0B0F9012000F023
:1010BC00BDFF00BF002301461A46184600F064BA73
:1010CC00014B1868704700BF0000002038B5084B72
:1010DC00084D5B1B9C1007D0043B1D44013C55F88C
:1010EC0004399847002CF9D1BDE8384001F02CBFE9
:1010FC00743000087030000870B50D4E0D4D761B25
:10110C00B61006D0002455F8043B01349847A6428B
:10111C00F9D1094E094D01F011FF761BB61006D01E
:10112C00002455F8043B01349847A642F9D170BD10
:10113C00683000086830000870300008683000081B
:10114C00844641EA000313F0030349D1403A23D308
:10115C000B6803604B6843608B688360CB68C3602B
:10116C000B6903614B6943618B698361CB69C36113
:10117C000B6A03624B6A43628B6A8362CB6AC362FB
:10118C000B6B03634B6B43638B6B8363CB6BC363E3
:10119C0040304031403ADBD230320BD30B68036025
:1011AC004B6843608B688360CB68C3601030103130
:1011BC00103AF3D20C3205D351F8043B40F8043BFF
:1011CC00043AF9D2043208D0D2071CBF11F8013B03
:1011DC0000F8013B01D30B8803806046704700BFC9
:1011EC00082A13D38B07B1D010F00303AED0C3F190
:1011FC000403D21ADB071CBF11F8013B00F8013BBA
:10120C00A4D331F8023B20F8023B9FE7043AD9D330
:10121C00013A11F8013B00F8013BF9D20B7803704D
:10122C004B7843708B78837060467047830730B57A
:10123C0048D0541E002A3FD00346CAB201E0013CFC
:10124C003AD303F8012B9D07F9D1032C2DD9CDB23C
:10125C0045EA05250F2C45EA054536D9A4F11002BF
:10126C0022F00F0C03F1200EE6444FEA121C03F19E
:10127C00100242E9045542E9025510327245F8D188
:10128C000CF1010214F00C0F03EB021204F00F0C22
:10129C0013D0ACF1040323F003030433134442F8DA
:1012AC00045B9342FBD10CF003042CB1CAB21C4476
:1012BC0003F8012B9C42FBD130BD64461346002C35
:1012CC00F4D1F9E703461446BFE71A46A446E0E713
:1012DC0038B5D0F8DC420CB1002038BD8021054671
:1012EC0000F084F90246C5F8DC0230B1031F7C32F1
:1012FC0043F8044F9342FBD1EEE74FF0FF3038BD7B
:10130C001F29F8B5054609D8D0F8DC620C461746FB
:10131C004EB156F8240046F82470F8BD16234FF051
:10132C00FF302B60F8BD802100F060F90646C5F84F
:10133C00DC0240B10021031F00F17C0543F8041FBF
:10134C009D42FBD1E5E74FF0FF30F8BD1F2938B5C2
:10135C00054621D8D0F8DC220C466AB152F821306F
:10136C0053B1012B16D0591C10D00025204642F841
:10137C0024509847284638BD284600F003F92246E9
:10138C0001462846BDE8384000F0E8B81623012095
:10139C002B6038BD002038BD16234FF0FF302B607A
:1013AC0038BD00BF1F292DD8D0F8DC2238B50C462B
:1013BC00054682B152F8243002EB84024BB1591C21
:1013CC001BD0012B17D000252046156098472846C6
:1013DC0038BD012038BD802100F008F90246C5F85F
:1013EC00DC0260B10020131F02F17C0143F8040FF2
:1013FC009942FBD1DEE7032038BD022038BD4FF007
:10140C00FF3038BD4FF0FF30704700BF38B5154B7B
:10141C001F281D6820D8D5F8DC22044662B152F88A
:10142C0020304BB1012B15D0591C0FD0002542F8A0
:10143C0020509847284638BD284600F0A3F822468D
:10144C0001462846BDE8384000F088B81623012034
:10145C002B6038BD002038BD16234FF0FF302B60B9
:10146C0038BD00BF00000020134B1F2870B51E684C
:10147C0009D80D46D6F8DC12044649B151F82400BF
:10148C0041F8245070BD16234FF0FF30336070BD0F
:10149C008021304600F0AAF80146C6F8DC0240B1C3
:1014AC000022031F00F17C0C43F8042F6345FBD191
:1014BC00E4E74FF0FF3070BD0000002038B50C4B56
:1014CC001D68D5F8DC420CB1002038BD80212846BF
:1014DC0000F08CF8C5F8DC0238B1031F00F17C0277
:1014EC0043F8044F9342FBD1EEE74FF0FF3038BD89
:1014FC000000002038B5184B1F281D6829D8D5F8D6
:10150C00DC22044682B152F8243002EB84024BB147
:10151C00591C1CD0012B18D000252046156098476B
:10152C00284638BD012038BD8021284600F05EF8E1
:10153C000246C5F8DC0260B10020131F02F17C01E9
:10154C0043F8040F8B42FBD1DDE7032038BD0220AA
:10155C0038BD4FF0FF3038BD0000002070B50026BC
:10156C00074D0446084611462E6000F04FFD431C03
:10157C0000D070BD2B68002BFBD0236070BD00BF6A
:10158C009C08002000F03BBD70B5174C2568D5F8C1
:10159C004841DCB165681F2D23DC80B14FF0010C94
:1015AC0004EB850ECEF88820D4F888610CFA05F28D
:1015BC0016430228C4F88861CEF808310BD06B1C96
:1015CC0002356360002044F8251070BD05F5A67443
:1015DC00C5F84841DEE7D4F88C311343C4F88C319C
:1015EC00EDE74FF0FF3070BD602F00082DE9F04F94
:1015FC0001F10B05162D064683B025D8102900F2F3
:10160C00B88000F099FA102518224FF0020CB74F51
:10161C003A445368A2F108018B4200F0B7805A6833
:10162C00D96822F003021A449C683046E1608C6051
:10163C00516803F1080441F00101516000F07EFA99
:10164C00204603B0BDE8F08F35F0070500F191801E
:10165C00A94200F28E8000F06FFAB5F5FC7FC0F065
:10166C0090816B0A00F08C80042B00F26681AB0930
:10167C0003F1390C03F138044FEACC009B4F38448A
:10168C0043680838984206D10CE0002980F22B817F
:10169C00DB68984206D05A6822F00302511B0F29CE
:1016AC00F3DDA4463C69DFF848E274457AD0626801
:1016BC0022F00302531B0F2B00F37281002BC7E99E
:1016CC0004EE80F26381B2F5007F80F01581012178
:1016DC00D30852090B4491407A6857F833000A43F7
:1016EC0007EBC3010839A060E1607A6047F833402A
:1016FC00C46001214FEAAC039940914259D8114280
:10170C0006D12CF0030C490011420CF1040CFAD058
:10171C0007EBCC0948466446D0F80C80404508D10C
:10172C0018E1002B80F21D81D8F80C80404500F0A8
:10173C001181D8F8042022F00302531B0F2BF0DD8B
:10174C0008EB050145F00105C8F804503046D8E90E
:10175C000264F460A66043F00104C7E904114C6014
:10176C00C1E902EE48F8023000F0E8F908F108048B
:10177C0002E00C2300243360204603B0BDE8F08F58
:10178C004FF400704FF0400C3F2477E7D3689A4237
:10179C0008BF0CF1020C7FF442AF3C69DFF850E15A
:1017AC00744584D101217A684FEAAC039940914287
:1017BC00A5D9BC68636823F00308454503D8A8EB9A
:1017CC0005030F2B7FDCDFF82C91D7F80824D9F810
:1017DC00003001322B4404EB080A00F02B8103F596
:1017EC0080530F3323F47F6B2BF00F0B594630468D
:1017FC0000F0A6F9411C024600F0EB80824500F295
:10180C00E680D9F8041059440B46C9F8041000F0CE
:10181C004681D7F8081401311BBFA2EB0A0A5344C6
:10182C00C7F80824C9F8043012F0070300F00C8143
:10183C00C3F108010A44C3F5805193440831A1EB6C
:10184C000B01C1F30B0A514630460192009300F094
:10185C0077F9421CDDE9003200F04781831A03EB73
:10186C000A0BD9F804004BF001030AEB0001BC424F
:10187C00BA60C9F80410536000F01D81B8F10F0F65
:10188C0040F21B814FF0050C6368A8F10C0020F0AE
:10189C00070003F00103034363600F2804EB00030C
:1018AC00C3E901CC00F2288114465368D9F82C20E6
:1018BC008A42D9F8302038BFC9F82C108A4238BF78
:1018CC00C9F8301087E0621943F0010345F00105B7
:1018DC0065603046BA600834536000F02FF920463A
:1018EC0003B0BDE8F08FD9681A449DE6300400209F
:1018FC003804002068080020B2F5206F4FEA52230C
:10190C005FD3142B00F2B28003F15C01C9005B338E
:10191C00781879580838884200F08F804B6823F08B
:10192C000303934202D989688842F7D1C8687A6860
:10193C00C4E902108460CC60DBE6142B59D9542B1B
:10194C0000F29C802B0B03F16F0C03F16E044FEA39
:10195C00CC0093E60134A30700F108007FF4DCAE61
:10196C0053E0444642445368D8F80C1043F001034A
:10197C00536054F8083F3046D9608B6000F0DEF8B5
:10198C00FAE64FEAD50C05F1080240E6224453680A
:10199C00304643F00103536000F0D0F80834EBE616
:1019AC00611945F00105656043F00105C7E90411B3
:1019BC003046C1E902EE4D60A35000F0BFF8083488
:1019CC00DAE6930903F13901C9003833A0E7BC42C8
:1019DC005FD0BC68636823F0030B5D45ABEB05037C
:1019EC0002D80F2B3FF76FAF304600F0A7F800245A
:1019FC00C2E603F15C0C03F15B044FEACC003DE65C
:101A0C0059F808394B4540F095801CF0030F0CF148
:101A1C00FF3CF5D17B6823EA01037B6049009942C6
:101A2C003FF6C7AE11B9C4E6490004341942FBD0E5
:101A3C00A4466DE603F1100BD8E601229B109A40E8
:101A4C007B681A437A6073E702EB0B014942C1F3DE
:101A5C000B0A514630460193009200F071F8431C7A
:101A6C00DDE900237FF4FAAE9A46FAE6542B27D828
:101A7C00130B03F16F01C9006E3349E7B3F5AA7F6D
:101A8C0027D8EB0B03F1780C03F177044FEACC0069
:101A9C00F4E5D9F804305B44C9F80430B9E6CAF36C
:101AAC000B0000287FF4B5AEBC6808EB0B0343F0C9
:101ABC0001036360FAE61446F8E60123536093E7EA
:101ACC00B3F5AA7F22D8D30B03F17801C900773381
:101ADC001EE740F25452934222D8AB0C03F17D0C1A
:101AEC0003F17C044FEACC00C8E5083B9B444FF063
:101AFC00000AABEB020BB4E604F10801304600F02F
:101B0C0081F8BC68D9F804106368CFE640F25451F0
:101B1C008B420BD8930C03F17D01C9007C33F7E6A3
:101B2C004FF47E704FF07F0C7E24A7E54FF47E714E
:101B3C007E23EDE67B6871E7704700BF704700BFFE
:101B4C00002238B5064D044608462A6000F078FAA3
:101B5C00431C00D038BD2B68002BFBD0236038BD54
:101B6C009C080020F8B50C46234F0646FFF7E4FF0F
:101B7C00BB685D68C4F57E6325F003050F332B4409
:101B8C0023F47F6323F00F03A3F58054B4F5805F37
:101B9C0007DB00213046FFF7D3FFBB682B4498428C
:101BAC0004D03046FFF7CAFF0020F8BD3046614232
:101BBC00FFF7C6FF01300DD0104ABB682D1B45F056
:101BCC0001055D60136830461B1B1360FFF7B6FF01
:101BDC000120F8BD00213046FFF7B2FFBA68831A26
:101BEC000F2BDEDD43F001035360054B03491B68EB
:101BFC00C01A0860D5E700BF300400206C08002034
:101C0C003808002000295ED0F8B50C460646FFF7D0
:101C1C0093FF54F8042C784FA4F1080522F001012D
:101C2C006818D7F808C04368844523F0030300F014
:101C3C008780D207436034D454F8082C07F1080489
:101C4C00AD1A1144AA68A24268D000EB030CDCF870
:101C5C0004E0D5F80CC01EF0010FC2F80CC0CCF893
:101C6C00082000F0918041F001036B600160B1F538
:101C7C00007F31D24A09CB08012191407A680133A7
:101C8C001143796007EBC30257F83310083AC5E9E2
:101C9C00021247F83350CD603046BDE8F840FFF7EC
:101CAC004DBFC2185268D2070ED4194407F108046C
:101CBC008368A34270D0C268DA60936041F001037C
:101CCC006B606950D3E7704741F00103B1F5007FB9
:101CDC0044F8043C0160CDD3B1F5206F4FEA512399
:101CEC0047D28B0903F1390003F13802C300F8180D
:101CFC00FB580838984258D05A6822F003028A429E
:101D0C0002D99B689842F7D1D868C5E90230856042
:101D1C003046DD60BDE8F840FFF710BFC2185268CE
:101D2C00D20763D40B44D0E90212CA60916043F02D
:101D3C0001026A603046EB50BDE8F840FFF7FEBE8A
:101D4C000B44D10707D454F8082CAD1A1344D5E929
:101D5C000212CA60916043F001026A60274ABD60BA
:101D6C0012689A4298D8264B30461968FFF7FAFE4B
:101D7C0092E7142B0AD9542B1FD80B0B03F16F00CD
:101D8C0003F16E02C300B2E7194491E703F15C0062
:101D9C0003F15B02C300AAE741F00103C7E9045554
:101DAC00C5E902446B60695076E70121921001FA93
:101DBC0002F279680A437A60A7E7B3F5AA7F06D8DE
:101DCC00CB0B03F1780003F17702C3008FE740F2ED
:101DDC005452934206D88B0C03F17D0003F17C0224
:101DEC00C30084E74FF47E737E2280E741F0010349
:101DFC006B60016050E700BF300400203C080020FD
:101E0C006808002080B588B000AF07F110030022ED
:101E1C001A605A609A60DA601E4B9B691D4A43F047
:101E2C00200393611B4B9B6903F02003FB60FB6851
:101E3C00184B9B69174A43F004039361154B9B693C
:101E4C0003F00403BB60BB68124B9B69114A43F05F
:101E5C00080393610F4B9B6903F008037B607B685D
:101E6C0000224FF480710C4800F03AFC4FF4807360
:101E7C003B6101237B610023BB610223FB6107F102
:101E8C0010031946044800F0A7FA00BF2037BD46DE
:101E9C0080BD00BF00100240000C014080B500AFB7
:101EAC0000F030F900F007F8FFF7ACFF01F028F86C
:101EBC0001F02CF8FCE780B590B000AF07F11803E7
:101ECC00282200211846FFF7B1F93B1D00221A60A9
:101EDC005A609A60DA601A610123BB614FF4803357
:101EEC00FB6100233B620123BB6202237B634FF443
:101EFC008033BB634FF4E013FB6307F11803184600
:101F0C0000F020FC0346002B01D000F019F80F2341
:101F1C007B600223BB600023FB604FF480633B615A
:101F2C0000237B613B1D0221184600F08DFE034609
:101F3C00002B01D000F004F800BF4037BD4680BD37
:101F4C0080B400AF72B600BFFEE7000080B485B06D
:101F5C0000AF154B9B69144A43F001039361124B7C
:101F6C009B6903F00103BB60BB680F4BDB690E4A36
:101F7C0043F08053D3610C4BDB6903F080537B60DF
:101F8C007B680A4B5B68FB60FB6823F0E063FB60DB
:101F9C00FB6843F00073FB60044AFB68536000BFAE
:101FAC001437BD4680BC7047001002400000014051
:101FBC0080B400AFFEE780B400AFFEE780B400AFA2
:101FCC00FEE780B400AFFEE780B400AFFEE780B45C
:101FDC0000AF00BFBD4680BC704780B400AF00BFEF
:101FEC00BD4680BC704780B400AF00BFBD4680BC0E
:101FFC00704780B500AF00F0CBF800BF80BD80B457
:10200C0000AF01231846BD4680BC704780B582B036
:10201C0000AF78603960FFF753F8034616221A6058
:10202C004FF0FF3318460837BD4680BD80B582B0EF
:10203C0000AF78604FF0FF317868FFF7E7FFFEE7FD
:10204C0080B586B000AF7860144A154BD31A7B610B
:10205C007B693B61134B1B68002B02D1114B124A5D
:10206C001A60104B1A687B6813443A699A4207D27B
:10207C00FFF726F803460C221A604FF0FF3309E0F5
:10208C00084B1B68FB60074B1A687B681344054AB6
:10209C001360FB6818461837BD4680BD0050002001
:1020AC0000040000A0080020A808002080B400AFA5
:1020BC0000BFBD4680BC7047FFF7F8FF0B480C49CA
:1020CC000C4A002302E0D458C4500433C4188C4288
:1020DC00F9D3094A094C002301E013600432A242EF
:1020EC00FBD3FFF709F8FFF7D9FE7047000000207B
:1020FC004C080020743000084C080020A808002070
:10210C00FEE7000080B500AF084B1B68074A43F0A0
:10211C0010031360032000F02BF90F2000F008F8D7
:10212C00FFF714FF0023184680BD00BF00200240BB
:10213C0080B582B000AF7860124B1A68124B1B78D6
:10214C0019464FF47A73B3FBF1F3B2FBF3F3184671
:10215C0000F035F90346002B01D001230EE07B681B
:10216C000F2B0AD8002279684FF0FF3000F00BF9E2
:10217C00064A7B681360002300E0012318460837E9
:10218C00BD4680BD400800204808002044080020BF
:10219C0080B400AF054B1B781A46054B1B681344E3
:1021AC00034A136000BFBD4680BC7047480800203E
:1021BC00A408002080B400AF024B1B681846BD4633
:1021CC0080BC7047A408002080B584B000AF786054
:1021DC00FFF7F0FFB8607B68FB60FB68B3F1FF3F73
:1021EC0005D00A4B1B781A46FB681344FB6000BFF2
:1021FC00FFF7E0FF0246BB68D31AFA689A42F7D899
:10220C0000BF00BF1037BD4680BD00BF480800208E
:10221C0080B485B000AF78607B6803F00703FB6087
:10222C000C4BDB68BB60BA684FF6FF031340BB6016
:10223C00FB681A02BB68134343F0BF6343F40033DB
:10224C00BB60044ABB68D36000BF1437BD4680BC7A
:10225C00704700BF00ED00E080B400AF044BDB68BA
:10226C001B0A03F007031846BD4680BC704700BF2D
:10227C0000ED00E080B483B000AF03463960FB7121
:10228C0097F90730002B0ADB3B68DAB20C4997F957
:10229C0007301201D2B20B4483F800230AE03B68EA
:1022AC00DAB20849FB7903F00F03043B1201D2B2F6
:1022BC000B441A7600BF0C37BD4680BC704700BF7C
:1022CC0000E100E000ED00E080B489B000AFF86000
:1022DC00B9607A60FB6803F00703FB61FB69C3F12B
:1022EC000703042B28BF0423BB61FB690433062BB3
:1022FC0002D9FB69033B00E000237B614FF0FF3206
:10230C00BB6902FA03F3DA43BB681A407B699A4053
:10231C004FF0FF317B6901FA03F3D9437B680B4023
:10232C00134318462437BD4680BC704780B582B035
:10233C0000AF78607B68013BB3F1807F01D3012350
:10234C000FE00A4A7B68013B53600F214FF0FF30CE
:10235C00FFF790FF054B00229A60044B07221A608E
:10236C00002318460837BD4680BD00BF10E000E0D2
:10237C0080B582B000AF78607868FFF749FF00BF86
:10238C000837BD4680BD80B586B000AF0346B96046
:10239C007A60FB7300237B61FFF75EFF78617A68DC
:1023AC00B9687869FFF790FF024697F90F3011462C
:1023BC001846FFF75FFF00BF1837BD4680BD80B5DC
:1023CC0082B000AF78607868FFF7B0FF034618461C
:1023DC000837BD4680BD000080B48BB000AF78607C
:1023EC00396000237B6200233B6269E101227B6A36
:1023FC0002FA03F3FB613B681B68FA691340BB618B
:10240C00BA69FB699A4240F058813B685B689A4A0A
:10241C0093425ED0984A934275D8984A934258D0CA
:10242C00964A93426FD8964A934252D0944A93421A
:10243C0069D8944A93424CD0924A934263D8924AB8
:10244C00934246D0904A93425DD8122B2AD8122B35
:10245C0059D801A252F823F0DF240008B92400084F
:10246C00CB2400080D2500081325000813250008AF
:10247C001325000813250008132500081325000850
:10248C001325000813250008132500081325000840
:10249C00132500081325000813250008C124000883
:1024AC00D5240008794A934213D02CE03B68DB68B2
:1024BC003B6229E03B68DB6804333B6224E03B6809
:1024CC00DB6808333B621FE03B68DB680C333B6224
:1024DC001AE03B689B68002B02D104233B6213E09B
:1024EC003B689B68012B05D108233B627B68FA692A
:1024FC001A6109E008233B627B68FA695A6103E0C0
:10250C0000233B6200E000BFBB69FF2B01D87B6856
:10251C0001E07B6804337B61BB69FF2B02D87B6ACB
:10252C009B0002E07B6A083B9B003B617B691A685D
:10253C000F213B6901FA03F3DB431A40396A3B690B
:10254C0001FA03F31A437B691A603B685B6803F07A
:10255C008053002B00F0B1804D4B9B694C4A43F0EB
:10256C00010393614A4B9B6903F00103BB60BB6899
:10257C00484A7B6A9B08023352F82330FB607B6A23
:10258C0003F003039B000F2202FA03F3DB43FA6808
:10259C001340FB607B68404A934213D07B683F4AF0
:1025AC0093420DD07B683E4A934207D07B683D4AEC
:1025BC00934201D1032306E0042304E0022302E04A
:1025CC00012300E000237A6A02F003029200934098
:1025DC00FA681343FB602F497B6A9B080233FA6845
:1025EC0041F823203B685B6803F48013002B06D072
:1025FC002D4B9A682C49BB6913438B6006E02A4B20
:10260C009A68BB69DB43284913408B603B685B6865
:10261C0003F40013002B06D0234BDA682249BB6964
:10262C001343CB6006E0204BDA68BB69DB431E49E1
:10263C001340CB603B685B6803F40033002B06D07F
:10264C00194B5A681849BB6913434B6006E0164B8B
:10265C005A68BB69DB43144913404B603B685B68A9
:10266C0003F48033002B21D00F4B1A680E49BB6941
:10267C0013430B6021E000BF00003210000031104A
:10268C000000221000002110000012100000111098
:10269C00001002400000014000080140000C014005
:1026AC000010014000140140000401400B4B1A685B
:1026BC00BB69DB43094913400B607B6A01337B62C6
:1026CC003B681A687B6A22FA03F3002B7FF48EAE08
:1026DC0000BF00BF2C37BD4680BC704700040140D2
:1026EC0080B483B000AF78600B467B8013467B7060
:1026FC007B78002B03D07A887B681A6103E07B8897
:10270C001A047B681A6100BF0C37BD4680BC704749
:10271C0080B485B000AF78600B467B807B68DB684B
:10272C00FB607A88FB6813401A04FB68D9437B88EA
:10273C000B401A437B681A6100BF1437BD4680BC3E
:10274C007047000080B586B000AF78607B68002BC6
:10275C0001D1012372E27B681B6803F00103002B9B
:10276C0000F08780924B5B6803F00C03042B0CD0B9
:10277C008F4B5B6803F00C03082B12D18C4B5B68FE
:10278C0003F48033B3F5803F0BD1894B1B6803F402
:10279C000033002B6CD07B685B68002B68D1012365
:1027AC004CE27B685B68B3F5803F06D1804B1B68BD
:1027BC007F4A43F4803313602EE07B685B68002B08
:1027CC000CD17B4B1B687A4A23F480331360784B13
:1027DC001B68774A23F4802313601DE07B685B68D9
:1027EC00B3F5A02F0CD1724B1B68714A43F48023B4
:1027FC0013606F4B1B686E4A43F4803313600BE01D
:10280C006B4B1B686A4A23F480331360684B1B685C
:10281C00674A23F4802313607B685B68002B13D01A
:10282C00FFF7C8FC386108E0FFF7C4FC02463B69BF
:10283C00D31A642B01D9032300E25D4B1B6803F40C
:10284C000033002BF0D014E0FFF7B4FC386108E043
:10285C00FFF7B0FC02463B69D31A642B01D9032362
:10286C00ECE1534B1B6803F40033002BF0D100E078
:10287C0000BF7B681B6803F00203002B63D04C4B3A
:10288C005B6803F00C03002B0BD0494B5B6803F027
:10289C000C03082B1CD1464B5B6803F48033002BD4
:1028AC0016D1434B1B6803F00203002B05D07B6849
:1028BC001B69012B01D00123C0E13D4B1B6823F0A8
:1028CC00F8027B685B69DB00394913430B603AE023
:1028DC007B681B69002B20D0364B01221A60FFF756
:1028EC0069FC386108E0FFF765FC02463B69D31AC6
:1028FC00022B01D90323A1E12D4B1B6803F002032A
:10290C00002BF0D02A4B1B6823F0F8027B685B6924
:10291C00DB00274913430B6015E0264B00221A609D
:10292C00FFF748FC386108E0FFF744FC02463B69BE
:10293C00D31A022B01D9032380E11D4B1B6803F032
:10294C000203002BF0D17B681B6803F00803002BFB
:10295C003AD07B689B69002B19D0174B01221A6067
:10296C00FFF728FC386108E0FFF724FC02463B69BE
:10297C00D31A022B01D9032360E10D4B5B6A03F0E0
:10298C000203002BF0D0012000F09CFA1CE00A4B53
:10299C0000221A60FFF70EFC38610FE0FFF70AFC0B
:1029AC0002463B69D31A022B08D9032346E100BF28
:1029BC00001002400000424280044242924B5B6A8B
:1029CC0003F00203002BE9D17B681B6803F00403BE
:1029DC00002B00F0A6800023FB758B4BDB6903F00A
:1029EC008053002B0DD1884BDB69874A43F0805311
:1029FC00D361854BDB6903F08053BB60BB6801235B
:102A0C00FB75824B1B6803F48073002B18D17F4B32
:102A1C001B687E4A43F480731360FFF7CBFB38616D
:102A2C0008E0FFF7C7FB02463B69D31A642B01D9B8
:102A3C00032303E1754B1B6803F48073002BF0D068
:102A4C007B68DB68012B06D16F4B1B6A6E4A43F027
:102A5C00010313622DE07B68DB68002B0CD16A4B01
:102A6C001B6A694A23F001031362674B1B6A664AAF
:102A7C0023F0040313621CE07B68DB68052B0CD18C
:102A8C00614B1B6A604A43F0040313625E4B1B6A82
:102A9C005D4A43F0010313620BE05B4B1B6A5A4A1D
:102AAC0023F001031362584B1B6A574A23F00403AB
:102ABC0013627B68DB68002B15D0FFF77BFB38615A
:102ACC000AE0FFF777FB02463B69D31A41F28832E2
:102ADC00934201D90323B1E04B4B1B6A03F0020371
:102AEC00002BEED014E0FFF765FB38610AE0FFF72E
:102AFC0061FB02463B69D31A41F28832934201D9F9
:102B0C0003239BE0404B1B6A03F00203002BEED126
:102B1C00FB7D012B05D13C4BDB693B4A23F08053F9
:102B2C00D3617B68DB69002B00F08780364B5B68D8
:102B3C0003F00C03082B61D07B68DB69022B46D1B8
:102B4C00334B00221A60FFF735FB386108E0FFF7C2
:102B5C0031FB02463B69D31A022B01D903236DE0EA
:102B6C00294B1B6803F00073002BF0D17B681B6AA8
:102B7C00B3F5803F08D1244B5B6823F400327B68AB
:102B8C009B68214913434B601F4B5B6823F4741201
:102B9C007B68196A7B685B6A0B431B4913434B6068
:102BAC001B4B01221A60FFF705FB386108E0FFF7A9
:102BBC0001FB02463B69D31A022B01D903233DE0EA
:102BCC00114B1B6803F00073002BF0D035E0104B59
:102BDC0000221A60FFF7EEFA386108E0FFF7EAFA14
:102BEC0002463B69D31A022B01D9032326E0064B7C
:102BFC001B6803F00073002BF0D11EE07B68DB69CF
:102C0C00012B07D1012319E0001002400070004095
:102C1C00600042420B4B5B68FB60FB6803F4803244
:102C2C007B681B6A9A4206D1FB6803F470127B68BE
:102C3C005B6A9A4201D0012300E000231846183742
:102C4C00BD4680BD0010024080B584B000AF7860F6
:102C5C0039607B68002B01D10123D0E06A4B1B68E3
:102C6C0003F007033A689A4210D9674B1B6823F0AC
:102C7C00070265493B6813430B60634B1B6803F009
:102C8C0007033A689A4201D00123B8E07B681B68BD
:102C9C0003F00203002B20D07B681B6803F00403B5
:102CAC00002B05D0594B5B68584A43F4E0635360E2
:102CBC007B681B6803F00803002B05D0534B5B6843
:102CCC00524A43F460535360504B5B6823F0F0025C
:102CDC007B689B684D4913434B607B681B6803F012
:102CEC000103002B40D07B685B68012B07D1474B5D
:102CFC001B6803F40033002B15D101237FE07B68A4
:102D0C005B68022B07D1414B1B6803F00073002B4F
:102D1C0009D1012373E03D4B1B6803F00203002B28
:102D2C0001D101236BE0394B5B6823F003027B6814
:102D3C005B68364913434B60FFF73CFAF8600AE0D6
:102D4C00FFF738FA0246FB68D31A41F288329342F5
:102D5C0001D9032353E02D4B5B6803F00C027B6815
:102D6C005B689B009A42EBD1274B1B6803F007036F
:102D7C003A689A4210D2244B1B6823F0070222496E
:102D8C003B6813430B60204B1B6803F007033A6846
:102D9C009A4201D0012332E07B681B6803F00403E4
:102DAC00002B08D0194B5B6823F4E0627B68DB686E
:102DBC00164913434B607B681B6803F00803002B18
:102DCC0009D0124B5B6823F460527B681B69DB00F3
:102DDC000E4913434B6000F021F802460B4B5B6825
:102DEC001B0903F00F030A49CB5C22FA03F3094ACF
:102DFC001360094B1B681846FFF79AF90023184615
:102E0C001037BD4680BD00BF0020024000100240BC
:102E1C00642F0008400800204408002080B487B0CC
:102E2C0000AF0023FB600023BB6000237B61002309
:102E3C007B6000233B611E4B5B68FB60FB6803F00F
:102E4C000C03042B02D0082B03D027E0194B3B6159
:102E5C0027E0FB689B0C03F00F03174AD35C7B60E5
:102E6C00FB6803F48033002B10D0114B5B685B0CB8
:102E7C0003F00103114AD35CBB607B680D4A03FB72
:102E8C0002F2BB68B2FBF3F37B6104E07B680C4A93
:102E9C0002FB03F37B617B693B6102E0054B3B6109
:102EAC0000BF3B6918461C37BD4680BC704700BF4D
:102EBC000010024000127A00742F0008842F0008C2
:102ECC0000093D0080B485B000AF78600A4B1B68E8
:102EDC000A4AA2FB03235B0A7A6802FB03F3FB603A
:102EEC0000BFFB685A1EFA60002BF9D100BF00BF6F
:102EFC001437BD4680BC704740080020D34D62108B
:102F0C0080B400AF00BFBD4680BC704780B500AF39
:102F1C004FF480710348FFF7FBFB6420FFF754F973
:102F2C0000BF80BD000C0140024B13B10248FEF7FC
:102F3C00C1B8704700000000D9100008F8B500BFF8
:102F4C00F8BC08BC9E467047F8B500BFF8BC08BC7E
:042F5C009E467047D6
:102F6000080000200000000000000000010203042F
:102F70000607080902030405060708090A0B0C0DD9
:082F80000E0F10100102000009
:102F880008B10181B0B000840000000008B10181DF
:082F9800B0B00084000000004D
:102FA000F4D1FF7F0100000088D2FF7FB0A902802A
:102FB00020D3FF7FB0B0A88070D3FF7F0100000056
:102FC0007CD3FF7FB0B0AA80B4D3FF7FAE71B28054
:102FD00084D4FF7F0100000080D4FF7FAB3F3880A6
:102FE000E0D4FF7F01000000ECD4FF7FB0B0AA80E6
:102FF00028D5FF7F01000000D8D5FF7FAA0DB28041
:1030000050D6FF7FB0AF0880F0D8FF7F01000000EE
:10301000F4D8FF7FAD3F028060DBFF7F010000003E
:103020003CDDFF7F0084048050DDFF7F0100000055
:103030004CDDFF7FB0AD048028E0FF7F008404807A
:1030400050E0FF7F44FFFF7F54E0FF7F48FFFF7F9A
:1030500060E0FF7F01000000C0FEFF7F08849780D2
:08306000D4FEFF7F0100000017
:08306800352F00087501000876
:043070004D01000806
:10307400080000200000000000000000F40200200E
:103084005C030020C40300200000000000000000D6
:10309400000000000000000000000000000000002C
:1030A400000000000000000000000000000000001C
:1030B400000000000000000000000000000000000C
:1030C40000000000000000000000000000000000FC
:1030D40000000000000000000000000000000000EC
:1030E40000000000000000000000000000000000DC
:1030F40000000000000000000000000000000000CC
:1031040000000000000000000000000000000000BB
:1031140000000000000000000000000000000000AB
:1031240001000000000000000E33CDAB34126DE648
:10313400ECDE05000B0000000000000000000000B1
:10314400000000000000000000000000000000007B
:10315400000000000000000000000000000000006B
:10316400000000000000000000000000000000005B
:10317400000000000000000000000000000000004B
:1034A4000000000000000000300400203004002070
:1034B4003804002038040020400400204004002088
:1034C4004804002048040020500400205004002038
:1034D40058040020580400206004002060040020E8
:1034E4006804002068040020700400207004002098
:1034F4007804002078040020800400208004002048
:1035040088040020880400209004002090040020F7
:103514009804002098040020A0040020A0040020A7
:10352400A8040020A8040020B0040020B004002057
:10353400B8040020B8040020C0040020C004002007
:10354400C8040020C8040020D0040020D0040020B7
:10355400D8040020D8040020E0040020E004002067
:10356400E8040020E8040020F0040020F004002017
:10357400F8040020F80400200005002000050020C5
:103584000805002008050020100500201005002073
:103594001805002018050020200500202005002023
:1035A40028050020280500203005002030050020D3
:1035B4003805002038050020400500204005002083
:1035C4004805002048050020500500205005002033
:1035D40058050020580500206005002060050020E3
:1035E4006805002068050020700500207005002093
:1035F4007805002078050020800500208005002043
:1036040088050020880500209005002090050020F2
:103614009805002098050020A0050020A0050020A2
:10362400A8050020A8050020B0050020B005002052
:10363400B8050020B8050020C0050020C005002002
:10364400C8050020C8050020D0050020D0050020B2
:10365400D8050020D8050020E0050020E005002062
:10366400E8050020E8050020F0050020F005002012
:10367400F8050020F80500200006002000060020C0
:10368400080600200806002010060020100600206E
:10369400180600201806002020060020200600201E
:1036A40028060020280600203006002030060020CE
:1036B400380600203806002040060020400600207E
:1036C400480600204806002050060020500600202E
:1036D40058060020580600206006002060060020DE
:1036E400680600206806002070060020700600208E
:1036F400780600207806002080060020800600203E
:1037040088060020880600209006002090060020ED
:103714009806002098060020A0060020A00600209D
:10372400A8060020A8060020B0060020B00600204D
:10373400B8060020B8060020C0060020C0060020FD
:10374400C8060020C8060020D0060020D0060020AD
:10375400D8060020D8060020E0060020E00600205D
:10376400E8060020E8060020F0060020F00600200D
:10377400F8060020F80600200007002000070020BB
:103784000807002008070020100700201007002069
:103794001807002018070020200700202007002019
:1037A40028070020280700203007002030070020C9
:1037B4003807002038070020400700204007002079
:1037C4004807002048070020500700205007002029
:1037D40058070020580700206007002060070020D9
:1037E4006807002068070020700700207007002089
:1037F4007807002078070020800700208007002039
:1038040088070020880700209007002090070020E8
:103814009807002098070020A0070020A007002098
:10382400A8070020A8070020B0070020B007002048
:10383400B8070020B8070020C0070020C0070020F8
:10384400C8070020C8070020D0070020D0070020A8
:10385400D8070020D8070020E0070020E007002058
:10386400E8070020E8070020F0070020F007002008
:10387400F8070020F80700200008002000080020B6
:103884000808002008080020100800201008002064
:103894001808002018080020200800202008002014
:1038A4002808002028080020FFFFFFFF0000020076
:0C38B4000024F4001000000001000000DF
:04000005080020C50A
:00000001FF
