:020000040800F2
:1000000000500020B1440008794100087F410008F9
:10001000854100088B410008914100080000000064
:1000200000000000000000000000000097410008F0
:10003000A341000800000000AF410008BB410008D8
:10004000F9440008F9440008F9440008F94400089C
:10005000F9440008F9440008F9440008F94400088C
:10006000F9440008F9440008F9440008F94400087C
:10007000F9440008F9440008F9440008F94400086C
:10008000F9440008F9440008F9440008F94400085C
:10009000C9410008DD410008F9440008F94400089E
:1000A000F9440008F9440008F9440008F94400083C
:1000B000F1410008F9440008F9440008F944000837
:1000C000F9440008F9440008F9440008F94400081C
:1000D000F944000805420008F9440008F944000802
:1000E000F9440008F9440008F94400080000000041
:1000F0000000000000000000000000000000000000
:0C01000000000000000000005FF808F1A3
:100110000348044B834202D0034B03B11847704796
:10012000BC080020BC08002000000000054806496B
:100130000B1AD90F01EBA301491002D0034B03B1F5
:1001400018477047BC080020BC08002000000000D1
:1001500010B5064C237843B9FFF7DAFF044B13B10F
:100160000448AFF300800123237010BDBC080020B9
:1001700000000000048B000808B5044B1BB10449C3
:100180000448AFF30080BDE80840CFE7000000005E
:10019000C0080020048B00082DE9F8431D460646E0
:1001A0000F46144600F0B8F8574B804693F90030DC
:1001B000894601332AD022462B462046294601F0A3
:1001C0005BFC18BB32463B463046394601F054FCD6
:1001D000002841D1002200233046394601F01AFCA4
:1001E000C0B1002200232046294601F013FC00285C
:1001F0003AD12046294600F0C1FE38B120462946B2
:100200000022002301F010FC002859D14046494645
:10021000BDE8F8834046494600F0B0FE60B30022D6
:1002200000234046494601F0F5FB0028EED0304659
:10023000394600F0A3FE0028E8D02046294600F009
:100240009DFE0028E2D002F0EBFE22234FF00008D2
:100250004FF000090360D9E7204629460022002319
:1002600001F0D8FB0028D1D04FF00008DFF89C90B7
:1002700040464946BDE8F8833046394600F07EFEE8
:100280000028CCD02046294600F078FE0028C6D0B1
:1002900042464B464046494601F0EEFB30BB02F079
:1002A000BFFE2222034639461A6030460022002350
:1002B00001F0BAFB4FF0000858B9DFF85490A5E7F9
:1002C00002F0AEFE21234FF00008DFF848900360F3
:1002D0009CE72046294600F05DFE22462B4601F0B1
:1002E00099FB0028E9D1DFF82C908FE702F098FE07
:1002F00000220023212101601046194601F04CFA2A
:100300008046894682E700BF000000200000F03FE1
:100310000000F07F0000F0FF2DE9F04F9946904675
:1003200029F000451E46134655EA080293B035D021
:100330006B4A21F00044944283468A460F4600905F
:1003400025DC34D0954222DC654A95421DD0002F31
:1003500036DB00220292002B4CD1614B9D4200F013
:100360009780604B9D4200F0A580B6F1804F00F071
:10037000A3845D4B9E423DD1002F3BDB5846514646
:1003800013B0BDE8F04F00F02FBD002BDFD0009B75
:1003900004F1404404F5801423430BD10023514C55
:1003A000CDE90034DDE9000113B0BDE8F08F08B9F4
:1003B000A542C9DD4D4813B0BDE8F04F00F0E4BDE3
:1003C0004B4A95427EDCA2F1547295420EDD2A150D
:1003D000A2F2FF32142A40F37984C2F1340223FAE4
:1003E00002F101FA02F29A4200F0C5840022029260
:1003F000002BB6D05846514600F0BCFD5B46CDE917
:10040000000133BB24B1374B27F040429A4220D140
:10041000002E07DADDE900230020324901F0BCF9A3
:10042000CDE90001002FBDDA029B04F1404404F540
:100430008014234340F06F84DDE900231046194601
:1004400000F0C8FE02460B4601F0A6F9CDE9000116
:10045000A8E7029AFB0F013B0A93134335D0254BC3
:100460009D424BDD03F104739D42234B40F3BC835B
:100470009C4240F34F83002E40F34F8316A3D3E9F1
:1004800000231046194601F05DF8CDE9000189E727
:10049000009A04F1404303F5801313433FF47EAF09
:1004A000154B9C4240F36383002EC0F23683CDE9A6
:1004B000008977E7002EC0F2F58358465146CDE912
:1004C00000016FE70222029245E75A46584653461A
:1004D0005146B5E7AFF300809C7500883CE4377E59
:1004E0000000F07F0000F03F0000E03F608B00085C
:1004F000FFFF3F430000E041FFFFEF3FD44B3B4095
:10050000002B40F0CD83DDE900010022D14B01F04A
:1005100019F86FF034050C46CDE900012315A3F25C
:10052000FF335919CC4BC4F3130242F07F549A4263
:100530000B9144F4401407DDC84B9A4240F3F88312
:1005400001310B91A4F58014002200230020002526
:10055000C349CDE90823CDE90601CDE91023DDE942
:100560000001DDE906232146824600F033FEDDE985
:100570000623A34606460F4650462146CDE90CAB5E
:1005800000F02AFE02460B460020B54901F004F9AE
:100590008C46834663465A4630463946CDE90EBC02
:1005A00000F0D0FF82468B46631043F0005303F502
:1005B000002359190D465A46514600230020CDE923
:1005C00000120093044602462B46CDE904ABDDE958
:1005D00000AB5046594600F0B5FF02460B46304688
:1005E000394600F0F7FDDDE9062306460F462046B2
:1005F000294600F0EFFD02460B46DDE90C0100F054
:10060000E9FD52465B4600F09DFF02460B46304630
:10061000394600F0DFFDDDE90E2300F093FFDDE950
:100620000445CDE9060122462B462046294600F026
:1006300089FF75A3D3E9002304460D4600F082FF2D
:1006400073A3D3E9002300F0C7FD22462B4600F038
:1006500079FF71A3D3E9002300F0BEFD22462B46AB
:1006600000F070FF6EA3D3E9002300F0B5FD224631
:100670002B4600F067FF6CA3D3E9002300F0ACFD2C
:1006800022462B4600F05EFF69A3D3E9002300F069
:10069000A3FD224606460F462B462046294600F07B
:1006A00051FF02460B463046394600F04BFF0446E8
:1006B0000D46DDE9040152465B4600F08DFDDDE9A3
:1006C000062300F03FFF22462B4600F085FD5246F0
:1006D00006460F465B465046594600F033FF024639
:1006E0000B46CDE90C2300225E4B00F075FD32462F
:1006F0003B4600F071FD00240D4622462B46504635
:10070000594600F01FFF002282468B4620462946AC
:10071000544B00F05FFDDDE90C2300F05BFD024669
:100720000B463046394600F055FDDDE9042300F064
:1007300009FF224606460F46DDE906012B4600F07A
:1007400001FF02460B463046394600F045FD06469D
:100750000F46002432463B465046594600F03CFDC9
:1007600035A3D3E9002320460D4600F0EBFE5246A8
:100770005B4682468B462046294600F02BFD02460A
:100780000B463046394600F025FD2DA3D3E9002362
:1007900000F0D8FE02460B462046294614461D4668
:1007A00029A3D3E9002300F0CDFE02460B462046E4
:1007B000294600F011FDDDE9102300F00DFD06468D
:1007C0000B980F4600F054FE04460D4632463B4659
:1007D0005046594600F000FDDDE9082300F0FCFC1E
:1007E00022462B4600F0F8FC224600242B462046E9
:1007F0000D4600F0EFFCDDE9082300F0EBFC52466B
:100800005B4631E0AFF30080EF4E454A287ECA3F99
:1008100065DBC9934A86CD3F01411DA96074D13F74
:100820004D268F515555D53FFFAB6FDBB66DDB3F86
:10083000033333333333E33F000000E009C7EE3FB7
:10084000FD033ADC09C7EE3FF5015B14E02F3EBE25
:100850000000F07F000040438E98030079B60B0043
:100860000000F03F0000084000F0B4FC02460B46D8
:100870003046394600F0AEFC029B0A9A013B134316
:100880004FF000020CBFD24BD24BCDE90089CDE92D
:10089000022300230093DDE900ABCDE904015246B9
:1008A000404649465B4600F095FC22462B4600F048
:1008B00049FE424606460F46DDE904014B4600F07C
:1008C00041FE02460B463046394600F085FC524652
:1008D00006460F465B462046294600F033FE044696
:1008E0000D4630462B463946224600F075FCBA4B81
:1008F0008046994289468A4640F3148101F13F437C
:1009000003F5E003034340F0F6819DA3D3E9002300
:100910003046394600F060FC02460B4640464946E8
:100920009046994622462B4600F054FC02460B4660
:100930004046494601F096F8002840F0DC81CAF3B1
:100940000A534FF480120020A3F2FE3342FA03F35D
:100950005344A249C3F30A52A2F2FF3241FA02FC05
:10096000C3F3130B23EA0C01C2F114024BF4801BF6
:10097000BAF1000F0B464BFA02FB2946024620460D
:10098000B8BFCBF1000B00F025FC04460D46304605
:10099000394622462B4600F01FFC89464FEA0B5A87
:1009A0004FF0000878A3D3E900234046494600F001
:1009B000C9FD22462B4604460D464046494600F0F6
:1009C00009FC02460B463046394600F003FC70A392
:1009D000D3E9002300F0B6FD6FA3D3E90023064658
:1009E0000F464046494600F0ADFD02460B463046F4
:1009F000394600F0F1FB8046894642464B46204688
:100A0000294600F0E9FB22462B4606460F4600F039
:100A1000E1FB02460B464046494600F0DBFB32460E
:100A2000804689463B463046394600F08BFD5CA344
:100A3000D3E9002304460D4600F084FD5AA3D3E910
:100A4000002300F0C7FB22462B4600F07BFD58A395
:100A5000D3E9002300F0C0FB22462B4600F072FDD4
:100A600055A3D3E9002300F0B5FB22462B4600F046
:100A700069FD53A3D3E9002300F0AEFB22462B46C9
:100A800000F060FD02460B463046394600F0A2FBFE
:100A900004460D4622462B463046394600F052FDAC
:100AA00002460B462046294614461D4600224FF0BA
:100AB000804300F08FFB02460B462046294600F09B
:100AC0006BFE424604460D464B463046394600F022
:100AD00039FD42464B4600F07FFB02460B4620465E
:100AE000294600F077FB32463B4600F073FB024696
:100AF0000B460020374900F06DFB8A44BAF5801F91
:100B0000C0F235815146DDE9022300F01BFDCDE93D
:100B1000000147E4002EFFF6B1AC00230024CDE92C
:100B200000343FE4DFF8B8C021F00043634540F3F0
:100B3000DA802C4B0B4403430AD122462B4600F0AB
:100B400049FB32463B4600F083FF00283FF4F7AEF6
:100B50001DA3D3E90023DDE9020100F0F3FC1AA391
:100B6000D3E9002300F0EEFCCDE900011AE4002EE9
:100B7000D3DA09F10043CDF80080019312E400BFFD
:100B8000FE822B654715973C00000000432EE63F90
:100B9000EF39FAFE422EE63F396CA80C615C20BEAC
:100BA000D0A4BE726937663EF16BD2C541BDBB3E73
:100BB0002CDE25AF6A56113F93BDBE166CC1663F51
:100BC0003E5555555555C53F59F3F8C21F6EA50101
:100BD0000000F0BF0000F03FFFFF8F40FFFF0F005D
:100BE000FFCB904000346F3F9C4293DB7A4B9C429A
:100BF0003FF741ACDDE900010022774B00F0EAFA53
:100C000067A3D3E9002304460D4600F09BFC66A3CE
:100C1000D3E9002382468B462046294600F092FC09
:100C20000022CDE900016D4B2046294600F08AFCE8
:100C300002460B465EA1D1E9000100F0CBFA224644
:100C40002B4600F07FFC02460B460020644900F072
:100C5000C1FA224606460F462B462046294600F09A
:100C600071FC02460B463046394600F06BFC52A33D
:100C7000D3E9002300F066FC02460B46DDE90001E3
:100C800000F0A8FA06460F4632463B465046594603
:100C900000F0A2FA002452465B460D462046E3E5EA
:100CA00000253BE45A46002053464B4900F074FDB2
:100CB000CDE90001FFF776BB5A46584653465146E8
:100CC00000F040FCCDE90001FFF76CBB002B40D1E8
:100CD000C2F1140245FA02F101FA02F2AA4254D01A
:100CE0000293FFF73EBB3E4A934255DCDDE9002309
:100CF0009246934654E632A3D3E90023DDE902018C
:100D000000F020FC2EA3D3E9002300F01BFCCDE96A
:100D10000001FFF747BB029B012B7FF443ABDDE9EA
:100D20000045224605F10043CDE90023FFF73ABB19
:100D300000222C4B4FF48025CDE9062322A3D3E9D2
:100D40000023CDE9082322A3D3E90023CDE9102312
:100D500005E45846514600F00DF95B46CDE9000127
:100D6000002B7FF4B2ABCDF808B0FFF74BBB5A466F
:100D700000F0AEF9C7E601F00101C1F102020292F2
:100D8000002B3FF4EEAAFFF735BB01F00101C1F1E2
:100D900002030293FFF7E5BA1B15D2E5AFF300801B
:100DA000000000604715F73F44DF5DF80BAE543E8E
:100DB000555555555555D53FFE822B654715F73F7F
:100DC0009C7500883CE4377E0000004003B8E23F99
:100DD00006D0CF43EBFD4C3E0000F03F0000D03F7B
:100DE0000000E03F0000F83F2DE9F843604E054663
:100DF00036EA01020C4600F09E8000290B4684462C
:100E000054DD091562D0C3F31303C807A1F2FF37FD
:100E100043F4801304D45B0003EBDC734FEA4C0C07
:100E200000264FEADC7202EB43034FF0160E4FF43C
:100E3000001234467F104FEA4C0CA118994202DC94
:100E40005B1A8C1816445B00BEF1010E03EBDC73D9
:100E50004FEA52024FEA4C0CEFD1754620204FF07A
:100E600000420AE043D04FEADC71013801EB430352
:100E70004FEA4C0C4FEA520242D0A34202EB0E0161
:100E8000F0DD002901EB020E0ADBA0461B1B6145C9
:100E900088BF03F1FF334446ACEB010C1544E2E795
:100EA000BEF1000FF1DB04F10108EFE721F0004291
:100EB000024336D000294CD14FEADC2213461539C3
:100EC0004FEA4C5C002AF7D0D6024CD400205B00DD
:100ED000DD02044600F10100F9D51A4663460CFA1A
:100EE00000FCC0F12000C340091B13438BE76145A0
:100EF000B9D8002901EB020ED2DB98460023CAE7DD
:100F000053EA0C0311D16808731003F17F5303F502
:100F10000013F20748BF40F0004003EB07590546B5
:100F20004C4628462146BDE8F883691C16BF681C5C
:100F300001364008E8E702460B4600F003FB2A466C
:100F4000234600F049F905460C4628462146BDE8EF
:100F5000F883024600F03EF902460B4600F01CFC06
:100F600005460C46DDE7634620204FF0FF34BAE724
:100F70000000F07F21F00041704700BF41F00040C9
:100F800000F58010C00F704700200149704700BF76
:100F90000000F87FF0B5C1F30A55A5F2FF3CBCF1A3
:100FA000130F02460B460C46864683B04FEAD176B5
:100FB00065DCBCF1000F30DB424941FA0CF103EA79
:100FC0000100104361D003EA510352EA030E4FEAD5
:100FD00051010DD024EA01014FF48024BCF1130F1C
:100FE0000CBF4FF0004E4FF0000E44FA0CF40C43CF
:100FF0003549234601EBC606D6E9006772463046FE
:10100000394600F0E9F8CDE90001DDE9000132469A
:101010003B4600F0DFF803B0F0BD21F00041014392
:101020001946F8D0C3F3130343EA000ECEF10003D0
:1010300043EA0E03620C1B0B03F40023520443EA41
:1010400002010B462049024601EBC606D6E90067BD
:101050003046394600F0C0F8CDE90001DDE9000175
:1010600032463B4600F0B6F8024604F0004421F058
:10107000004141EA04031046194603B0F0BDBCF13B
:10108000330F06DDBCF5806F18D01046194603B04B
:10109000F0BD4FF0FF31A5F21345E9400842F4D00E
:1010A00010EA51024FEA5103A2D04FF0804E20EADD
:1010B00003034EFA05F543EA050E99E700F08CF8B4
:1010C000A9E700BFFFFF0F00208B00080000000011
:1010D000C1F30A5370B58C4604460D4616467BBBD9
:1010E000034621F0004C5CEA030328D0324B002277
:1010F00000F028FA314B04469E420D461ADB8C461E
:10110000C1F30A53363B40F2FE723344934220DC73
:10111000002B3EDC13F1350F2CDA4CF250339E429B
:1011200017DC05F0004343F0D27141F4B731244895
:1011300041F01F011CA3D3E9002300F003FA70BDA6
:1011400040F2FF7E7345DED102460B4600F044F8C4
:1011500070BD05F0004343F0FC4141F45F1141F4E0
:10116000105113A3D3E90023164841F03C0100F0CD
:10117000E9F970BD2CF0FF4C03F136012CF4E00CC2
:101180004CEA01550022204629460F4B00F0DAF9BF
:1011900070BD2CF0FF4C2CF4E00C20464CEA0351BF
:1011A00070BD00BFAFF3008059F3F8C21F6EA501F8
:1011B0009C7500883CE4377E00005043B03CFFFF44
:1011C00059F3F8C29C7500880000903C81F0004102
:1011D00002E000BF83F0004330B54FEA41044FEA1C
:1011E000430594EA050F08BF90EA020F1FBF54EAB7
:1011F000000C55EA020C7FEA645C7FEA655C00F053
:10120000E2804FEA5454D4EB5555B8BF6D420CDD23
:101210002C4480EA020281EA030382EA000083EAA6
:10122000010180EA020281EA0303362D88BF30BD46
:1012300011F0004F4FEA01314FF4801C4CEA11319C
:1012400002D0404261EB410113F0004F4FEA0333FB
:101250004CEA133302D0524263EB430394EA050F86
:1012600000F0A780A4F10104D5F1200E0DDB02FAF5
:101270000EFC22FA05F2801841F1000103FA0EF289
:10128000801843FA05F359410EE0A5F120050EF14F
:10129000200E012A03FA0EFC28BF4CF0020C43FA80
:1012A00005F3C01851EBE37101F0004507D54FF08D
:1012B000000EDCF1000C7EEB00006EEB0101B1F5DD
:1012C000801F1BD3B1F5001F0CD349085FEA300023
:1012D0004FEA3C0C04F101044FEA445212F5800F2E
:1012E00080F09A80BCF1004F08BF5FEA500C50F1CB
:1012F000000041EB045141EA050130BD5FEA4C0CAE
:10130000404141EB0101013C28BFB1F5801FE9D20A
:1013100091F0000F04BF01460020B1FA81F308BF2D
:101320002033A3F10B03B3F120020CDA0C3208DDF9
:1013300002F1140CC2F10C0201FA0CF021FA02F1D4
:101340000CE002F11402D8BFC2F1200C01FA02F144
:1013500020FA0CFCDCBF41EA0C019040E41AA2BF69
:1013600001EB0451294330BD6FEA04041F3C1CDA31
:101370000C340EDC04F11404C4F1200220FA04F051
:1013800001FA02F340EA030021FA04F345EA0301FB
:1013900030BDC4F10C04C4F1200220FA02F001FABD
:1013A00004F340EA0300294630BD21FA04F029463F
:1013B00030BD94F0000F83F4801306BF81F48011D8
:1013C0000134013D4EE77FEA645C18BF7FEA655C4B
:1013D00029D094EA050F08BF90EA020F05D054EA1D
:1013E000000C04BF1946104630BD91EA030F1EBF22
:1013F0000021002030BD5FEA545C05D14000494126
:1014000028BF41F0004130BD14F580043CBF01F518
:10141000801130BD01F0004545F0FE4141F47001FE
:101420004FF0000030BD7FEA645C1ABF19461046D9
:101430007FEA655C1CBF0B46024650EA013406BFDA
:1014400052EA033591EA030F41F4002130BD00BF99
:1014500090F0000F04BF0021704730B54FF4806456
:1014600004F132044FF000054FF0000150E700BFD7
:1014700090F0000F04BF0021704730B54FF4806436
:1014800004F1320410F0004548BF40424FF0000123
:101490003EE700BF42004FEAE2014FEA31014FEA66
:1014A00002701FBF12F07F4393F07F4F81F06051B5
:1014B000704732F07F4208BF704793F07F4F04BF00
:1014C00041F40021704730B54FF4607401F00045DD
:1014D00021F000411CE700BF50EA010208BF70473D
:1014E00030B54FF000050AE050EA010208BF70472E
:1014F00030B511F0004502D5404261EB41014FF497
:10150000806404F132045FEA915C3FF4D8AE4FF09E
:1015100003025FEADC0C18BF03325FEADC0C18BF81
:10152000033202EBDC02C2F1200300FA03FC20FAD2
:1015300002F001FA03FE40EA0E0021FA02F114441F
:10154000BDE600BF70B54FF0FF0C4CF4E06C1CEA38
:1015500011541DBF1CEA135594EA0C0F95EA0C0FA9
:1015600000F0DEF82C4481EA030621EA4C5123EA1C
:101570004C5350EA013518BF52EA033541F480114B
:1015800043F4801338D0A0FB02CE4FF00005E1FBFE
:1015900002E506F00042E0FB03E54FF00006E1FB48
:1015A00003569CF0000F18BF4EF0010EA4F1FF048B
:1015B000B6F5007F64F5407404D25FEA4E0E6D41CB
:1015C00046EB060642EAC62141EA55514FEAC520DC
:1015D00040EA5E504FEACE2EB4F1FD0C88BFBCF558
:1015E000E06F1ED8BEF1004F08BF5FEA500E50F109
:1015F000000041EB045170BD06F0004646EA0101CF
:1016000040EA020081EA0301B4EB5C04C2BFD4EB00
:101610000C0541EA045170BD41F480114FF0000EF9
:10162000013C00F3AB8014F1360FDEBF002001F067
:10163000004170BDC4F10004203C35DA0C341BDCE1
:1016400004F11404C4F1200500FA05F320FA04F0B3
:1016500001FA05F240EA020001F0004221F00041E7
:1016600010EBD37021FA04F642EB06015EEA430E5A
:1016700008BF20EAD37070BDC4F10C04C4F120058A
:1016800000FA04F320FA05F001FA04F240EA02003D
:1016900001F0004110EBD37041F100015EEA430E0E
:1016A00008BF20EAD37070BDC4F1200500FA05F22E
:1016B0004EEA020E20FA04F301FA05F243EA0203AD
:1016C00021FA04F001F0004121FA04F220EA0200BC
:1016D00000EBD3705EEA430E08BF20EAD37070BD02
:1016E00094F0000F0FD101F00046400041EB0101E2
:1016F00011F4801F08BF013CF7D041EA060195F0C4
:10170000000F18BF704703F00046520043EB03037D
:1017100013F4801F08BF013DF7D043EA060370476A
:1017200094EA0C0F0CEA135518BF95EA0C0F0CD075
:1017300050EA410618BF52EA4306D1D181EA0301BB
:1017400001F000414FF0000070BD50EA410606BFB5
:101750001046194652EA430619D094EA0C0F02D1FA
:1017600050EA013613D195EA0C0F05D152EA03363F
:101770001CBF104619460AD181EA030101F000415D
:1017800041F0FE4141F470014FF0000070BD41F0A6
:10179000FE4141F4780170BD70B54FF0FF0C4CF480
:1017A000E06C1CEA11541DBF1CEA135594EA0C0F9F
:1017B00095EA0C0F00F0A7F8A4EB050481EA030EEC
:1017C00052EA03354FEA013100F088804FEA0333D3
:1017D0004FF0805545EA131343EA12634FEA0222A1
:1017E00045EA111545EA10654FEA00260EF0004162
:1017F0009D4208BF964244F1FD0404F5407402D2B4
:101800005B084FEA3202B61A65EB03055B084FEA44
:1018100032024FF480104FF4002CB6EB020E75EB41
:10182000030E22BFB61A754640EA0C005B084FEA69
:101830003202B6EB020E75EB030E22BFB61A7546E6
:1018400040EA5C005B084FEA3202B6EB020E75EB31
:10185000030E22BFB61A754640EA9C005B084FEAA9
:101860003202B6EB020E75EB030E22BFB61A7546B6
:1018700040EADC0055EA060E18D04FEA051545EAA5
:1018800016754FEA06164FEAC30343EA52734FEA4E
:10189000C2025FEA1C1CC0D111F4801F0BD141EAC7
:1018A00000014FF000004FF0004CB6E711F4801F2C
:1018B00004BF01430020B4F1FD0C88BFBCF5E06F0C
:1018C0003FF6AFAEB5EB030C04BFB6EB020C5FEA1C
:1018D000500C50F1000041EB045170BD0EF0004E71
:1018E0004EEA113114EB5C04C2BFD4EB0C0541EAA3
:1018F000045170BD41F480114FF0000E013C90E6A0
:1019000045EA060E8DE60CEA135594EA0C0F08BF63
:1019100095EA0C0F3FF43BAF94EA0C0F0AD150EA62
:1019200001347FF434AF95EA0C0F7FF425AF1046F5
:1019300019462CE795EA0C0F06D152EA03353FF41D
:10194000FDAE1046194622E750EA410618BF52EA9A
:1019500043067FF4C5AE50EA41047FF40DAF52EA6E
:1019600043057FF4EBAE12E74FF0FF3C06E000BF0B
:101970004FF0010C02E000BF4FF0010C4DF804CD18
:101980004FEA410C7FEA6C5C4FEA430C18BF7FEAD8
:101990006C5C1BD001B050EA410C0CBF52EA430C06
:1019A00091EA030F02BF90EA020F0020704710F186
:1019B000000F91EA030F58BF994208BF90422CBF15
:1019C000D8176FEAE37040F0010070474FEA410C0E
:1019D0007FEA6C5C02D150EA013C07D14FEA430C2C
:1019E0007FEA6C5CD6D152EA033CD3D05DF8040B9D
:1019F000704700BF8446104662468C4619466346CF
:101A000000E000BF01B5FFF7B7FF002848BF10F1A5
:101A1000000F01BD4DF808EDFFF7F4FF0CBF0120EA
:101A200000205DF808FB00BF4DF808EDFFF7EAFF66
:101A300034BF012000205DF808FB00BF4DF808ED21
:101A4000FFF7E0FF94BF012000205DF808FB00BF16
:101A50004DF808EDFFF7CEFF94BF012000205DF8A0
:101A600008FB00BF4DF808EDFFF7C4FF34BF0120AD
:101A700000205DF808FB00BF4FEA410C7FEA6C5C78
:101A800002D150EA013C0AD14FEA430C7FEA6C5C78
:101A900002D152EA033C02D14FF0000070474FF0F0
:101AA000010070474FEA410212F5001215D211D51C
:101AB0006FF47873B3EB625212D94FEAC12343F04B
:101AC000004343EA505311F0004F23FA02F018BFCD
:101AD000404270474FF00000704750EA013005D196
:101AE00011F0004008BF6FF0004070474FF0000059
:101AF000704700BF80F0004002E000BF81F000416D
:101B000042001FBF5FEA410392EA030F7FEA226CA3
:101B10007FEA236C6AD04FEA1262D2EB1363C1BF33
:101B2000D218414048404140B8BF5B42192B88BFA2
:101B3000704710F0004F40F4000020F07F4018BFC5
:101B4000404211F0004F41F4000121F07F4118BFE5
:101B5000494292EA030F3FD0A2F1010241FA03FC8D
:101B600010EB0C00C3F1200301FA03F100F0004375
:101B700002D5494260EB4000B0F5000F13D3B0F13D
:101B8000807F06D340084FEA310102F10102FE2AAC
:101B900051D2B1F1004F40EBC25008BF20F001001C
:101BA00040EA03007047490040EB0000013A28BFBB
:101BB000B0F5000FEDD2B0FA80FCACF1080CB2EB3E
:101BC0000C0200FA0CF0AABF00EBC25052421843BC
:101BD000BCBFD0401843704792F0000F81F4000161
:101BE00006BF80F400000132013BB5E74FEA410334
:101BF0007FEA226C18BF7FEA236C21D092EA030FA0
:101C000004D092F0000F08BF0846704790EA010F19
:101C10001CBF0020704712F07F4F04D1400028BF46
:101C200040F00040704712F100723CBF00F5000028
:101C3000704700F0004343F0FE4040F4000070475E
:101C40007FEA226216BF08467FEA2363014642020A
:101C500006BF5FEA412390EA010F40F4800070471D
:101C60004FF0000304E000BF10F0004348BF4042C3
:101C70005FEA000C08BF704743F0964301464FF0FF
:101C800000001CE050EA010208BF70474FF000035B
:101C90000AE000BF50EA010208BF704711F000439C
:101CA00002D5404261EB41015FEA010C02BF84466C
:101CB0000146002043F0B64308BFA3F18053A3F5CB
:101CC0000003BCFA8CF2083AA3EBC25310DB01FA12
:101CD00002FC634400FA02FCC2F12002BCF1004F96
:101CE00020FA02F243EB020008BF20F00100704727
:101CF00002F1200201FA02FCC2F1200250EA4C007B
:101D000021FA02F243EB020008BF20EADC707047C0
:101D10004FF0FF0C1CEAD0521EBF1CEAD15392EACE
:101D20000C0F93EA0C0F6FD01A4480EA010C4002AA
:101D300018BF5FEA41211ED04FF0006343EA501004
:101D400043EA5111A0FB01310CF00040B1F5000F46
:101D50003EBF490041EAD3715B0040EA010062F1F5
:101D60007F02FD2A1DD8B3F1004F40EBC25008BFDF
:101D700020F00100704790F0000F0CF0004C08BFFD
:101D800049024CEA502040EA51207F3AC2BFD2F1CA
:101D9000FF0340EAC250704740F400004FF00003D8
:101DA000013A5DDC12F1190FDCBF00F00040704712
:101DB000C2F10002410021FA02F1C2F1200200FA50
:101DC00002FC5FEA310040F1000053EA4C0308BF17
:101DD00020EADC70704792F0000F00F0004C02BF68
:101DE000400010F4000F013AF9D040EA0C0093F0E3
:101DF000000F01F0004C02BF490011F4000F013B3D
:101E0000F9D041EA0C018FE70CEAD15392EA0C0FAA
:101E100018BF93EA0C0F0AD030F0004C18BF31F015
:101E2000004CD8D180EA010000F00040704790F0EB
:101E3000000F17BF90F0004F084691F0000F91F08F
:101E4000004F14D092EA0C0F01D142020FD193EA55
:101E50000C0F03D14B0218BF084608D180EA0100DD
:101E600000F0004040F0FE4040F40000704740F0B9
:101E7000FE4040F4400070474FF0FF0C1CEAD05287
:101E80001EBF1CEAD15392EA0C0F93EA0C0F69D0E3
:101E9000A2EB030280EA010C49024FEA402037D04E
:101EA0004FF0805343EA111143EA10130CF0004045
:101EB0008B4238BF5B0042F17D024FF4000C8B4235
:101EC00024BF5B1A40EA0C00B3EB510F24BFA3EB15
:101ED000510340EA5C00B3EB910F24BFA3EB9103E5
:101EE00040EA9C00B3EBD10F24BFA3EBD10340EA3F
:101EF000DC001B0118BF5FEA1C1CE0D1FD2A3FF685
:101F000050AF8B4240EBC25008BF20F00100704739
:101F10000CF0004C4CEA50207F32C2BFD2F1FF03DC
:101F200040EAC250704740F400004FF00003013A0D
:101F300037E792F0000F00F0004C02BF400010F4B1
:101F4000000F013AF9D040EA0C0093F0000F01F0C5
:101F5000004C02BF490011F4000F013BF9D041EAE7
:101F60000C0195E70CEAD15392EA0C0F08D142021A
:101F70007FF47DAF93EA0C0F7FF470AF084676E7ED
:101F800093EA0C0F04D14B023FF44CAF08466EE7C6
:101F900030F0004C18BF31F0004CCAD130F0004294
:101FA0007FF45CAF31F000437FF43CAF5FE700BFEC
:101FB0004FF0FF3C06E000BF4FF0010C02E000BF15
:101FC0004FF0010C4DF804CD4FEA40024FEA4103B7
:101FD0007FEA226C18BF7FEA236C11D001B052EA6D
:101FE000530C18BF90EA010F58BFB2EB030088BF33
:101FF000C81738BF6FEAE17018BF40F001007047A2
:102000007FEA226C02D15FEA402C05D17FEA236C83
:10201000E4D15FEA412CE1D05DF8040B704700BFCA
:10202000844608466146FFE70FB5FFF7C9FF002861
:1020300048BF10F1000F0FBD4DF808EDFFF7F4FF9A
:102040000CBF012000205DF808FB00BF4DF808ED33
:10205000FFF7EAFF34BF012000205DF808FB00BF56
:102060004DF808EDFFF7E0FF94BF012000205DF878
:1020700008FB00BF4DF808EDFFF7D2FF94BF012029
:1020800000205DF808FB00BF4DF808EDFFF7C8FF22
:1020900034BF012000205DF808FB00BF4FEA40027A
:1020A000B2F1FE4F0FD34FF09E03B3EB12620DD986
:1020B0004FEA002343F0004310F0004F23FA02F0F0
:1020C00018BF404270474FF00000704712F1610F97
:1020D00001D1420205D110F0004008BF6FF000406E
:1020E00070474FF00000704703685A004CBF43F040
:1020F000004323F000431844704700BF2DE9F84324
:1021000039B34F1E044615463E464FF0000808EB13
:10211000060101EBD171491004EBC1094846FFF7F4
:10212000E3FF0346C80008308F4220440BD0AB4287
:102130000BD8FFF7D9FF0138A84201F10108E6D317
:102140004846BDE8F883AB42FAD9884501D04E1E17
:10215000DDE74FF000094846BDE8F883012807D0C5
:10216000022807D0044B00280CBF184600207047F7
:1021700002487047024870474D280008512800085F
:102180005528000830B5244B044683B08D1E3BB360
:10219000284601A9AFF30080E8B101992A46FFF76C
:1021A000ADFF0146B8B1FFF79FFF4B68A064012B5C
:1021B0002ED0002B27DB081DFFF796FF0023C4E974
:1021C00013030368002B12DBFFF78EFF034600208A
:1021D000236103B030BD00230920236103B030BD6B
:1021E0000E4B0F491846C91AC9100191D6E7C3F31F
:1021F0000360FFF7B3FF0028034614BF0020092047
:10220000236103B030BD0123081DC4E91303D8E7DF
:10221000002305202361DCE700000000F48B0008A8
:10222000348D0008036810B5DA07044606D49B070E
:1022300000F1480009D500F05DFC2368590709D575
:102240001A070ED5DB0613D510BD00F04BFC236832
:102250005907F5D404F1D00000F054FC23681A07A4
:10226000F0D404F5A87000F055FC2368DB06EBD42D
:1022700004F5E870BDE8104000F090BC09207047FC
:102280000346006800B11844704700BF704700BFA4
:1022900070B504460E462046316CFFF773FF0546C5
:1022A00098B9D6F840C03246214601202369C4F8C7
:1022B00014C098470828EED0072806D12846316C6C
:1022C000FFF7E4FF301D00F001FC00F09BFE00BFB3
:1022D0002DE9F0474FF0000AADF5727D0DF10C0EBF
:1022E00001F1040CC768D0F8188006461446BCE813
:1022F0000F00AEE80F00BCE80F00AEE80F00BCE82E
:102300000F00AEE80F009CE80F0002AD8EE80F0052
:10231000C5F800A021E02B6C4FF4F07229467361E0
:102320007AA800F0BDFE3146504633697AAA984734
:10233000889C82466C643346324649460120CDE98A
:102340000058B8470446F0B94FF4F07228467AA90D
:1023500000F0A6FEBAF1080F1BD13046296CFFF73A
:1023600011FF04F109095FFA89FA04460028D2D066
:10237000A96B3346696432460120CDE900584AF022
:102380001001B84700B1092420460DF5727DBDE863
:10239000F087BAF1070FF6D12046296CFFF776FFD8
:1023A00003A800F093FB00BF406C7047F0B54FF0FE
:1023B000FF37CB6BF9B00B6401AC01F1040C0E4696
:1023C0000546BCE80F000FC4BCE80F000FC4BCE812
:1023D0000F000FC49CE80F0084E80F00009706E090
:1023E0006A4629462B6998470828044608D128469A
:1023F0001099FFF7C7FE0028F2D0092079B0F0BD90
:102400006846FFF70FFF062CF7D131462846FFF745
:102410003FFF00BF10B414468461DC6BC160002232
:102420001C64194610BC53E770B54369C6680B6459
:10243000AEB90A46036904460D4601460220984794
:10244000072805D008280FD129462046FFF720FF8E
:102450003046296CFFF71AFF281D00F037FB0122D8
:10246000FFF736FF00F0CEFD00F0CCFDC2682AB1C8
:10247000D1F83CC00022C1F840C029E796E700BF70
:10248000704700BF836801460BB1012018477047B1
:10249000012912D009D873B90F2A0CD800EB820099
:1024A00042681846009B1A6070470339012994BF9F
:1024B000012002207047022070470846704700BF85
:1024C000002300B585B00A4603A900911946FFF71D
:1024D000DFFF039805B05DF804FB00BF012912D0AF
:1024E00009D873B90F2A0CD8009900EB8202096849
:1024F0001846516070470339012994BF012002201A
:102500007047022070470846704700BF002310B58F
:1025100084B003AC039200940A461946FFF7DEFF2D
:1025200004B010BD70B54FF0FF36D36BADF50E7D26
:1025300013640DF15C0E02F1040C05460C46BCE878
:102540000F00AEE80F00BCE80F00AEE80F00BCE8DB
:102550000F00AEE80F009CE80F008EE80F00169603
:1025600012E00C2116A86A46FFF7D0FF214616A8F4
:10257000A84778B969460820049B16AA98470528F9
:10258000064608D0092805D068462699FFF7FAFDC7
:102590000028E6D0092616A8FFF744FE30460DF5C0
:1025A0000E7D70BD2DE9F04F1E46CC6C89B054F8FD
:1025B000043B0D46174600F003080694002E79D020
:1025C00002228DF81C201A0C8DF81D201B04D2B29B
:1025D000059304EB82042B6DB8F1020F08BFAC6BBE
:1025E00013F001030CD0384605A900F071FB18B9AF
:1025F000082009B0BDE8F08F092009B0BDE8F08FD0
:10260000D4F800A0BAF1000FEDD0019300F0080358
:102610000293022E4AD0B4F800A0B4F80290043419
:10262000AA6C0F21384629F0010B9344FFF748FFAD
:10263000834539D82AF001025A44824294BF0020CF
:1026400001204FEA490303F002030AF0010A43EABA
:102650000A03012B49D0022B32D0002BCCD1B8F188
:10266000000F02D0002840F0CE800434D4F800A03F
:10267000BAF1000FCDD1384605A900F029FB00289A
:10268000BAD1019B002BB3D00F213846FFF718FFBA
:102690000E2102463846FFF739FF38460F216A4AB5
:1026A000FFF734FF0720A8E70020CAE7D4F804901A
:1026B0000834B5E71B0205930323ADF81C308AE705
:1026C000236823F0004BB8F1000F45D128B1029ADE
:1026D000002A5CD0BBF1000F74D0002B00DA043468
:1026E0000BF1010B04EB8B04C0E7B8F1000F19D11B
:1026F000B0B163682268991C4FEAD2723FF47CAF94
:1027000005F158010133049100F09180201DFFF77D
:10271000B7FD04AB01462846AFF3008000285CD12A
:102720000834A3E70D213846D5F82090FFF7C8FEFE
:102730008145F5D1AB6A9C42F2D12046FFF7D4FC2B
:102740000F2102463846FFF7E1FE38462A460021AF
:10275000FFF7DCFE072050E70D213846D5F8209022
:10276000FFF7AEFE814501D02368B6E7AB6A9C4215
:10277000FAD104230022C5E90B23E318C5F828B0D9
:102780006B632368002B5ADB01230193A8E705F153
:102790005803CDF80C809146B04604F1040A1E4659
:1027A0000EE050460496FFF76BFD0022014604AB95
:1027B000284609F101090AF1040AAFF30080E8B9DB
:1027C000D945EED10D213846FFF77AFE0346049A2B
:1027D0000620C5E909242B620FE781460D21384602
:1027E000FFF76EFEB9F1020F286225D12B46049A3D
:1027F00043F82C2F6B620620AC62FEE64646236847
:10280000DDF80C8069E72046FFF76EFC02460434D1
:10281000AC6328461446AFF3008000283FF4ECAECA
:10282000384622460F21FFF771FE0720E5E60D210D
:102830003846FFF745FE2862049B6B62DBE70BF12D
:10284000010004EB800079E7000000000023A9E606
:102850000123A7E60223A5E62DE9F0430646154627
:102860001C46C3B0042900F2B880DFE801F09C5692
:10287000B62D0300002C40F0B080102A00F2AD808D
:102880000368D80600F1F18020AF384600F090F9D7
:10289000012438460023B16B04FA03F22A4203F103
:1028A000010305D00A4652F804CB1146C0F800C017
:1028B000042B00F10400EFD13846B16300F06EF94B
:1028C000002043B0BDE8F083032C40F0868094B232
:1028D00004EB1243102B4FEA12457ED803681F0702
:1028E00000F1CB8020AF384600F036F9B26B07EB31
:1028F000C50154B10B4601EBC401D01AE4001D58C8
:1029000043F8045B8B42FAD122443846B26300F0AC
:1029100001F9002043B0BDE8F083012C4FEA1248D2
:1029200095B256D0052C58D108EB0509B9F1200F06
:1029300053D8B8F10F0F73D9A946002D40F0848009
:10294000B36B65B320AF4FF0000907EBC807043F36
:1029500003EBC50553F8041BAB4247F8041FF9D13C
:10296000B9F1000F0FD06F464146102938BF102132
:1029700007EBC101843903EBC90553F8040BAB42E3
:1029800041F8040FF9D1012C7FD0B8F10F0FB563D6
:1029900042D9B9F1000F02D0684600F0B3F8002028
:1029A00043B0BDE8F083C4B923460124826B371DD0
:1029B000A8B204FA03F101421CBF52F8041B47F805
:1029C00023100133102BF4D115F40050E7D1B2637A
:1029D00004E008EB0503102B03D9022043B0BDE847
:1029E000F083B8F10F0FF8D83368DA0706D5304610
:1029F00023F0030340F8483B00F078F820AF384656
:102A000000F074F8B36B002D9DD11D460435384697
:102A1000B56300F067F8C2E720A800F06BF8B8E7EC
:102A2000B9F1100F3FD9A9F110093368D90708D5BA
:102A3000304623F0010343F0020340F8483B00F026
:102A40005DF8B9F1000F31D033685A071FD4B8F1DF
:102A50000F0F24D96F46C8F11005384600F056F81C
:102A6000002DB36B80DD20AF6FE723F010033360E0
:102A700006F5E87000F09CF806E723F00803036011
:102A800000F5A87000F068F82CE720AFBEE73046EC
:102A900023F0040340F8D03B00F038F8D7E720A833
:102AA00000F02CF8D6E74FF00009BEE7B8F10F0FA1
:102AB0003FF646AF20AF384600F020F8B36B002D4C
:102AC0007FF441AF384600F015F868E700F13401B3
:102AD00091E838009C46A6464CF8045D90E8FF0F4C
:102AE000E54600BD90EC210B704700BF80EC210B48
:102AF000704700BF90EC200B704700BF80EC200BAC
:102B0000704700BFD0EC200B704700BFC0EC200B1B
:102B1000704700BFF0EC0201F0EC0211F0EC022172
:102B2000F0EC0231F0EC0241F0EC0251F0EC026109
:102B3000F0EC0271F0EC0281F0EC0291F0EC02A1F9
:102B4000F0EC02B1F0EC02C1F0EC02D1F0EC02E1E9
:102B5000F0EC02F1704700BFE0EC0201E0EC021182
:102B6000E0EC0221E0EC0231E0EC0241E0EC025149
:102B7000E0EC0261E0EC0271E0EC0281E0EC029139
:102B8000E0EC02A1E0EC02B1E0EC02C1E0EC02D129
:102B9000E0EC02E1E0EC02F1704700BFB0FC018123
:102BA000B0FC0191B0FC01A1B0FC01B1704700BFC5
:102BB000A0FC0181A0FC0191A0FC01A1A0FC01B13D
:102BC000704700BFEC4600B52DE900502DE9FF1F0E
:102BD0004FF000032DE90C0001A9FFF7E7FBDDF83A
:102BE00040E012B0704700BFEC4600B52DE9005040
:102BF0002DE9FF1F4FF000032DE90C0001A9FFF79D
:102C000013FCDDF840E012B0704700BFEC4600B5A1
:102C10002DE900502DE9FF1F4FF000032DE90C00B6
:102C200001A9FFF723FCDDF840E012B0704700BFB8
:102C3000EC4600B52DE900502DE9FF1F4FF00003D1
:102C40002DE90C0001ABFFF7E5FBDDF840E012B029
:102C5000704700BFEC4600B52DE900502DE9FF1F7D
:102C60004FF000032DE90C0001AAFFF75BFCDDF833
:102C700040E012B0704700BF027A03467AB9427A48
:102C8000A2B14FF0030C4168013A427208680A1D74
:102C90005A60020283F808C0000E1A60704700688C
:102CA000013A1A7202021A60000E7047B020704793
:102CB000002300B585B003A900910C221946FFF747
:102CC000E7FB039805B05DF804FB00BFF0E700BF29
:102CD0002DE9F0434FF0000805460E4685B030461A
:102CE000FFF7CAFFB028044600F0BA80070620D5D7
:102CF00000F0F003802B4DD0902B36D0A02B60D06D
:102D0000B02B73D0C02B00F08A8000F0F803D02BDA
:102D10000BD100F00702013205230121284642F4BD
:102D20000022FFF799FD0028D9D0092005B0BDE8A1
:102D3000F0838300DBB21F1D00230DF10C0919463F
:102D40000D222846CDF80090FFF7A2FB039B6006FA
:102D50004CBFDF1BFF1800230D2228461946CDF873
:102D600000900397FFF7BAFBB9E700F00D030D2BB6
:102D7000DBD0002303AF194600F00F02009728466E
:102D8000FFF786FB00230D22284619460097FFF720
:102D9000A5FBA4E73046FFF76FFF24022043B0F500
:102DA000004FC2D00023040119462846A2B2FFF703
:102DB00053FD0028B9D114F4004F18BF4FF001089B
:102DC0008DE7C3434FF47F6203F007031A410023EA
:102DD000010702F47F6248BF42F480422846194648
:102DE000FFF73AFD00283FF47AAF9EE7B1283CD0C8
:102DF000B22800F0B080B3284AD000F0FC03B42B16
:102E000093D0012300F007021A442846194642F4E1
:102E10000022FFF721FD00283FF461AF85E7C628B7
:102E20004FD0C72861D000F0F803C02B70D0C8285D
:102E30007CD0C9287FF479AF3046FFF71DFF05230A
:102E4000024601212846140302F00F0204F4702404
:102E50000A442243FFF700FD00283FF440AF64E737
:102E6000B8F1000F1CD0002060E73046FFF704FFE8
:102E7000024600283FF459AF10F0F0037FF455AF3D
:102E800019462846FFF7E8FC00283FF428AF4CE736
:102E90003046FFF7F1FE0123024619462846D2E7E5
:102EA00003AC43460E22414628460094FFF7F0FA51
:102EB00043460F22284641460094FFF70FFB404649
:102EC00034E73046FFF7D8FE02460323140302F02E
:102ED0000F0204F470240132284619462243FFF7FA
:102EE000BBFC00283FF4FBAE1FE73046FFF7C4FEF3
:102EF000024600283FF419AF10F0F0037FF415AF3D
:102F000004212846FFF7A8FC00283FF4E8AE0CE7B0
:102F1000032300F00F0201322846194642F4202212
:102F2000FFF79AFC00283FF4DAAEFEE63046FFF7E2
:102F3000A3FE0246012102F0F00402F00F02103459
:102F40000A440523284642EA0432FFF785FC00289C
:102F50003FF4C5AEE9E600230DF10C090D22194638
:102F60002846CDF80090FFF793FA3046FFF784FE2D
:102F700002064FF002040CD5039B00F07F00A04036
:102F8000184403903046FFF777FE030604F1070468
:102F9000F2D4039B00F07F02A24003F501731A44B0
:102FA0000023039228460D221946CDF80090FFF722
:102FB00095FA94E60B464FF0030C00B5C26C184628
:102FC000536885B00832029201A91A0E1B028DF8CF
:102FD0000CC001938DF80D20FFF77AFE05B05DF867
:102FE00004FB00BF08B5FFF771FE806C08BD00BF91
:102FF00008B5FFF76BFEC06CC379023300EB8300AA
:1030000008BD00BF062008B500F0B0F9012001F0AE
:103010001AF900BF002301461A46184600F092BA7A
:10302000014B1868704700BF0800002038B5084BF6
:10303000084D5B1B9C1007D0043B1D44013C55F818
:1030400004399847002CF9D1BDE8384005F060BD3F
:10305000408D00083C8D000870B50D4E0D4D761B5F
:10306000B61006D0002455F8043B01349847A64218
:10307000F9D1094E094D05F045FD761BB61006D075
:10308000002455F8043B01349847A642F9D170BD9D
:10309000348D0008348D00083C8D0008348D000804
:1030A000844641EA000313F0030349D1403A23D395
:1030B0000B6803604B6843608B688360CB68C360B8
:1030C0000B6903614B6943618B698361CB69C361A0
:1030D0000B6A03624B6A43628B6A8362CB6AC36288
:1030E0000B6B03634B6B43638B6B8363CB6BC36370
:1030F00040304031403ADBD230320BD30B680360B2
:103100004B6843608B688360CB68C36010301031BC
:10311000103AF3D20C3205D351F8043B40F8043B8B
:10312000043AF9D2043208D0D2071CBF11F8013B8F
:1031300000F8013B01D30B8803806046704700BF55
:10314000082A13D38B07B1D010F00303AED0C3F11C
:103150000403D21ADB071CBF11F8013B00F8013B46
:10316000A4D331F8023B20F8023B9FE7043AD9D3BD
:10317000013A11F8013B00F8013BF9D20B780370DA
:103180004B7843708B78837060467047830730B507
:1031900048D0541E002A3FD00346CAB201E0013C89
:1031A0003AD303F8012B9D07F9D1032C2DD9CDB2C9
:1031B00045EA05250F2C45EA054536D9A4F110024C
:1031C00022F00F0C03F1200EE6444FEA121C03F12B
:1031D000100242E9045542E9025510327245F8D115
:1031E0000CF1010214F00C0F03EB021204F00F0CAF
:1031F00013D0ACF1040323F003030433134442F867
:10320000045B9342FBD10CF003042CB1CAB21C4402
:1032100003F8012B9C42FBD130BD64461346002CC1
:10322000F4D1F9E703461446BFE71A46A446E0E79F
:1032300038B5D0F8DC420CB1002038BD80210546FD
:1032400000F0B2F90246C5F8DC0230B1031F7C324F
:1032500043F8044F9342FBD1EEE74FF0FF3038BD07
:103260001F29F8B5054609D8D0F8DC620C46174688
:103270004EB156F8240046F82470F8BD16234FF0DE
:10328000FF302B60F8BD802100F08EF90646C5F8AE
:10329000DC0240B10021031F00F17C0543F8041F4C
:1032A0009D42FBD1E5E74FF0FF30F8BD1F2938B54F
:1032B000054621D8D0F8DC220C466AB152F82130FC
:1032C00053B1012B16D0591C10D00025204642F8CE
:1032D00024509847284638BD284600F003F9224676
:1032E00001462846BDE8384000F0E8B81623012022
:1032F0002B6038BD002038BD16234FF0FF302B6007
:1033000038BD00BF1F292DD8D0F8DC2238B50C46B7
:10331000054682B152F8243002EB84024BB1591CAD
:103320001BD0012B17D00025204615609847284652
:1033300038BD012038BD802100F036F90246C5F8BD
:10334000DC0260B10020131F02F17C0143F8040F7E
:103350009942FBD1DEE7032038BD022038BD4FF093
:10336000FF3038BD4FF0FF30704700BF38B5154B08
:103370001F281D6820D8D5F8DC22044662B152F817
:1033800020304BB1012B15D0591C0FD0002542F82D
:1033900020509847284638BD284600F0A3F822461A
:1033A00001462846BDE8384000F088B816230120C1
:1033B0002B6038BD002038BD16234FF0FF302B6046
:1033C00038BD00BF08000020134B1F2870B51E68D1
:1033D00009D80D46D6F8DC12044649B151F824004C
:1033E00041F8245070BD16234FF0FF30336070BD9C
:1033F0008021304600F0D8F80146C6F8DC0240B122
:103400000022031F00F17C0C43F8042F6345FBD11D
:10341000E4E74FF0FF3070BD0800002038B50C4BDA
:103420001D68D5F8DC420CB1002038BD802128464B
:1034300000F0BAF8C5F8DC0238B1031F00F17C02D5
:1034400043F8044F9342FBD1EEE74FF0FF3038BD15
:103450000800002038B5184B1F281D6829D8D5F85A
:10346000DC22044682B152F8243002EB84024BB1D4
:10347000591C1CD0012B18D00025204615609847F8
:10348000284638BD012038BD8021284600F08CF840
:103490000246C5F8DC0260B10020131F02F17C0176
:1034A00043F8040F8B42FBD1DDE7032038BD022037
:1034B00038BD4FF0FF3038BD0800002070B5002641
:1034C000074D0446084611462E6000F0ACFE431C32
:1034D00000D070BD2B68002BFBD0236070BD00BFF7
:1034E0000C09002000F098BE20F0030110F003004A
:1034F000C0F1000051F8043B00F1040C4FEACC0C81
:103500006FF000021CBF22FA0CF213434FF0010CC3
:103510004CEA0C2C4CEA0C4CA3EB0C0222EA030202
:1035200012EACC1204BF51F8043B0430F4D0C2F1CB
:10353000000102EA0102B2FA82F2C2F11F0200EBBC
:10354000D200704770B5174C2568D5F84841DCB1FA
:1035500065681F2D23DC80B14FF0010C04EB850E54
:10356000CEF88820D4F888610CFA05F216430228B8
:10357000C4F88861CEF808310BD06B1C023563604B
:10358000002044F8251070BD05F5A674C5F8484123
:10359000DEE7D4F88C311343C4F88C31EDE74FF0FB
:1035A000FF3070BD308B00082DE9F04F01F10B05A5
:1035B000162D064683B025D8102900F2B88000F0F9
:1035C00099FA102518224FF0020CB74F3A4453686D
:1035D000A2F108018B4200F0B7805A68D96822F046
:1035E00003021A449C683046E1608C60516803F124
:1035F000080441F00101516000F07EFA204603B05A
:10360000BDE8F08F35F0070500F19180A94200F286
:103610008E8000F06FFAB5F5FC7FC0F090816B0AE8
:1036200000F08C80042B00F26681AB0903F1390CA9
:1036300003F138044FEACC009B4F38444368083804
:10364000984206D10CE0002980F22B81DB68984279
:1036500006D05A6822F00302511B0F29F3DDA4465D
:103660003C69DFF848E274457AD0626822F00302D0
:10367000531B0F2B00F37281002BC7E904EE80F27D
:103680006381B2F5007F80F015810121D3085209D2
:103690000B4491407A6857F833000A4307EBC301A3
:1036A0000839A060E1607A6047F83340C4600121C6
:1036B0004FEAAC039940914259D8114206D12CF0FF
:1036C000030C490011420CF1040CFAD007EBCC09B1
:1036D00048466446D0F80C80404508D118E1002BDC
:1036E00080F21D81D8F80C80404500F01181D8F897
:1036F000042022F00302531B0F2BF0DD08EB050121
:1037000045F00105C8F804503046D8E90264F46079
:10371000A66043F00104C7E904114C60C1E902EE60
:1037200048F8023000F0E8F908F1080402E00C2340
:1037300000243360204603B0BDE8F08F4FF40070E2
:103740004FF0400C3F2477E7D3689A4208BF0CF152
:10375000020C7FF442AF3C69DFF850E1744584D13C
:1037600001217A684FEAAC0399409142A5D9BC681F
:10377000636823F00308454503D8A8EB05030F2B26
:103780007FDCDFF82C91D7F80824D9F8003001321B
:103790002B4404EB080A00F02B8103F580530F3310
:1037A00023F47F6B2BF00F0B5946304600F0A6F93F
:1037B000411C024600F0EB80824500F2E680D9F819
:1037C000041059440B46C9F8041000F04681D7F89C
:1037D000081401311BBFA2EB0A0A5344C7F808249E
:1037E000C9F8043012F0070300F00C81C3F108019E
:1037F0000A44C3F5805193440831A1EB0B01C1F396
:103800000B0A514630460192009300F077F9421CB2
:10381000DDE9003200F04781831A03EB0A0BD9F887
:1038200004004BF001030AEB0001BC42BA60C9F886
:103830000410536000F01D81B8F10F0F40F21B819E
:103840004FF0050C6368A8F10C0020F0070003F0AE
:103850000103034363600F2804EB0003C3E901CCB9
:1038600000F2288114465368D9F82C208A42D9F8EE
:10387000302038BFC9F82C108A4238BFC9F8301040
:1038800087E0621943F0010345F0010565603046A9
:10389000BA600834536000F02FF9204603B0BDE849
:1038A000F08FD9681A449DE63804002040040020B7
:1038B000D8080020B2F5206F4FEA52235FD3142BB3
:1038C00000F2B28003F15C01C9005B3378187958CB
:1038D0000838884200F08F804B6823F0030393423E
:1038E00002D989688842F7D1C8687A68C4E90210A9
:1038F0008460CC60DBE6142B59D9542B00F29C80F9
:103900002B0B03F16F0C03F16E044FEACC0093E62E
:103910000134A30700F108007FF4DCAE53E0444615
:1039200042445368D8F80C1043F00103536054F834
:10393000083F3046D9608B6000F0DEF8FAE64FEAC7
:10394000D50C05F1080240E622445368304643F0A6
:103950000103536000F0D0F80834EBE6611945F03C
:103960000105656043F00105C7E904113046C1E96E
:1039700002EE4D60A35000F0BFF80834DAE6930978
:1039800003F13901C9003833A0E7BC425FD0BC68FD
:10399000636823F0030B5D45ABEB050302D80F2BE7
:1039A0003FF76FAF304600F0A7F80024C2E603F1FE
:1039B0005C0C03F15B044FEACC003DE659F8083992
:1039C0004B4540F095801CF0030F0CF1FF3CF5D106
:1039D0007B6823EA01037B60490099423FF6C7AE4A
:1039E00011B9C4E6490004341942FBD0A4466DE67F
:1039F00003F1100BD8E601229B109A407B681A4312
:103A00007A6073E702EB0B014942C1F30B0A51469E
:103A100030460193009200F071F8431CDDE9002369
:103A20007FF4FAAE9A46FAE6542B27D8130B03F12B
:103A30006F01C9006E3349E7B3F5AA7F27D8EB0BB6
:103A400003F1780C03F177044FEACC00F4E5D9F8E0
:103A500004305B44C9F80430B9E6CAF30B0000280F
:103A60007FF4B5AEBC6808EB0B0343F00103636061
:103A7000FAE61446F8E60123536093E7B3F5AA7F0C
:103A800022D8D30B03F17801C90077331EE740F247
:103A90005452934222D8AB0C03F17D0C03F17C0409
:103AA0004FEACC00C8E5083B9B444FF0000AABEB63
:103AB000020BB4E604F10801304600F081F8BC685E
:103AC000D9F804106368CFE640F254518B420BD80A
:103AD000930C03F17D01C9007C33F7E64FF47E704F
:103AE0004FF07F0C7E24A7E54FF47E717E23EDE638
:103AF0007B6871E7704700BF704700BF002238B590
:103B0000064D044608462A6000F0A8FB431C00D07E
:103B100038BD2B68002BFBD0236038BD0C0900207A
:103B2000F8B50C46234F0646FFF7E4FFBB685D6817
:103B3000C4F57E6325F003050F332B4423F47F6324
:103B400023F00F03A3F58054B4F5805F07DB002159
:103B50003046FFF7D3FFBB682B44984204D0304671
:103B6000FFF7CAFF0020F8BD30466142FFF7C6FFED
:103B700001300DD0104ABB682D1B45F001055D607A
:103B8000136830461B1B1360FFF7B6FF0120F8BD1A
:103B900000213046FFF7B2FFBA68831A0F2BDEDD33
:103BA00043F001035360054B03491B68C01A0860CA
:103BB000D5E700BF38040020DC08002040080020C2
:103BC00000295ED0F8B50C460646FFF793FF54F87F
:103BD000042C784FA4F1080522F001016818D7F8E9
:103BE00008C04368844523F0030300F08780D207B0
:103BF000436034D454F8082C07F10804AD1A11447A
:103C0000AA68A24268D000EB030CDCF804E0D5F807
:103C10000CC01EF0010FC2F80CC0CCF8082000F058
:103C2000918041F001036B600160B1F5007F31D2FA
:103C30004A09CB08012191407A6801331143796028
:103C400007EBC30257F83310083AC5E9021247F8E8
:103C50003350CD603046BDE8F840FFF74DBFC21885
:103C60005268D2070ED4194407F108048368A342AE
:103C700070D0C268DA60936041F001036B606950F4
:103C8000D3E7704741F00103B1F5007F44F8043CED
:103C90000160CDD3B1F5206F4FEA512347D28B0994
:103CA00003F1390003F13802C300F818FB58083853
:103CB000984258D05A6822F003028A4202D99B687F
:103CC0009842F7D1D868C5E9023085603046DD609A
:103CD000BDE8F840FFF710BFC2185268D20763D49E
:103CE0000B44D0E90212CA60916043F001026A609D
:103CF0003046EB50BDE8F840FFF7FEBE0B44D1075D
:103D000007D454F8082CAD1A1344D5E90212CA603E
:103D1000916043F001026A60274ABD6012689A42CE
:103D200098D8264B30461968FFF7FAFE92E7142B15
:103D30000AD9542B1FD80B0B03F16F0003F16E024D
:103D4000C300B2E7194491E703F15C0003F15B02A1
:103D5000C300AAE741F00103C7E90455C5E90244DD
:103D60006B60695076E70121921001FA02F27968DE
:103D70000A437A60A7E7B3F5AA7F06D8CB0B03F115
:103D8000780003F17702C3008FE740F25452934268
:103D900006D88B0C03F17D0003F17C02C30084E79D
:103DA0004FF47E737E2280E741F001036B60016077
:103DB00050E700BF3804002044080020D808002045
:103DC00080B500AF174B184A1A60164B02225A6092
:103DD000144B00229A60134B0022DA60114B4FF40F
:103DE00050221A610F4B4FF400125A610D4B002202
:103DF0001A760C4B01225A760A4B00229A76094B0E
:103E00000022DA76074B00221A77064B00225A77F7
:103E1000044800F0D5FB0346002B01D000F074F9F4
:103E200000BF80BD100900200064004080B588B04C
:103E300000AF786007F1100300221A605A609A60A0
:103E4000DA607B681B68244A934241D1234BDB69CB
:103E5000224A43F00073D361204BDB6903F0007307
:103E6000FB60FB681D4B9B691C4A43F00403936194
:103E70001A4B9B6903F00403BB60BB684FF40063FB
:103E80003B6100237B610023BB6107F110031946EE
:103E9000134801F095FB4FF480533B6102237B6193
:103EA0000323FB6107F1100319460D4801F088FB5D
:103EB00000220021142001F09AFA142001F0B3FA34
:103EC00000220021152001F092FA152001F0ABFA32
:103ED00000BF2037BD4680BD006400400010024096
:103EE0000008014080B588B000AF07F11003002240
:103EF0001A605A609A60DA601E4B9B691D4A43F053
:103F0000200393611B4B9B6903F02003FB60FB685C
:103F1000184B9B69174A43F004039361154B9B6947
:103F200003F00403BB60BB68124B9B69114A43F06A
:103F3000080393610F4B9B6903F008037B607B6868
:103F400000224FF480710C4801F0BEFC4FF48073E6
:103F50003B6101237B610023BB610223FB6107F10D
:103F600010031946044801F02BFB00BF2037BD4663
:103F700080BD00BF00100240000C014080B500AFC2
:103F8000124B134A1A60114B124A5A600F4B00220F
:103F90009A600E4B0022DA600C4B4FF480421A619B
:103FA0000A4B00225A61094B00229A61074B0022FA
:103FB000DA61064B00221A62044801F0B7FC03469E
:103FC000002B01D000F0A0F800BF80BD3809002010
:103FD00000540040A086010080B588B000AF786032
:103FE00007F1100300221A605A609A60DA607B6859
:103FF0001B68154A934223D1144B9B69134A43F023
:1040000008039361114B9B6903F00803FB60FB6895
:10401000C0233B6112237B610323FB6107F1100383
:1040200019460B4801F0CCFA084BDB69074A43F408
:104030000013D361054BDB6903F40013BB60BB685D
:1040400000BF2037BD4680BD005400400010024034
:10405000000C014080B500AF00F050FA00F00FF8FE
:10406000FFF740FFFFF78AFFFFF7AAFE00F0A2F973
:1040700000F030F904F0E6FC04F0F6FCFCE780B553
:1040800090B000AF07F11803282200211846FFF76F
:104090007DF83B1D00221A605A609A60DA601A614E
:1040A0000123BB614FF48033FB6100233B6201239A
:1040B000BB6202237B634FF48033BB634FF4E01396
:1040C000FB6307F11803184602F064FC0346002B5B
:1040D00001D000F019F80F237B600223BB6000239E
:1040E000FB604FF480633B6100237B613B1D022139
:1040F000184602F0D1FE0346002B01D000F004F870
:1041000000BF4037BD4680BD80B400AF72B600BF6F
:10411000FEE7000080B485B000AF154B9B69144AE0
:1041200043F001039361124B9B6903F00103BB60F1
:10413000BB680F4BDB690E4A43F08053D3610C4BD5
:10414000DB6903F080537B607B680A4B5B68FB6034
:10415000FB6823F0E063FB60FB6843F00073FB60E7
:10416000044AFB68536000BF1437BD4680BC7047EB
:10417000001002400000014080B400AFFEE780B4B0
:1041800000AFFEE780B400AFFEE780B400AFFEE70B
:1041900080B400AFFEE780B400AF00BFBD4680BC76
:1041A000704780B400AF00BFBD4680BC704780B48C
:1041B00000AF00BFBD4680BC704780B500AF00F0C7
:1041C000E3F900BF80BD000080B500AF024800F0F9
:1041D00014FE00BF80BD00BF1009002080B500AFF5
:1041E000024800F00AFE00BF80BD00BF1009002099
:1041F00080B500AF024803F07FF800BF80BD00BF6C
:104200009009002080B500AF024803F057FC00BFC2
:1042100080BD00BFD809002080B400AF012318463C
:10422000BD4680BC704780B582B000AF7860396011
:10423000FEF7F6FE034616221A604FF0FF331846CB
:104240000837BD4680BD80B582B000AF78604FF0C2
:10425000FF317868FFF7E7FFFEE7000080B586B022
:1042600000AF7860144A154BD31A7B617B693B61C0
:10427000134B1B68002B02D1114B124A1A60104BD2
:104280001A687B6813443A699A4207D2FEF7C8FE5F
:1042900003460C221A604FF0FF3309E0084B1B68FD
:1042A000FB60074B1A687B681344054A1360FB6880
:1042B00018461837BD4680BD00500020000400009D
:1042C0008C090020800A002080B400AF00BFBD46EA
:1042D00080BC704780B586B000AF07F108030022AC
:1042E0001A605A609A60DA603B4600221A605A608F
:1042F0001D4B4FF080421A601B4B47225A601A4BED
:1043000000229A60184B40F2E732DA60164B002226
:104310001A61154B00229A61134802F04BFF0346C5
:10432000002B01D0FFF7F0FE4FF48053BB6007F184
:10433000080319460C4803F0E7F80346002B01D0A8
:10434000FFF7E2FE00233B6000237B603B461946FB
:10435000054803F0BDFA0346002B01D0FFF7D4FE59
:1043600000BF1837BD4680BD9009002080B584B0DD
:1043700000AF78607B681B68B3F1804F13D10C4BA2
:10438000DB690B4A43F00103D361094BDB6903F09E
:104390000103FB60FB68002200211C2001F027F8CC
:1043A0001C2001F040F800BF1037BD4680BD00BFA3
:1043B0000010024080B500AF114B124A1A60104B3A
:1043C0004FF4E1325A600E4B00229A600C4B0022EF
:1043D000DA600B4B00221A61094B0C225A61084B20
:1043E00000229A61064B0022DA61054803F0E0FAE8
:1043F0000346002B01D0FFF787FE00BF80BD00BF42
:10440000D80900200038014080B588B000AF78603E
:1044100007F1100300221A605A609A60DA607B6824
:104420001B68204A934239D11F4B9B691E4A43F4B3
:10443000804393611C4B9B6903F48043FB60FB68E2
:10444000194B9B69184A43F004039361164B9B690F
:1044500003F00403BB60BB684FF400733B610223AD
:104460007B610323FB6107F1100319460F4801F03C
:10447000A7F84FF480633B6100237B610023BB619D
:1044800007F110031946094801F09AF800220021AB
:10449000252000F0ACFF252000F0C5FF00BF20372D
:1044A000BD4680BD003801400010024000080140B8
:1044B000FFF70AFF0B480C490C4A002302E0D458CE
:1044C000C4500433C4188C42F9D3094A094C002360
:1044D00001E013600432A242FBD3FEF7BDFDFFF7FB
:1044E000B9FD704700000020BC080020408D000886
:1044F000BC0800207C0A0020FEE7000080B500AF69
:10450000084B1B68074A43F010031360032000F0B8
:1045100063FF0F2000F008F8FFF7FCFD00231846AA
:1045200080BD00BF0020024080B582B000AF78603F
:10453000124B1A68124B1B7819464FF47A73B3FB6F
:10454000F1F3B2FBF3F3184600F07BFF0346002BB8
:1045500001D001230EE07B680F2B0AD80022796876
:104560004FF0FF3000F043FF064A7B6813600023E2
:1045700000E0012318460837BD4680BD48080020EA
:10458000500800204C08002080B400AF054B1B7879
:104590001A46054B1B681344034A136000BFBD460F
:1045A00080BC704750080020200A002080B400AF73
:1045B000024B1B681846BD4680BC7047200A00208D
:1045C00080B584B000AF78607B68002B01D10123F7
:1045D000EDE07B6893F82030DBB2002B02D17868E5
:1045E000FFF724FC7B681B681A687B681B6842F035
:1045F00001021A60FFF7DAFFF86012E0FFF7D6FF5A
:104600000246FB68D31A0A2B0BD97B685B6A43F41A
:1046100000327B685A627B68052283F820200123E0
:10462000C5E07B681B685B6803F00103002BE5D0E5
:104630007B681B681A687B681B6822F002021A609C
:10464000FFF7B4FFF86012E0FFF7B0FF0246FB6827
:10465000D31A0A2B0BD97B685B6A43F400327B6860
:104660005A627B68052283F8202001239FE07B6843
:104670001B685B6803F00203002BE5D17B681B7E9F
:10468000012B08D17B681B681A687B681B6842F0A5
:1046900080021A6007E07B681B681A687B681B68E9
:1046A00022F080021A607B685B7E012B08D17B6858
:1046B0001B681A687B681B6842F040021A6007E0BA
:1046C0007B681B681A687B681B6822F040021A60CE
:1046D0007B689B7E012B08D17B681B681A687B680E
:1046E0001B6842F020021A6007E07B681B681A68AA
:1046F0007B681B6822F020021A607B68DB7E012B3E
:1047000008D17B681B681A687B681B6822F010025E
:104710001A6007E07B681B681A687B681B6842F0B8
:1047200010021A607B681B7F012B08D17B681B6815
:104730001A687B681B6842F008021A6007E07B6811
:104740001B681A687B681B6822F008021A607B6885
:104750005B7F012B08D17B681B681A687B681B682C
:1047600042F004021A6007E07B681B681A687B68E5
:104770001B6822F004021A607B689A687B68DB6819
:104780001A437B681B691A437B685B6942EA030131
:104790007B685B685A1E7B681B680A43DA617B682A
:1047A00000225A627B68012283F8202000231846E9
:1047B0001037BD4680BD80B487B000AF78603960E7
:1047C0007B681B687B617B6893F82030FB74FB7C03
:1047D000012B03D0FB7C022B40F0AA807B69D3F82D
:1047E000003243F001027B69C3F800223B685B6939
:1047F00003F01F03012202FA03F3FB607B69D3F885
:104800001C22FB68DB431A407B69C3F81C223B680F
:10481000DB69002B23D17B69D3F80C22FB68DB43D7
:104820001A407B69C3F80C223B68DB6819043B68BB
:104830005B689BB23A68526919437B69483243F816
:1048400032103B689B6819043B681B689AB23B684E
:104850005B690A4379694833DB000B445A603B6863
:10486000DB69012B22D17B69D3F80C22FB681A4348
:104870007B69C3F80C223B681B6819043B685B68C2
:104880009BB23A68526919437B69483243F8321047
:104890003B689B6819043B68DB689AB23B685B69BC
:1048A0000A4379694833DB000B445A603B689B69D3
:1048B000002B09D17B69D3F80422FB68DB431A4043
:1048C0007B69C3F8042207E07B69D3F80422FB6804
:1048D0001A437B69C3F804223B681B69002B09D18A
:1048E0007B69D3F81422FB68DB431A407B69C3F869
:1048F000142207E07B69D3F81422FB681A437B6912
:10490000C3F814223B681B6A012B07D17B69D3F8DB
:104910001C22FB681A437B69C3F81C227B69D3F80D
:10492000003223F001027B69C3F80022002306E075
:104930007B685B6A43F480227B685A6201231846D5
:104940001C37BD4680BC704780B584B000AF78602E
:104950007B6893F82030DBB2012B2ED17B680222DA
:1049600083F820207B681B681A687B681B6822F02C
:1049700001021A60FFF71AFEF86012E0FFF716FE58
:104980000246FB68D31A0A2B0BD97B685B6A43F497
:1049900000327B685A627B68052283F8202001235D
:1049A00012E07B681B685B6803F00103002BE5D114
:1049B0007B6800225A62002306E07B685B6A43F44E
:1049C00000227B685A62012318461037BD4680BD1D
:1049D00080B489B000AFF860B9607A603B60FB6872
:1049E00093F82030FB77FB681B689B68BB61FB7FFB
:1049F000012B03D0FB7F022B40F0AD80BB6903F09D
:104A00008063002B0AD1BB6903F00063002B05D142
:104A1000BB6903F08053002B00F09580BB691B0E2F
:104A200003F003037B6101227B699A403B681A60B3
:104A3000BB689B68002B0DD1BB681B685A05BB681F
:104A4000DB68F96809681A437B6918331B010B445A
:104A50001A600FE0BB685B68DA00BB689B681A43AA
:104A6000BB68DB68F96809681A437B6918331B0166
:104A70000B441A60FB681968BB681A697B691833B4
:104A80001B010B4404331A60BB681B7D012B11D141
:104A9000FB681A687B6918331B01134404331B68D5
:104AA000FA68116843F480727B6918331B010B4468
:104AB00004331A607B6807331B781A067B68063359
:104AC0001B781B041A437B6805331B781B021343B6
:104AD0007A68043212781046FA68116843EA0002D4
:104AE0007B691B010B4403F5C6731A607B680333B3
:104AF0001B781A067B6802331B781B041A437B68F9
:104B000001331B781B0213437A6812781046FA6847
:104B1000116843EA00027B691B010B4403F5C4736F
:104B20001A60FB681A687B6918331B0113441B6801
:104B3000FA68116843F001027B6918331B010B44CA
:104B40001A6000230EE0FB685B6A43F40012FB6806
:104B50005A62012306E0FB685B6A43F48022FB682B
:104B60005A62012318462437BD4680BC704780B482
:104B700087B000AFF860B9607A603B60FB6893F87B
:104B80002030FB75FB7D012B03D0FB7D022B40F019
:104B90000381BB68002B0ED1FB681B68DB6803F048
:104BA0000303002B16D1FB685B6A43F40012FB6819
:104BB0005A620123F7E0FB681B681B6903F00303DB
:104BC000002B07D1FB685B6A43F40012FB685A6252
:104BD0000123E8E0FB681A68BB681B331B01134420
:104BE0001B6803F004027B689A607B689B68002B5B
:104BF0000CD1FB681A68BB681B331B0113441B688C
:104C00005B0DC3F30A027B681A600BE0FB681A684D
:104C1000BB681B331B0113441B68DB0823F0604295
:104C20007B685A60FB681A68BB681B331B0113441E
:104C30001B6803F002027B68DA60FB681A68BB68D5
:104C40001B331B01134404331B6803F00803002BC0
:104C500003D07B6808221A610BE0FB681A68BB6806
:104C60001B331B01134404331B6803F00F027B68E2
:104C70001A61FB681A68BB681B331B0113440433B9
:104C80001B681B0ADAB27B689A61FB681A68BB680A
:104C90001B331B01134404331B681B0C9AB27B6843
:104CA0005A61FB681A68BB681B01134403F5DC7387
:104CB0001B68DAB23B681A70FB681A68BB681B0194
:104CC000134403F5DC731B681A0A3B680133D2B244
:104CD0001A70FB681A68BB681B01134403F5DC7388
:104CE0001B681A0C3B680233D2B21A70FB681A6850
:104CF000BB681B01134403F5DC731B681A0E3B6889
:104D00000333D2B21A70FB681A68BB681B011344E4
:104D100003F5DE731A683B680433D2B21A70FB687D
:104D20001A68BB681B01134403F5DE731B681A0A7B
:104D30003B680533D2B21A70FB681A68BB681B0166
:104D4000134403F5DE731B681A0C3B680633D2B2BA
:104D50001A70FB681A68BB681B01134403F5DE7305
:104D60001B681A0E3B680733D2B21A70BB68002B5F
:104D700008D1FB681B68DA68FB681B6842F02002F8
:104D8000DA6007E0FB681B681A69FB681B6842F081
:104D900020021A61002306E0FB685B6A43F480226C
:104DA000FB685A62012318461C37BD4680BC704719
:104DB00080B485B000AF786039607B6893F82030AC
:104DC000FB73FB7B012B02D0FB7B022B09D17B68A1
:104DD0001B6859697B681B683A680A435A6100235B
:104DE00006E07B685B6A43F480227B685A62012399
:104DF00018461437BD4680BC704780B58AB000AFF6
:104E0000786000237B627B681B685B693B627B6820
:104E10001B685B68FB617B681B689B68BB617B6888
:104E20001B68DB687B617B681B681B693B617B6877
:104E30001B689B69FB603B6A03F00103002B7CD07D
:104E4000BB6903F00103002B23D07B681B680122A0
:104E50009A60BB6903F00203002B03D0786800F06E
:104E600083F916E0BB6903F00403002B04D07B6ACE
:104E700043F400637B620CE0BB6903F00803002B82
:104E800004D07B6A43F480537B6202E0786800F0D0
:104E900086F9BB6903F48073002B24D07B681B6800
:104EA0004FF480729A60BB6903F40073002B03D047
:104EB000786800F062F916E0BB6903F48063002BA8
:104EC00004D07B6A43F400537B620CE0BB6903F4BB
:104ED0000063002B04D07B6A43F480437B6202E0D2
:104EE000786800F065F9BB6903F48033002B24D0A7
:104EF0007B681B684FF480329A60BB6903F400330F
:104F0000002B03D0786800F041F916E0BB6903F488
:104F10008023002B04D07B6A43F400437B620CE0C7
:104F2000BB6903F40023002B04D07B6A43F4803375
:104F30007B6202E0786800F044F93B6A03F0080302
:104F4000002B0CD07B6903F01003002B07D07B6A89
:104F500043F400737B627B681B681022DA603B6A53
:104F600003F00403002B0BD07B6903F00803002B34
:104F700006D07B681B680822DA60786800F02AF99E
:104F80003B6A03F00203002B09D07B681B68DB68D7
:104F900003F00303002B02D0786803F0D1FA3B6AD8
:104FA00003F04003002B0CD03B6903F01003002BEF
:104FB00007D07B6A43F480637B627B681B681022A6
:104FC0001A613B6A03F02003002B0BD03B6903F00E
:104FD0000803002B06D07B681B6808221A617868DA
:104FE00000F00AF93B6A03F01003002B09D07B683C
:104FF0001B681B6903F00303002B02D0786800F0E4
:10500000F2F83B6A03F40033002B0BD0FB6903F08A
:105010001003002B06D07B681B6810225A6078684A
:1050200000F0F3F83B6A03F48033002B0BD0FB69EC
:1050300003F00803002B06D07B681B6808225A6027
:10504000786800F0EBF83B6A03F40043002B7BD058
:10505000FB6903F00403002B72D03B6A03F48073F6
:10506000002B08D0FB6803F00103002B03D07B6A00
:1050700043F001037B623B6A03F40073002B08D00A
:10508000FB6803F00203002B03D07B6A43F00203AA
:105090007B623B6A03F48063002B08D0FB6803F05B
:1050A0000403002B03D07B6A43F004037B623B6A5A
:1050B00003F40063002B43D0FB6803F07003002B64
:1050C0003ED0FB6803F07003602B2BD0602B2ED8F2
:1050D000502B22D0502B2AD8402B19D0402B26D829
:1050E000302B10D0302B22D8102B02D0202B05D003
:1050F0001DE07B6A43F008037B6219E07B6A43F0A2
:1051000010037B6214E07B6A43F020037B620FE0B4
:105110007B6A43F040037B620AE07B6A43F08003D2
:105120007B6205E07B6A43F480737B6200E000BF32
:105130007B681B689A697B681B6822F070029A6121
:105140007B681B6804225A607B6A002B08D07B684E
:105150005A6A7B6A1A437B685A62786800F067F87B
:1051600000BF2837BD4680BD80B483B000AF7860F3
:1051700000BF0C37BD4680BC704780B483B000AF21
:10518000786000BF0C37BD4680BC704780B483B0E8
:1051900000AF786000BF0C37BD4680BC704780B45C
:1051A00083B000AF786000BF0C37BD4680BC70474D
:1051B00080B483B000AF786000BF0C37BD4680BCC0
:1051C000704780B483B000AF786000BF0C37BD4635
:1051D00080BC704780B483B000AF786000BF0C37EC
:1051E000BD4680BC704780B483B000AF786000BF1C
:1051F0000C37BD4680BC704780B483B000AF786088
:1052000000BF0C37BD4680BC704780B483B000AF90
:10521000786000BF0C37BD4680BC704780B483B057
:1052200000AF786000BF0C37BD4680BC704780B4CB
:1052300083B000AF786000BF0C37BD4680BC7047BC
:1052400080B485B000AF78607B6803F00703FB6033
:105250000C4BDB68BB60BA684FF6FF031340BB60C2
:10526000FB681A02BB68134343F0BF6343F4003387
:10527000BB60044ABB68D36000BF1437BD4680BC26
:10528000704700BF00ED00E080B400AF044BDB6866
:105290001B0A03F007031846BD4680BC704700BFD9
:1052A00000ED00E080B483B000AF0346FB7197F9D6
:1052B0000730002B0BDBFB7903F01F02064997F93F
:1052C00007305B09012000FA02F241F8232000BFF9
:1052D0000C37BD4680BC704700E100E080B483B06D
:1052E00000AF03463960FB7197F90730002B0ADBEA
:1052F0003B68DAB20C4997F907301201D2B20B447D
:1053000083F800230AE03B68DAB20849FB7903F02E
:105310000F03043B1201D2B20B441A7600BF0C37C4
:10532000BD4680BC704700BF00E100E000ED00E03A
:1053300080B489B000AFF860B9607A60FB6803F0B0
:105340000703FB61FB69C3F10703042B28BF042398
:10535000BB61FB690433062B02D9FB69033B00E008
:1053600000237B614FF0FF32BB6902FA03F3DA439B
:10537000BB681A407B699A404FF0FF317B6901FAA4
:1053800003F3D9437B680B40134318462437BD46CB
:1053900080BC704780B582B000AF78607B68013B0D
:1053A000B3F1807F01D301230FE00A4A7B68013B00
:1053B00053600F214FF0FF30FFF790FF054B0022A5
:1053C0009A60044B07221A60002318460837BD462E
:1053D00080BD00BF10E000E080B582B000AF786013
:1053E0007868FFF72DFF00BF0837BD4680BD80B548
:1053F00086B000AF0346B9607A60FB7300237B611F
:10540000FFF742FF78617A68B9687869FFF790FF23
:10541000024697F90F3011461846FFF75FFF00BFAD
:105420001837BD4680BD80B582B000AF0346FB7122
:1054300097F907301846FFF735FF00BF0837BD461C
:1054400080BD80B582B000AF78607868FFF7A2FFBA
:10545000034618460837BD4680BD80B485B000AF0E
:1054600078600023FB737B6893F82130DBB2022B5A
:1054700008D07B6804229A637B68002283F820208E
:10548000012320E07B681B681A687B681B6822F098
:105490000E021A607B681B681A687B681B6822F022
:1054A00001021A607B681A6C7B68DB6B012101FAD0
:1054B00002F25A607B68012283F821207B68002277
:1054C00083F82020FB7B18461437BD4680BC70470C
:1054D00080B584B000AF78600023FB737B6893F8DD
:1054E0002130DBB2022B05D07B6804229A630123B2
:1054F000FB7351E07B681B681A687B681B6822F0AD
:105500000E021A607B681B681A687B681B6822F0B1
:1055100001021A607B681B68224A934229D07B688B
:105520001B68214A934222D07B681B681F4A934222
:105530001AD07B681B681E4A934212D07B681B6896
:105540001C4A93420AD07B681B681B4A934202D1D3
:105550004FF480130EE04FF080730BE04FF4803374
:1055600008E04FF4805305E04FF4807302E010230D
:1055700000E00123114A53607B68012283F8212057
:105580007B68002283F820207B685B6B002B03D0B4
:105590007B685B6B78689847FB7B18461037BD4685
:1055A00080BD00BF080002401C00024030000240E5
:1055B00044000240580002406C00024000000240DB
:1055C00080B48BB000AF7860396000237B62002329
:1055D0003B6269E101227B6A02FA03F3FB613B68EB
:1055E0001B68FA691340BB61BA69FB699A4240F0D3
:1055F00058813B685B689A4A93425ED0984A9342CE
:1056000075D8984A934258D0964A93426FD8964A92
:10561000934252D0944A934269D8944A93424CD0D0
:10562000924A934263D8924A934246D0904A934218
:105630005DD8122B2AD8122B59D801A252F823F088
:10564000BB56000895560008A7560008E956000802
:10565000EF560008EF560008EF560008EF56000816
:10566000EF560008EF560008EF560008EF56000806
:10567000EF560008EF560008EF560008EF560008F6
:10568000EF5600089D560008B1560008794A93422B
:1056900013D02CE03B68DB683B6229E03B68DB68A9
:1056A00004333B6224E03B68DB6808333B621FE065
:1056B0003B68DB680C333B621AE03B689B68002B5D
:1056C00002D104233B6213E03B689B68012B05D1A8
:1056D00008233B627B68FA691A6109E008233B6290
:1056E0007B68FA695A6103E000233B6200E000BF77
:1056F000BB69FF2B01D87B6801E07B6804337B61C9
:10570000BB69FF2B02D87B6A9B0002E07B6A083BE7
:105710009B003B617B691A680F213B6901FA03F327
:10572000DB431A40396A3B6901FA03F31A437B6988
:105730001A603B685B6803F08053002B00F0B18077
:105740004D4B9B694C4A43F0010393614A4B9B6963
:1057500003F00103BB60BB68484A7B6A9B080233C5
:1057600052F82330FB607B6A03F003039B000F2297
:1057700002FA03F3DB43FA681340FB607B68404A9C
:10578000934213D07B683F4A93420DD07B683E4AD8
:10579000934207D07B683D4A934201D1032306E040
:1057A000042304E0022302E0012300E000237A6ADC
:1057B00002F0030292009340FA681343FB602F4902
:1057C0007B6A9B080233FA6841F823203B685B68D8
:1057D00003F48013002B06D02D4B9A682C49BB692B
:1057E00013438B6006E02A4B9A68BB69DB43284968
:1057F00013408B603B685B6803F40013002B06D0FA
:10580000234BDA682249BB691343CB6006E0204B87
:10581000DA68BB69DB431E491340CB603B685B68B9
:1058200003F40033002B06D0194B5A681849BB69A2
:1058300013434B6006E0164B5A68BB69DB431449BF
:1058400013404B603B685B6803F48033002B21D02E
:105850000F4B1A680E49BB6913430B6021E000BF70
:105860000000321000003110000022100000211052
:105870000000121000001110001002400000014052
:1058800000080140000C01400010014000140140DC
:10589000000401400B4B1A68BB69DB430949134004
:1058A0000B607B6A01337B623B681A687B6A22FA71
:1058B00003F3002B7FF48EAE00BF00BF2C37BD4634
:1058C00080BC70470004014080B483B000AF7860B2
:1058D0000B467B8013467B707B78002B03D07A8845
:1058E0007B681A6103E07B881A047B681A6100BF39
:1058F0000C37BD4680BC704780B485B000AF78607F
:105900000B467B807B68DB68FB607A88FB68134012
:105910001A04FB68D9437B880B401A437B681A61E1
:1059200000BF1437BD4680BC7047000080B584B00E
:1059300000AF78607B68002B01D101232BE17B68ED
:1059400093F83D30DBB2002B06D17B68002283F850
:105950003C207868FEF740FB7B68242283F83D20DA
:105960007B681B681A687B681B6822F001021A605A
:105970007B681B681A687B681B6842F400421A60E7
:105980007B681B681A687B681B6822F400421A60F7
:1059900001F0CAFBF8607B685B68814A934207D8D4
:1059A000FB68804A934294BF01230023DBB206E0E8
:1059B000FB687D4A934294BF01230023DBB2002B96
:1059C00001D00123E7E0FB68784AA2FB03239B0C8C
:1059D000BB607B681B685B6823F03F017B681B68CA
:1059E000BA680A435A607B681B681B6A23F03F0150
:1059F0007B685B686A4A934202D8BB68013309E05E
:105A0000BB684FF4967202FB03F3694AA2FB0323BF
:105A10009B0901337A6812680B4313627B681B6829
:105A2000DB6923F44F4222F0FF027B685B685C492C
:105A30008B4219D8FB68591E7B685B685B00B1FB21
:105A4000F3F3591C40F6FC730B40002B0AD0FB68A3
:105A5000591E7B685B685B00B1FBF3F30133C3F352
:105A60000B0351E004234FE07B689B68002B11D1AE
:105A7000FB68581E7B6859680B465B000B44B0FB03
:105A8000F3F30133C3F30B03002B0CBF01230023FB
:105A9000DBB212E0FB68581E7B6859680B469B001E
:105AA0000B4499000B44B0FBF3F30133C3F30B0336
:105AB000002B0CBF01230023DBB2002B01D00123FC
:105AC00022E07B689B68002B0ED1FB68581E7B6828
:105AD00059680B465B000B44B0FBF3F30133C3F38F
